:0400000002006B325D
:03000B00021DF3E0
:0100130032BA
:01001B0032B2
:0100230032AA
:03002B000202EDE1
:01003300329A
:03003B0002068C2E
:01004300328A
:01004B003282
:01005300327A
:01005B003272
:0300630002038510
:03010E0002006686
:0300660002011183
:200111007F007D647E0953AFFB538EE275D72A75D610438E10C2954391C0439DC075BC8039
:20013100439720E4F5BEF5BDD2AD000000000000000075BCE6758900758A00758CB8758822
:2001510000538E7FD2A9D28C7595FF7596FF75D909E4F5D8F5E9F5F98539EA853AFA75DABE
:2001710049D2DED2BFD2AF8536A053B0DFD21F752F00753000752200753100753200C2A99D
:20019100855622855723D2A9E556C39522FAE5579523FCC3EA94C8EC940040ECD295539039
:2001B100F8439102439207C007C006C0051206FC12084412088CE582D005D006D0076028A9
:2001D100C007C006C005120454AC82D005D006D007BC0223C007C006C005120428AC82D033
:2001F10005D006D007BC020FC007C006C0051208E6D005D006D007900019E0600990001900
:20021100E0FC24F55004D21F8039C21FC2AF900019E0FC7B001CBCFF011B8C588B59901924
:20023100DEC007C006C005121F80E5828583F0D005D006D007242CFB740135F0FC8B398CBA
:200251003AD2AF7C008C027B008A828B83E0600B8C82758300E0FB24FC50088C8275830089
:200271007401F00CBC050040DC752C01C21EC007C006C0058D828E83120069858221D005B3
:20029100D006D007EF75F006A42400FA743335F0FBE52125212AF582E43BF583E493FDA322
:2002B100E493FEEF75F003A42418FB743335F0FCE5212BF582E43CF583E493FFC2A98556C2
:1C02D10024855725D2A9E556C39524FAE5579525FCC3EA940AEC940040EC8092C5
:2020000000EA00EA00EA00EA00EA00EA00EA00EA00EA00EA00EA00EA00EA00EA00EA00EA20
:2020200000EA00EA00EA00EA00EA00EA00EA00EA00EA00EA00EA00EA00EA00EA00EA00EA00
:2020400000EA00EA00EA00EA00EA00EA00EA00EA00EA00EA00EA00EA00EA00EA00EA00EAE0
:2020600000EA00EA00EA00EA00EA00EA00EA00EA00EA00EA00EA00EA00EA00EA00EA00EAC0
:2020800000EA00EA00EA00EA00EA00EA00EA00EA00EA00EA00EA00EA00EA00EA00EA00EAA0
:2020A00000EA00EA00EA00EA00EA00EA00EA00EA00EA00EA00EA00EA00EA00EA00EA00EA80
:2020C00000EA00EA00EA00EA00EA00EA00EA00EA00EA00EA00EA00EA00EABEE97CE93AE9EF
:2020E000F8E8B6E874E832E8F0E7AEE76CE72AE7E8E6A6E664E622E6E0E59EE55CE51BE5E7
:20210000D9E497E455E413E4D1E38FE34DE30BE3C9E287E245E203E2C1E17FE13DE1FBE0F8
:20212000B9E077E035E0F3DFB1DF6FDF2DDFEBDEA9DE67DE25DEE3DDA1DD5FDD1DDDDBDC1B
:2021400099DC57DC15DCD3DB91DB50DB0EDBCCDA8ADA48DA06DAC4D982D940D9FED8BCD831
:202160007AD838D8F6D7B4D772D730D7EED6ACD66AD628D6E6D5A4D562D520D5DED49CD44F
:202180005AD418D4D6D394D352D310D3CED28CD24AD208D2C6D185D143D101D1BFD07DD06A
:2021A0003BD0F9CFB7CF75CF33CFF1CEAFCE6DCE2BCEE9CDA7CD65CD23CDE1CC9FCC5DCC83
:2021C0001BCCD9CB97CB55CB13CBD1CA8FCA4DCA0BCAC9C987C945C903C9C1C87FC83DC8A3
:2021E000FCC7BAC778C736C7F4C6B2C670C62EC6ECC5AAC568C526C5E4C4A2C460C41EC4B7
:20220000DCC39AC358C316C3D4C292C250C20EC2CCC18AC148C106C1C4C082C040C0FEBFD7
:20222000BCBF7ABF38BFF6BEB4BE72BE31BEEFBDADBD6BBD29BDE7BCA5BC63BC21BCDFBBF0
:202240009DBB5BBB19BBD7BA95BA53BA11BACFB98DB94BB909B9C7B885B843B801B8BFB70A
:202260007DB73BB7F9B6B7B675B633B6F1B5AFB56DB52BB5E9B4A8B466B424B4E2B3A0B329
:202280005EB31CB3DAB298B256B214B2D2B190B14EB10CB1CAB088B046B004B0C2AF80AF3E
:2022A0003EAFFCAEBAAE78AE36AEF4ADB2AD70AD2EADECACAAAC68AC26ACE4ABA2AB60AB62
:2022C0001EABDDAA9BAA59AA17AAD5A993A951A90FA9CDA88BA849A807A8C5A783A741A773
:2022E000FFA6BDA67BA639A6F7A5B5A573A531A5EFA4ADA46BA429A4E7A3A5A363A321A396
:20230000DFA29DA25BA219A2D7A195A153A112A1D0A08EA04CA00AA0C89F869F449F029FAC
:20232000C09E7E9E3C9EFA9DB89D769D349DF29CB09C6E9C2C9CEA9BA89B669B249BE29AC9
:20234000A09A5E9A1C9ADA99989956991499D29890984E980C98CA97899747970597C396E5
:2023600081963F96FD95BB9579953795F594B39471942F94ED93AB9369932793E592A392FD
:2023800061921F92DD919B9159911791D590939051900F90CD8F8B8F498F078FC58E838E1D
:2023A000418EFF8DBE8D7C8D3A8DF88CB68C748C328CF08BAE8B6C8B2A8BE88AA68A648A33
:2023C000228AE0899E895C891A89D888968854881288D0878E874C870A87C8868686448651
:2023E0000286C0857E853C85FA84B88476843484F383B1836F832D83EB82A982678225826C
:20240000E381A1815F811D81DB80998057801580D37F917F4F7F0D7FCB7E897E477E057E84
:20242000C37D817D3F7DFD7CBB7C797C377CF57BB37B717B2F7BED7AAB7A6A7A287AE679A5
:20244000A47962792079DE789C785A781878D677947752771077CE768C764A760876C675B8
:20246000847542750075BE747C743A74F873B67374733273F072AE726C722A72E871A671DB
:2024800064712271E0709F705D701B70D96F976F556F136FD16E8F6E4D6E0B6EC96D876DEF
:2024A000456D036DC16C7F6C3D6CFB6BB96B776B356BF36AB16A6F6A2D6AEB69A96967690F
:2024C0002569E368A1685F681D68DB67996757671667D466926650660E66CC658A65486528
:2024E0000665C46482644064FE63BC637A633863F662B46272623062EE61AC616A61286143
:20250000E660A46062602060DE5F9C5F5A5F185FD65E945E525E105ECE5D8C5D4B5D095D61
:20252000C75C855C435C015CBF5B7D5B3B5BF95AB75A755A335AF159AF596D592B59E95876
:20254000A75865582358E1579F575D571B57D956975655561356D1558F554D550B55C95497
:20256000875445540354C15380533E53FC52BA5278523652F451B25170512E51EC50AA50AE
:2025800068502650E44FA24F604F1E4FDC4E9A4E584E164ED44D924D504D0E4DCC4C8A4CCB
:2025A000484C064CC44B824B404BFE4ABC4A7A4A384AF749B54973493149EF48AD486B48E7
:2025C0002948E747A54763472147DF469D465B461946D745954553451145CF448D444B44FF
:2025E0000944C743854343430143BF427D423B42F941B74175413341F140AF406D402C4020
:20260000EA3FA83F663F243FE23EA03E5E3E1C3EDA3D983D563D143DD23C903C4E3C0C3C32
:20262000CA3B883B463B043BC23A803A3E3AFC39BA3978393639F438B23870382E38EC3755
:20264000AA3768372637E436A23661361F36DD359B3559351735D534933451340F34CD336B
:202660008B3349330733C53283324132FF31BD317B313931F730B53073303130EF2FAD2F89
:202680006B2F292FE72EA52E632E212EDF2D9D2D5B2D192DD82C962C542C122CD02B8E2BA4
:2026A0004C2B0A2BC82A862A442A022AC0297E293C29FA28B82876283428F227B0276E27BC
:2026C0002C27EA26A82666262426E225A0255E251C25DA24982456241424D22390234E23DE
:2026E0000D23CB22892247220522C32181213F21FD20BB2079203720F51FB31F711F2F1FF0
:20270000ED1EAB1E691E271EE51DA31D611D1F1DDD1C9B1C591C171CD51B931B511B0F1B11
:20272000CD1A8B1A491A071AC519841942190019BE187C183A18F817B61774173217F01628
:20274000AE166C162A16E815A61564152215E0149E145C141A14D813961354131213D01245
:202760008E124C120A12C811861144110211C0107E103C10FA0FB90F770F350FF30EB10E62
:202780006F0E2D0EEB0DA90D670D250DE30CA10C5F0C1D0CDB0B990B570B150BD30A910A79
:2027A0004F0A0D0ACB09890947090509C30881083F08FD07BB0779073707F506B30671069B
:2027C0002F06EE05AC056A052805E604A40462042004DE039C035A031803D60294025202AE
:2027E0001002CE018C014A014A014A014A014A014A014A014A014A014A014A014A014A019C
:2028000000009909990999099909990999099909990999099909990999099909990999093A
:20282000990999099909990999099909990999099909990999099909990999099909990978
:20284000990999099909990999099909990999099909990999099909990999099909990958
:20286000990999099909990999099909990999099909990999099909990999099909990938
:202880009909990999099909990999099909990999099509890984097809720966096109F4
:2028A0005509500944093909340929092409190914090909040999089508900885088108EC
:2028C000760872086808630859085508510847084308380834083108270823081908150827
:2028E000110808080408000897079307900786078307790776077207690766076207590799
:2029000056075307490746074307400737073407310728072507220719071607130710072F
:2029200007070507020799069606930691068806850683068006770675067206700667068E
:202940006406620659065706540652064906470645064206400637063506330630062806AD
:202960002606230621061906170614061206100608060606030601069905970595059305C1
:2029800091058805860584058205800578057605740572057005680566056405620560058A
:2029A00058055605540552055005490547054505430541053905370535053405320530058F
:2029C000280526052505230521051905170516051405120510050905070505050405020559
:2029E00000059804970495049304920490048804870485048304820480047904770475049F
:202A0000740472047104690467046604640463046104600458045704550454045204500467
:202A20004904470446044404430441044004390437043604340433043104300428042704BB
:202A40002504240423042104200418041704150414041304110410040804070406040404E4
:202A60000304020400049903970396039503930392039103890388038703850384038303E9
:202A8000810380037903770376037503740372037103700368036703660365036303620304
:202AA0006103600358035703560354035303520351035003480347034603450343034203E7
:202AC0004103400338033703360335033403320331033003290328032603250324032303C1
:202AE00022032003190318031703160315031303120311031003090308030603050304038B
:202B00000303020301030003980297029602950294029302920291028902880287028602C9
:202B20008502840283028202800279027802770276027502740273027202710269026802F9
:202B4000670266026502640263026202610260025902580256025502540253025202510293
:202B6000500249024802470246024502440243024202400239023802370236023502340232
:202B80003302320231023002290228022702260225022402230222022102200219021802B1
:202BA00017021602150214021202110210020902080207020602050204020302020201023F
:202BC000000299019801970196019501940193019201910190018901880187018601850174
:202BE000840183018201810180017901780177017601750174017301720171017001690145
:202C00006801670166016501640163016301620161016001590158015701560155015401B6
:202C2000530152015101500149014801470146014501440143014201410140013901380120
:202C4000370136013501340133013201310130012901280128012701260125012401230196
:202C60002201210120011901180117011601150114011301120111011001090108010701FC
:202C8000060105010401030103010201010100019900980097009600950094009300920068
:202CA0009100900089008800870086008500840083008200810080008000790078007700DE
:202CC000760075007400730072007100700069006800670066006500640063006200610042
:202CE0006000590058005700560056005500540053005200510050004900480047004600B3
:202D0000450044004300420041004000390038003700360035003400330032003100300017
:202D200029002800270026002600250024002300220021002000190018001700160015008D
:202D40001400130012001100100009000800070006000500040003000200010000000100EB
:202D6000020003000400050006000700080009001000000000000000000000000000000017
:202D8000000000000000000000000000000000000000000000000000000000000000000033
:202DA000000000000000000000000000000000000000000000000000000000000000000013
:202DC0000000000000000000000000000000000000000000000000000000000000000000F3
:202DE0000000000000000000000000000000000000000000000000000000000000000000D3
:202E00000000000000000000000000000000000000000000000000000000000000000000B2
:202E2000000000000000000000000000000000000000000000000000000000000000000092
:202E4000000000000000000000000000000000000000000000000000000000000000000072
:202E6000000000000000000000000000000000000000000000000000000000000000000052
:202E8000000000000000000000000000000000000000000000000000000000000000000032
:202EA000000000000000000000000000000000000000000000000000000000000000000012
:202EC0000000000000000000000000000000000000000000000000000000000000000000F2
:202EE0000000000000000000000000000000000000000000000000000000000000000000D2
:202F00000000000000000000000000000000000000000000000000000000000000000000B1
:202F2000000000000000000000000000000000000000000000000000000000000000000091
:202F4000000000000000000000000000000000000000000000000000000000000000000071
:202F6000000000000000000000000000000000000000000000000000000000000000000051
:202F8000000000000000000000000000000000000000000000000000000000000000000031
:202FA000000000000000000000000000000000000000000000000000000000000000000011
:202FC0000000000000000000000000000000000000000000000000000000000000000000F1
:202FE0000000000000000000000000000000000000000000000000000000000000000000D1
:2002ED00C0E0C082C083C0D075D01863BC1074E7B5BC0885BE2885BD29807485BE2685BD67
:20030D0027301F6BE52625E0FEE52733FF8E8274202FF583E493FEA3E493FFC3E5399EE566
:20032D003A9F5022EEC39539FCEF953AA2E7CC33CC33A2E7CC33CC33CC5403FDEC2539FCB8
:20034D00ED353AFD8021E539C39EFEE53A9FA2E7CE33CE33A2E7CE33CE33CE5403FFE53903
:18036D00C39EFCE53A9FFDC2BF8C398D3AD2BFD0D0D083D082D0E0329B
:0900C400752D0F752E00752C013D
:20038500C0E0C007C006C005C0D075D000AE2AAF2BC3EE9428EF9423400AD295D52D0375A1
:2003A5002D0F80747402B52C0280057403B52C3174F1252E5013C3E52E94199200400674B7
:2003C500D8252E5004C2008002D200A200E433FF7402B52C067D647E0080107D467E0080BE
:2003E5000AC3E52E940FE433FF7D69EF600AE52D24F85004C2958002D295D52D03752D0FA8
:20040500052EC3E52E9D4003752E00AE2AAF2B74012EF52AE43FF52BD0D0D005D006D00772
:03042500D0E032F2
:20042800C2A9E522C4035407FF7006D2A975820322301706D2A97582022210150280047F07
:20044800008004C2167F01D2A98F8222C2A9E522540E60028006D2A975820322301306D29C
:17046800A97582022210110280047F008004C2127F01D2A98F82220D
:20047F0085825985835A85F05B7BFF7CFF7A00C3EA95585047EA2559F8E4355AF9AF5B88CD
:20049F008289838FF01231B9FF78008B058C06ED6200EE620788038F047F08EC30E712EB50
:2004BF002BFDEC33FE6305216306108D038E048006EB2BFBEC33FCDFE20A80B38B828C83E8
:0104DF0022FA
:1B00CD00753C10753300753400753500753600753703753800753900753AFFF9
:2004E000AE82AF83E49390300093FD8E828F83A3E49390300093FC8E828F83A3A3E49390D9
:20050000308093FB8E828F83A3A3A3E49390300093FFC2AF8D338C348B358F36D2AF22E5CB
:2005200082FFC4540F90300093FE53070F7D00EF2400F582ED3430F583E493FFE558C454BE
:200540000F90308093FDAB5853030F7C00EB2400F582EC3430F583E493FCC2AF8E338F3422
:200560008D358C36D2AF22AF82900003E02323540160208F82C007120922D007853B58C0D1
:200580000712051FD007BF12004010747F5536F5368008853B588F8212051F900002E0FF25
:2005A00030E011903030E493FFB53308903020E493FF8F3322900003E0235401600B85416E
:2005C0008285405812051F800985408285415812051F747F5534F534900002E0FF30E021DB
:2005E000903030E493B53308903020E493FF8F339030B0E493FFB535089030A0E493FF8F4F
:200600003522E58260119030CFE493FF8F3590304EE493FF8F36229030CFE493FF8F35901E
:200620003046E493FF8F3622AE82AF838F0553050F7C00ED2400F582EC3430F583E493FD4A
:200640008E03EFC4CBC4540F6BCB540FCB6BCB53030F7C00EB2400F582EC3430F583E49324
:20066000FC53060F7F00EE2480F582EF3430F583E493FF903043E493FEC2AF8D338C348F55
:20068000358E36D2AF747F5534F53422C0E0C0F0C0D075D00810DF02803DAF39740F5FF57F
:2006A000EA853AFAE5372433F987A074F8253C40118537F005F0E5388002C313D5F0FB20F0
:2006C000E033AF378FF005F07404800225E0D5F0FBF4FF52B0801E10D802801943B03CE5C4
:1C06E00037700DAF3C153CEF7003753C10753704E53714F537D0D0D0F0D0E0329D
:2006FC00C291C292C290000000000000000000000000000000000000000022C291D290000E
:20071C00000000000000000000000000000000000000000207B0D291000000A2919208D202
:20073C009200000000C292000000A2919209D29200000000C292000000A291920AD29200FE
:20075C00000000C292000000A291920BD29200000000C292000000A291920CD2920000006C
:20077C0000C292000000A291920DD29200000000C292000000A291920ED29200000000C286
:20079C0092000000A291920FD29200000000C29285218222858221A2089291D2920000007C
:2007BC0000C292A2099291D29200000000C292A20A9291D29200000000C292A20B9291D21A
:2007DC009200000000C292A20C9291D29200000000C292A20D9291D29200000000C292A262
:2007FC000E9291D29200000000C292A20F9291D29200000000C2922275828E12071775829A
:20081C00001207B0C2901206FC7582BE1207177F00903299E4932FF98782C0071207B0D0C6
:20083C00070FBF08ECC290227582FF1207177F008F057E00C007C006C005120732AC82D00D
:20085C0005D006D0078D828E83ECF00FBF1FE1C290227582FE1207177F008F82758300E0FF
:20087C00F582C0071207B0D0070FBF1FEDC29022900000E0FF900001E0FDE4FEFCEF42063E
:20089C00EC420575581D90000275F000C006C00512047FAC82AF83D005D006ECB50608EF5F
:2008BC00B50504758201227582002275581D90000275F00012047FAE82AF838E0590000030
:2008DC00EDF08F06900001EEF022755800755932755A80755B08755C0090003D75F04012B0
:2008FC001F10755808755932755A80755B1F755C0090000075F000121F101208C712081484
:20091C001206FC02086EE582FF700475821222EF24ED50087558888F8202093B8F8222C033
:20093C00E0C0D0E5822558D4F582D0D0D0E022C0E0C0D0C2D7E5822558D4F582E58335599C
:08095C00D4F583D0D0D0E022D5
:013299003DF7
:20320000001110290706260000000000000000000000000000000000000000000000000031
:073220000000010000700036
:2000E800754D00754F00755000755100755300754500E4F546F547F548F549F54AF54BF51B
:010108004CAA
:2009640012045485824E120428AE827401B54D26EE7017E54C700E121EDC85824A85834BD5
:20098400754C018003754C007E03BE0109E4F548F549F54C7E037407B54D03020B0B7401D6
:2009A400B54E0474018001E4FD600ABE0107754D0075820022E54E701DC006C005121EDCF3
:2009C400858246858347D005D006C21E054D7406B54D03754D00ED6012C006121EDC858221
:2009E40046858347D006C21E754D00EE7012C006121EDC858246858347D006C21E754D028E
:200A0400E54D7003020AAE301E6A7401B54D05C21E020B0BC006121EDCE5828583F0D00640
:200A2400C39546FCE5F09547FDC374C89CE49D4003020B0B054D7406B54D028022900003EE
:200A4400E0FD854DF005F0ED8002C313D5F0FB30E0E2121EDC85824685834775820122C085
:200A640006121EDC858246858347D006C21E754D00020B0BC006121EDCE5828583F0D0062D
:200A8400C39546FCE5F09547FDC374C89CE49D50767401B54D02806FC006121EDC858246A1
:200AA400858347D006754D00805DC006121EDCE5828583F0D006C39546FCE5F09547FDC35C
:200AC40074E89C74039D503FD21E054D7406B54D028022900003E0FD854DF005F0ED80027F
:200AE400C313D5F0FB30E0E2121EDC85824685834775820122C006121EDC8582468583473A
:200B0400D006C21E754D007582BFC006120717D006D291000000A2919208D2920000000043
:200B2400C292000000A2919209D29200000000C292000000A291920AD29200000000C29250
:200B4400000000A291920BD29200000000C292000000A291920CD29200000000C292000080
:200B640000A291920DD29200000000C292000000A291920ED29200000000C292000000A2BA
:200B840091920FD29200000000C292E521F53DD291000000A2919208D29200000000C29247
:200BA400000000A2919209D29200000000C292000000A291920AD29200000000C292000024
:200BC40000A291920BD29200000000C292000000A291920CD29200000000C292000000A25E
:200BE40091920DD29200000000C292000000A291920ED29200000000C292000000A29192B9
:200C04000FD29200000000C292AD218D3ED291000000A2919208D29200000000C292000088
:200C240000A2919209D29200000000C292000000A291920AD29200000000C292000000A201
:200C440091920BD29200000000C292000000A291920CD29200000000C292000000A291925C
:200C64000DD29200000000C292000000A291920ED29200000000C292000000A291920FD27A
:200C84009200000000C292E521F53FD291000000A2919208D29200000000C292000000A2A6
:200CA400919209D29200000000C292000000A291920AD29200000000C292000000A2919200
:200CC4000BD29200000000C292000000A291920CD29200000000C292000000A291920DD220
:200CE4009200000000C292000000A291920ED29200000000C292000000A291920FD2920047
:200D0400000000C292E521F540D291000000A2919208D29200000000C292000000A2919293
:200D240009D29200000000C292000000A291920AD29200000000C292000000A291920BD2C5
:200D44009200000000C292000000A291920CD29200000000C292000000A291920DD29200EA
:200D6400000000C292000000A291920ED29200000000C292000000A291920FD29200000058
:200D840000C292E521F541D291000000A2919208D29200000000C292000000A2919209D237
:200DA4009200000000C292000000A291920AD29200000000C292000000A291920BD292008E
:200DC400000000C292000000A291920CD29200000000C292000000A291920DD292000000FC
:200DE40000C292000000A291920ED29200000000C292000000A291920FD29200000000C216
:200E040092E521F542D291000000A2919208D29200000000C292000000A2919209D29200E5
:200E2400000000C292000000A291920AD29200000000C292000000A291920BD2920000009F
:200E440000C292000000A291920CD29200000000C292000000A291920DD29200000000C2B9
:200E640092000000A291920ED29200000000C292000000A291920FD29200000000C292E5E0
:200E840021F543C290EDB54503020F327D00BD05004003020F2FED75F003A4FBACF02404FC
:200EA400FAEC3400FF8A828F83A3A3E0FF8542F005F0EF8002C313D5F0FB30E06AEB240492
:200EC400FAEC3400FF8A828F83A3A3E0FF30E057EB2404F582EC3400F583E0FFB53F48EB23
:200EE4002404FBEC3400FC8B828C83A3E0FFB53E368D047F008C828F83E0600B8D82758366
:200F040000E0FC7F0080047C017F008C2C53AFFBE4F52AF52B43AF04C21FC2AF75390075AF
:200F24003AEAD2AF754D070D020E92853E45E54D24F850030211C0E54D240B83F582E54D87
:200F4400240C83F583E4735BFA1876B2B7C05B0F0F11111111110F7407B54D1E75380F7457
:200F640003B54E05BE0302801175380053AFFBC2AFD295D2AFD21F754D00853F82853E3B14
:200F8400120567E53D30E00C747F5534F534747F5535F535E54D60030211C07F007E00EEF2
:200FA40075F003A4FCADF02404FAED3400FB8A828B83A3A3E0FB30E022EC2404FCED3400AC
:200FC400FD8C828D83A3A3E0FD8542F005F0ED8002C313D5F0FB30E0027F010EBE0500407B
:200FE400BEEF6009747F5536F5360211C074804536F5360211C0E54C6045121EDCE5828520
:2010040083F0C3954AFEE5F0954BFFC3EE9464EF9400402BAE4AAF4B74642EFEE43FFF8EC8
:201024004A8F4B0548E4B548020549AE48AF49C3EE9410EF940E4007E4F548F549F54CAEA1
:2010440048AF4975583C7559008E828F83C007C006121EE7AC82D006D00775583C755900FD
:201064008E828F83C004121F9DAE82D0047F0075580A8F598C828F83C007C006C0041232C1
:201084005DAB82D004D006D007EBC454F0FB75580A7559008C828F83C006C003123227ADED
:2010A40082D003D006ED42038E057F0075580A8F598D828F83C007C006C005C00312325D27
:2010C400AA82D003D005D006D007EAC454F0FA75580A7559008D828F83C006C003C002127C
:2010E4003227AD82D002D003D006ED4AF5588B82C00612051FD006E54C70030211C0EE2001
:20110400E0030211C0747F5534F534747F5535F5350211C0C2ADAE28AF29D2ADEE2EFEEF51
:2011240033FF8E8274282FF583E493FEA3E493FF90001DE0FD90001EE0FBE4FCFAED420478
:20114400EA42038C588B598E828F8312094BAE82AF838E048F05C374999C74099D50047E2C
:20116400997F098E828F83120628747F5534F534804A90001AE0600DAE427F00741B2EFE58
:20118400E43FFF800CAC427D00EC24FFFEED34FFFF8E588F59900005121F80AE82AF83EEA2
:2011A4002400F582EF3431F5831204E0800E1205B5800985435875822012051F7582012264
:2011C400120454AF82C007120428AE82D007E54F6020BF0110753800120814754560754F27
:2011E4000075820022EF700A054F7407B54F03754F017D00EE6003BE02027D01E54F24F96F
:201204005003021360E54F75F003A49012137302122802123D02123D02129102129102125E
:20122400EF021310EE7002054FEF7004758202229031231204E00213607401B54F1B853FBD
:20124400828D58C00512093BAF82D005EFF53F24DC5003753F007538037402B54F17853ED4
:20126400828D5812093BE582FFF53E24A65003753E0075380C853F82853E3B120567747FD6
:201284005534F534747F5535F5350213607403B54F2A8540828D58C00512093BAF82D0058A
:2012A400EFF54024CE5003754000900003E0235401FF600575380C80037538037404B54F55
:2012C400258541828D5812093BE582F54124ED5003754100900003E0235401FF60057538AF
:2012E40003800375380C1205B580718543828D5812093BE582F54324665003754300753888
:201304000F85435875822012051F80508542828D5812093BE582F54224F8500375420175BF
:20132400380F90001AE0600DAE427F00741B2EFEE43FFF800CAC427D00EC24FFFEED34FFFB
:20134400FF8E588F59900005121F80AE82AF83EE2400F582EF3431F5831204E075820122AF
:20136400120454AF82C007120428858252D0077D00E55260057402B552027D01E4B5501D7D
:20138400EF700475820222E5527009755001F551758201229031281204E0021AFDE55124A3
:2013A400F35003021AFDE551240B83F582E551241183F583E473D4AFBBD56868686868682B
:2013C4006873E313141516171717171717171819BF01167551007538007550001208C71226
:2013E400086E75456075820022EF701205507406B550028003021AFD755001021AFDE55247
:201404007048AC501CC2D575F003EC30E704B2D5F404A430D50AF42401C5F0F43400C5F015
:20142400FCABF02404FAEB3400FE74022AFAE43EFEEC2404FCEB3400FB8C828B83A3A3E0AC
:20144400FC6304018A828E83ECF07401B55206755101021AFD903041E493FE8E33E55090CD
:20146400300093FE8E34AE501EC2D575F003EE30E704B2D5F404A430D50AF42401C5F0F4CD
:201484003400C5F02404FC740035F0FE8C828E83A3A3E0FE74015EF582120602747F553481
:2014A400F534747F5535F535021AFDBF0109753800755100021AFDEF7008F538755102028C
:2014C4001AFDAE501EC2D575F003EE30E704B2D5F404A430D50AF42401C5F0F43400C5F0F0
:2014E400FEACF02404FAEC3400FBEE2404F582EC3400F583E0FE8D588E82C003C002120979
:201504003BAE82D002D0038A828B83EEF0E550FE14FCC2D575F003EC30E704B2D5F404A453
:2015240030D50AF42401C5F0F43400C5F02404F582740035F0F583E024DC502AEE14FCC223
:20154400D575F003EC30E704B2D5F404A430D50AF42401C5F0F43400C5F02404F582740053
:2015640035F0F583E4F07538031EC2D575F003EE30E704B2D5F404A430D50AF42401C5F020
:20158400F43400C5F0FEACF02404F582EC3400F583E0FBEE2404FEEC3400FC8E828C83A3CC
:2015A400E0F5588B8212051F747F5534F534747F5535F535021AFDBF010975380075510016
:2015C400021AFDEF7008F538755103021AFDAE501EC2D575F003EE30E704B2D5F404A43001
:2015E400D50AF42401C5F0F43400C5F0FEACF02404FAEC3400FB0ABA00010BEE2404FEECB6
:201604003400FC8E828C83A3E0FE8D588E82C003C00212093BAE82D002D0038A828B83EE49
:20162400F0E550FE14FDC2D575F003ED30E704B2D5F404A430D50AF42401C5F0F43400C57E
:20164400F02404FC740035F0FD8C828D83A3E024A6502DEE14FDC2D575F003ED30E704B23C
:20166400D5F404A430D50AF42401C5F0F43400C5F02404FC740035F0FD8C828D83A3E4F0EC
:2016840075380C1EC2D575F003EE30E704B2D5F404A430D50AF42401C5F0F43400C5F0FE8C
:2016A400ADF02404F582ED3400F583E0FCEE2404FEED3400FD8E828D83A3E0F5588C821233
:2016C400051F747F5534F534747F5535F535021AFDBF0106755100021AFDEF700675510CA1
:2016E400021AFD7401B55206755104021AFD90001AE060067D247E0080047D237E008D58D2
:201704008E59900005121F80AD82AE83ED2400F582EE3431F5831204E0AE501EC2D575F0D7
:2017240003EE30E704B2D5F404A430D50AF42401C5F0F43400C5F02404FD740035F0FE8D73
:20174400828E83A3A3E0FE5306FE7D00BEFE0CBD0009747F5536F536021AFD74804536F546
:2017640036021AFD90001AE0602AAD517E0074182DF558E43EF559900005C007121F80AD56
:2017840082AE83ED2400F582EE3431F5831204E0D0078029AD517E00ED24FCF558EE34FFD2
:2017A400F559900005C007121F80AD82AE83ED2400F582EE3431F5831204E0D007AE511E2D
:2017C4001E1EAD501DED75F003A42404FC740035F0FD8C828D83A3A3E0FD8EF005F0ED80DB
:2017E40002C313D5F0FB30E008747F5536F536800674804536F536E55270110551E5512404
:20180400F54003021AFD75510B021AFD7401B55247AE511E1E1EAD501DED75F003A4FDACB1
:20182400F02404FAEC3400FB74022AFAE43BFBED2404FDEC3400FC8D828C83A3A3E0FD8EC6
:20184400F005F07401800225E0D5F0FBFE62058A828B83EDF0021AFDEF700675510C021A1B
:20186400FDBF01028003021AFD755103021AFD90001AE060067D247E0080047D237E008DE9
:20188400588E59900005C007121F80AD82AE83ED2400F582EE3431F5831204E0D007AE507A
:2018A4001EC2D575F003EE30E704B2D5F404A430D50AF42401C5F0F43400C5F02404FD7488
:2018C4000035F0FE8D828E83A3A3E0FE5306FE7D00BEFE0BBD0008747F5536F5368006749A
:2018E400804536F536E5527006755104021AFD7401B5520280030219CCE550FE14FDC2D56B
:2019040075F003ED30E704B2D5F404A430D50AF42401C5F0F43400C5F02404FC740035F0B9
:20192400FD8C828D83A3A3E0FD5305FE7C00BDFE4EBC004BEE14FDC2D575F003ED30E7047D
:20194400B2D5F404A430D50AF42401C5F0F43400C5F0FDACF02404FAEC3400FB74022AFA36
:20196400E43BFBED2404FDEC3400FC8D828C83A3A3E0FD5305018A828B83EDF0021AFD1E53
:20198400C2D575F003EE30E704B2D5F404A430D50AF42401C5F0F43400C5F0FEADF024049B
:2019A400FBED3400FC74022BFBE43CFCEE2404FEED3400FD8E828D83A3A3E0FE4306FE8B0B
:2019C400828C83EEF0021AFDEF700675510C021AFDBF01028003021AFD755103021AFDEFFC
:2019E4006003BF010F53AFFBC2AFD295D2AF755100021AFDE5526003021A84E550FF14FEFC
:201A04003395E0FD8E8274002DF583E0FEBE01004014EF14FE3395E0FD8E8274002DF58334
:201A2400E0FE24FC5013EF14FE3395E0FD8E8274002DF5837401F0802CEF14FE3395E02494
:201A440000FD8E828D83E0FC0C8E828D83ECF0EC24FC5011EF14FE3395E0FD8E8274002DBD
:201A6400F5837401F01FEF3395E0FE8F8274002EF583E0F52C53AFFBE4F52AF52B43AF048F
:201A8400E550FF14FE3395E0FD8E8274002DF583E0FEBE01004014EF14FE3395E0FD8E8287
:201AA40074002DF583E0FE24FC50101FEF3395E0FE8F8274002EF5837401F0903062E493CE
:201AC400FF8F33903050E493FF8F349030A0E493FF8F35AF501FEF3395E0FE8F8274002EF8
:201AE400F583E02430FF3395E0FEEF2400F582EE3430F583E493FF8F36758201221204547E
:201B0400AF82C007120428AE82D007E55324F25003021DEFE553240B83F582E55324128383
:201B2400F583E47344682551DAEEEEEEEEEEEEEEEEA91B1B1C1C1C1C1C1C1C1C1C1C1C1D36
:201B4400EF70131208C712086E121EDC85824685834775820222EE7002055390313712041D
:201B6400E0021DEFBF010775530075820022EF7003755302EE6003BE0215900019E0FD0DE6
:201B8400900019EDF0ED24F55005900019E4F0900019E07004D21F802DC21FC2AF9000194D
:201BA400E0FD7C001DBDFF011C8D588C599019DE121F80E5828583F0242CFC740135F0FD8E
:201BC4008C398D3AD2AF903062E493FD8D33903072E493FD8D34900019E0FDBD0A12903018
:201BE400B1E493FD8D35903030E493FD8D3680229030A0E493FD8D35900019E02430FD338E
:201C040095E0FCED2400F582EC3430F583E493FD8D36747F5534F534747F5535F535021D5D
:201C2400EFEF700375530DEE701A75530390001DE0FD90001EE0FBE4FCFAED4204EA4203E8
:201C44008C548B559031411204E0021DEFBF0111755302AD5490001DEDF0AD5590001EEDF7
:201C6400F0EE6003BE021575580175590085548285558312094B858254858355AC54AD55D6
:201C8400C374409C74019D5005E4F554F555C2ADAC28AD29D2ADEC2CFCED33FD8C827428DC
:201CA4002DF583E493FCA3E493FD8554588555598C828D8312094BAC82AD838C028D03C3CA
:201CC40074999A74099B50047C997D098C828D83120628021DEFEE7003755305EF7002F562
:201CE400539031461204E0021DEFAC537D00740A2CF558E43DF559900005C007C006121F4D
:201D040080AC82AD83EC2400F582ED3431F5831204E0D006D007740CB55302804790000309
:201D2400E0FDE55324FCF5F005F0ED8002C313D5F0FB5401F582C007C006120602D006D072
:201D440007EE7040900003E0FDE55324FCF5F005F07401800225E0D5F0FBFC620590000386
:201D6400EDF08020900002E0FD74015DF582C007C006120602D006D007EE7008900002E0FE
:201D84006401FDF0747F5534F534747F5535F535EF700A0553740EB55303755305BF014B7B
:201DA4007553048046BF010775530075820022EF7003755304EE700890001AE06401FFF073
:201DC40090001AE060067E1B7F0080047E1A7F008E588F59900005121F80AE82AF83EE24D4
:0F1DE40000F582EF3431F5831204E0758201229D
:20330000C411640964096409C411641364096413011B6409011B6409010000000102000249
:0433200003000300A3
:20300000C0F9A4B0999282F880908883C6A1868EFFFFFFFFFFFFFFFFFFFFFFFFFFFFFFFF78
:20302000FFFFDDFFFFFFFFFDC6F0FFFFEFBFFFFFC0F9A4B0999282F88090FFFFFFFFFFFFA0
:20304000FF8883C6A1868EC289F9F1FFC7C8ABC08C98AF9287C1FFFFFF91FFC6FFF0FFF7D8
:20306000DF8883A7A1848EC28BFBF1FFF9FFABA38C98AF9287E3FFFFFFFFFFFFFFFFFFFFC9
:20308000C0CFA4868B9290C780828198F08CB0B1FFFFFFFFFFFFFFFFFFFFFFFFFFFFFFFF1B
:2030A000FFFFEBFFFFFFFFEFF0C6FFFFFDBFFFFFC0CFA4868B9290C78082FFFFFFFFFFFFA5
:2030C000FF8198F08CB0B1D089CFCEFFF8FF9DC0A183BD92B8C8FFFFFF8AFFF0FFC6FFFE87
:2030E000FB8198BC8CA0B1D099DFCEFFCFFF9D9CA183BD92B8DCFFFFFFFFFFFFFFFFFFFF0A
:203100004E4F4E2000545545200055454420005448555200465249200053415420005355A4
:203120004E200053455443005345544100414C4F4E00414C4F4600434F4E4600425220207F
:20314000005443414C0044495350004E53202000545020200044552020004454202000594C
:203160005220200031322020004E442020005230202000625020200064414C59004C416E4F
:2031800020004C2D456E004C2D4553004C756E20004D417220004D494520004A5545200064
:1931A00055494520005341622000306F4E2000414C4C200030494120001D
:05010900E4F556F55776
:201DF300C0E0C0D075D010AE56AF5774012EF556E43FF55774E7B5BC0BE4F5BEF5BD75BC93
:201E1300E675BCEE74E6B5BC0BE4F5BEF5BD75BCE775BCEFE52F25E0FFA2B1E4334FF52F5E
:201E3300E53025E0FFA2B0E4334FF530AE2F5316877F00BE800EBF000BD2105322F1753149
:201E530000752F00AE305316877F00BE800EBF000BD21453221F753200753000AE2F53165C
:201E7300877F00BE071ABF001710130CE53124DF5004D2128002D211C210753100752FFF94
:201E9300AE305316877F00BE071ABF001710170CE53224DF5004D2168002D215C2147532BE
:201EB300007530FF30100DE53104FF8F31BF96004002D21330140DE53204FF8F32BF960048
:141ED3004002D217D0D0D0E032C2A9855682855783D2A9228A
:201EE7007A10E4FBFCE58225E0F582E58333F583EB33FBEC33FCEB9558F5F0EC955940066F
:091F0700FCABF0438201DADD229B
:06009A00E478FFF6D8FD3A
:201F1000AD82AE83AFF08D5D8E5E8F5F855860855961855A62A85BA95C8803890418B8FF42
:201F30000119EB4C60258560828561838562F01231B9FCA38582608583618D828E838FF00A
:151F5000EC121F65A3AD82AE8380CE855D82855E83855FF022E9
:200078007900E94400601B7A0090329A780175A000E493F2A308B8000205A0D9F4DAF27562
:02009800A0FFC7
:1B1F650020F71130F6138883A88220F509F6A8837583002280FEF280F5F0227B
:1D1F8000E5828558F0A4C582C0F08559F0A4D0F025F0C5838558F0A42583F5832233
:201F9D00E558455960467A01E55825E0F558E559334012F559E5829558E583955940030A91
:201FBD0080E6C3E55913F559E55813F558C3E5829558F5F0E58395594005F58385F082C3D6
:0D1FDD00E55913F559E55813F558DAE122DE
:2000A0007800E84400600A790175A000E4F309D8FC7800E84400600C7900900001E4F0A35E
:0400C000D8FCD9FA95
:0F006900E473758162123295E5826003020066CE
:1C31B90020F71430F6148883A88220F507E6A88375830022E280F7E49322E02225
:20322700C2D5E58330E70DD2D5E4C39582F582E49583F583E55930E70BE4C39558F558E4EF
:163247009559F559121F9D30D50BE4C39582F582E49583F583228C
:20325D00C2D5E58330E70DD2D5E4C39582F582E49583F583E55930E70DB2D5E4C39558F56C
:18327D0058E49559F559121EE730D50BE4C39582F582E49583F58322CF
:04329500758200221C
:00000001FF
