:0400000002006B325D
:03000B00021E4F83
:0100130032BA
:01001B0032B2
:0100230032AA
:03002B00020301CC
:01003300329A
:03003B000206BBFF
:01004300328A
:01004B003282
:01005300327A
:01005B003272
:030063000203A1F4
:0301240002006670
:030066000201276D
:200127007F007D3D7E0A53AFFB538EE275D72A75D610438E10C2954391C0439DC075BC8049
:20014700439720E4F5BEF5BDD2AD000000000000000075BCE6758900758A00758CB875880C
:2001670000538E7FD2A9D28C7595FF7596FF75D909E4F5D8F5E9F5F98538EA8539FA75DAAA
:2001870049D2DED2BFD2AF8535A053B0DFD21F752E00752F00752200753000753100C2A98C
:2001A700855E21855F22D2A9E55EC39521FAE55F9522FCC3EA94C8EC940040ECD295539007
:2001C700F8439102439207C007C006C00512072B1208731208BBE582D005D006D007602805
:2001E700C007C006C0051204ACAC82D005D006D007BC0223C007C006C005120480AC82D06D
:2002070005D006D007BC020FC007C006C005120915D005D006D007900019E06009900019B9
:20022700E0FC24F55004D21F8039C21FC2AF900019E0FC7B001CBCFF011B8C608B619019FE
:20024700DEC007C006C005121FDCE5828583F0D005D006D007242CFB740135F0FC8B388C49
:2002670039D2AF7C008C027B008A828B83E0600B8C82758300E0FB24FC50088C8275830074
:200287007401F00CBC050040DC752B01C007C006C0058D828E83120069858220D005D006A9
:2002A700D007EF75F006A42400FA743335F0FBE52025202AF582E43BF583E493FDA3E4936D
:2002C700FEEF75F003A42418FB743335F0FCE5202BF582E43CF583E493FFC2A9855E238574
:1A02E7005F24D2A9E55EC39523FAE55F9524FCC3EA940AEC940040EC809245
:2020000000EA00EA00EA00EA00EA00EA00EA00EA00EA00EA00EA00EA00EA00EA00EA00EA20
:2020200000EA00EA00EA00EA00EA00EA00EA00EA00EA00EA00EA00EA00EA00EA00EA00EA00
:2020400000EA00EA00EA00EA00EA00EA00EA00EA00EA00EA00EA00EA00EA00EA00EA00EAE0
:2020600000EA00EA00EA00EA00EA00EA00EA7CE9F8E874E8F0E76CE7E8E664E6E0E55CE511
:20208000D9E455E4D1E34DE3C9E245E2C1E13DE1B9E035E0B1DF2DDFA9DE25DEA1DD1DDD88
:2020A00099DC15DC91DB0EDB8ADA06DA82D9FED87AD8F6D772D7EED66AD6E6D562D5DED4E0
:2020C0005AD4D6D352D3CED24AD2C6D143D1BFD03BD0B7CF33CFAFCE2BCEA7CD23CD9FCC36
:2020E0001BCC97CB13CB8FCA0BCA87C903C97FC8FCC778C7F4C670C6ECC568C5E4C460C48C
:20210000DCC358C3D4C250C2CCC148C1C4C040C0BCBF38BFB4BE31BEADBD29BDA5BC21BCE2
:202120009DBB19BB95BA11BA8DB909B985B801B87DB7F9B675B6F1B56DB5E9B466B4E2B339
:202140005EB3DAB256B2D2B14EB1CAB046B0C2AF3EAFBAAE36AEB2AD2EADAAAC26ACA2AB8F
:202160001EAB9BAA17AA93A90FA98BA807A883A7FFA67BA6F7A573A5EFA46BA4E7A363A3E4
:20218000DFA25BA2D7A153A1D0A04CA0C89F449FC09E3C9EB89D349DB09C2C9CA89B249B3B
:2021A000A09A1C9A9899149990980C98899705978196FD957995F5947194ED936993E59291
:2021C0006192DD915991D5905190CD8F498FC58E418EBE8D3A8DB68C328CAE8B2A8BA68AE8
:2021E000228A9E891A89968812888E870A87868602867E85FA847684F3836F83EB8267823E
:20220000E3815F81DB805780D37F4F7FCB7E477EC37D3F7DBB7C377CB37B2F7BAB7A287A95
:20222000A47920799C781878947710778C760876847500757C74F8737473F0726C72E871E9
:202240006471E0705D70D96F556FD16E4D6EC96D456DC16C3D6CB96B356BB16A2D6AA96940
:202260002569A1681D689967166792660E668A6506658264FE637A63F6627262EE616A6195
:20228000E6606260DE5F5A5FD65E525ECE5D4B5DC75C435CBF5B3B5BB75A335AAF592B59ED
:2022A000A75823589F571B57975613568F550B55875403548053FC527852F4517051EC5043
:2022C0006850E44F604FDC4E584ED44D504DCC4C484CC44B404BBC4A384AB5493149AD489B
:2022E0002948A54721479D461946954511458D440944854301437D42F9417541F1406D40F0
:20230000EA3F663FE23E5E3EDA3D563DD23C4E3CCA3B463BC23A3E3ABA393639B2382E3845
:20232000AA372637A2361F369B35173593340F348B3307338332FF317B31F7307330EF2F9B
:202340006B2FE72E632EDF2D5B2DD82C542CD02B4C2BC82A442AC0293C29B8283428B027F2
:202360002C27A8262426A0251C259824142490230D23892205228121FD207920F51F711F47
:20238000ED1E691EE51D611DDD1C591CD51B511BCD1A491AC5194219BE183A18B6173217A0
:2023A000AE162A16A61522159E141A14961312138E120A12861102117E10FA0F770FF30EF5
:2023C0006F0EEB0D670DE30C5F0CDB0B570BD30A4F0ACB094709C3083F08BB073707B3064D
:2023E0002F06AC052805A40420049C031803940210028C014A014A014A014A014A014A014D
:2028000000009909990999099909990999099909990999099909990999099909990999093A
:20282000990999099909990999099909990999099909990999099909990999099909990978
:20284000990999099909990999099909990999099909990999099909990999099909990958
:20286000990999099909990999099909990999099909990999099909990999099909990938
:202880009909990999099909990999099909990999099509890984097809720966096109F4
:2028A0005509500944093909340929092409190914090909040999089508900885088108EC
:2028C000760872086808630859085508510847084308380834083108270823081908150827
:2028E000110808080408000897079307900786078307790776077207690766076207590799
:2029000056075307490746074307400737073407310728072507220719071607130710072F
:2029200007070507020799069606930691068806850683068006770675067206700667068E
:202940006406620659065706540652064906470645064206400637063506330630062806AD
:202960002606230621061906170614061206100608060606030601069905970595059305C1
:2029800091058805860584058205800578057605740572057005680566056405620560058A
:2029A00058055605540552055005490547054505430541053905370535053405320530058F
:2029C000280526052505230521051905170516051405120510050905070505050405020559
:2029E00000059804970495049304920490048804870485048304820480047904770475049F
:202A0000740472047104690467046604640463046104600458045704550454045204500467
:202A20004904470446044404430441044004390437043604340433043104300428042704BB
:202A40002504240423042104200418041704150414041304110410040804070406040404E4
:202A60000304020400049903970396039503930392039103890388038703850384038303E9
:202A8000810380037903770376037503740372037103700368036703660365036303620304
:202AA0006103600358035703560354035303520351035003480347034603450343034203E7
:202AC0004103400338033703360335033403320331033003290328032603250324032303C1
:202AE00022032003190318031703160315031303120311031003090308030603050304038B
:202B00000303020301030003980297029602950294029302920291028902880287028602C9
:202B20008502840283028202800279027802770276027502740273027202710269026802F9
:202B4000670266026502640263026202610260025902580256025502540253025202510293
:202B6000500249024802470246024502440243024202400239023802370236023502340232
:202B80003302320231023002290228022702260225022402230222022102200219021802B1
:202BA00017021602150214021202110210020902080207020602050204020302020201023F
:202BC000000299019801970196019501940193019201910190018901880187018601850174
:202BE000840183018201810180017901780177017601750174017301720171017001690145
:202C00006801670166016501640163016301620161016001590158015701560155015401B6
:202C2000530152015101500149014801470146014501440143014201410140013901380120
:202C4000370136013501340133013201310130012901280128012701260125012401230196
:202C60002201210120011901180117011601150114011301120111011001090108010701FC
:202C8000060105010401030103010201010100019900980097009600950094009300920068
:202CA0009100900089008800870086008500840083008200810080008000790078007700DE
:202CC000760075007400730072007100700069006800670066006500640063006200610042
:202CE0006000590058005700560056005500540053005200510050004900480047004600B3
:202D0000450044004300420041004000390038003700360035003400330032003100300017
:202D200029002800270026002600250024002300220021002000190018001700160015008D
:202D40001400130012001100100009000800070006000500040003000200010000000100EB
:202D6000020003000400050006000700080009001000000000000000000000000000000017
:202D8000000000000000000000000000000000000000000000000000000000000000000033
:202DA000000000000000000000000000000000000000000000000000000000000000000013
:202DC0000000000000000000000000000000000000000000000000000000000000000000F3
:202DE0000000000000000000000000000000000000000000000000000000000000000000D3
:202E00000000000000000000000000000000000000000000000000000000000000000000B2
:202E2000000000000000000000000000000000000000000000000000000000000000000092
:202E4000000000000000000000000000000000000000000000000000000000000000000072
:202E6000000000000000000000000000000000000000000000000000000000000000000052
:202E8000000000000000000000000000000000000000000000000000000000000000000032
:202EA000000000000000000000000000000000000000000000000000000000000000000012
:202EC0000000000000000000000000000000000000000000000000000000000000000000F2
:202EE0000000000000000000000000000000000000000000000000000000000000000000D2
:202F00000000000000000000000000000000000000000000000000000000000000000000B1
:202F2000000000000000000000000000000000000000000000000000000000000000000091
:202F4000000000000000000000000000000000000000000000000000000000000000000071
:202F6000000000000000000000000000000000000000000000000000000000000000000051
:202F8000000000000000000000000000000000000000000000000000000000000000000031
:202FA000000000000000000000000000000000000000000000000000000000000000000011
:202FC0000000000000000000000000000000000000000000000000000000000000000000F1
:202FE0000000000000000000000000000000000000000000000000000000000000000000D1
:20030100C0E0C082C083C0D075D01863BC1074E7B5BC0985BE2785BD2802039885BE258568
:20032100BD26301F72AE25E526C313CE13CEFFEE2EFEEF33FF8E8274202FF583E493FEA318
:20034100E493FFC3E5389EE5399F5022EEC39538FCEF9539A2E7CC33CC33A2E7CC33CC3334
:20036100CC5403FDEC2538FCED3539FD8021E538C39EFEE5399FA2E7CE33CE33A2E7CE33D0
:20038100CE33CE5403FFE538C39EFCE5399FFDC2BF8C388D39D2BFD0D0D083D082D0E03240
:0900C400752C0F752D00752B0140
:2003A100C0E0C0F0C082C083C007C006C005C004C003C002C0D075D000AE29AF2AC3EE9402
:2003C10028EF9423400BD295D52C03752C0F020469AF2BBF01004005EF24FC50027F011F9A
:2003E100C2D575F003EF30E704B2D5F404A430D50AF42401C5F0F43400C5F024F4FE742468
:2004010035F0FFE52DC4540FFD8E828F83E493FCC3ED9C502AAC2D53040F7D008E828F8348
:20042100A3E493FB7A00C3EC9BED64808AF063F08095F0500AE52C24F85004C2958002D2B9
:2004410095D52C03752C0F052D8E828F83A3A3E493FFC3E52D9F4003752D00AE29AF2A74C5
:1F046100012EF529E43FF52AD0D0D002D003D004D005D006D007D083D082D0F0D0E0320B
:0924F400010660020C60030C609B
:20048000C2A9E522C4035407FF7006D2A975820322301706D2A97582022210150280047FAF
:2004A000008004C2167F01D2A98F8222C2A9E522540E60028006D2A975820322301306D244
:1704C000A97582022210110280047F008004C2127F01D2A98F8222B5
:2004D70085826185836285F0637BFF7CFF7A00C3EA95605047EA2561F8E43562F9AF63883D
:2004F7008289838FF0122466FF78008B058C06ED6200EE620788038F047F08EC30E712EB58
:200517002BFDEC33FE6305216306108D038E048006EB2BFBEC33FCDFE20A80B38B828C838F
:0105370022A1
:1B00CD00753B107532007533007534007535007536037537007538007539FF02
:20053800AE82AF83E49390300093FD8E828F83A3E49390300093FC8E828F83A3A3E4939080
:20055800308093FB8E828F83A3A3A3E49390300093FFC2AF8D328C338B348F35D2AF22E577
:2005780082FFC4540F90300093FE53070F7D00EF2400F582ED3430F583E493FFE560C4545E
:200598000F90308093FDAB6053030F7C00EB2400F582EC3430F583E493FCC2AF8E328F33C4
:2005B8008D348C35D2AF22AF82900003E02323540160208F82C007120951D007853A60C045
:2005D80007120577D007BF12004010747F5535F5358008853A608F82120577900002E0FF18
:2005F80030E011903030E493FFB53208903020E493FF8F3222900003E0235401600B854019
:2006180082853F601205778009853F82854060120577747F5533F53322E58260119030CFE0
:20063800E493FF8F3490304EE493FF8F35229030CFE493FF8F34903046E493FF8F3522AE27
:2006580082AF838F0553050F7C00ED2400F582EC3430F583E493FD8E03EFC4CBC4540F6BF2
:20067800CB540FCB6BCB53030F7C00EB2400F582EC3430F583E493FC53060F7F00EE248018
:20069800F582EF3430F583E493FF903043E493FEC2AF8D328C338F348E35D2AF747F5533A1
:2006B800F53322C0E0C0F0C0D075D00810DF02803DAF38740F5FF5EA8539FAE5362432F933
:2006D80087A074F8253B40118536F005F0E5378002C313D5F0FB20E033AF368FF005F074EA
:2006F80004800225E0D5F0FBF4FF52B0801E10D802801943B03CE536700DAF3B153BEF7021
:1307180003753B10753604E53614F536D0D0D0F0D0E032C0
:20072B00C291C292C290000000000000000000000000000000000000000022C291D29000DE
:20074B00000000000000000000000000000000000000000207DFD291000000A2919208D2A4
:20076B009200000000C292000000A2919209D29200000000C292000000A291920AD29200CF
:20078B00000000C292000000A291920BD29200000000C292000000A291920CD2920000003D
:2007AB0000C292000000A291920DD29200000000C292000000A291920ED29200000000C257
:2007CB0092000000A291920FD29200000000C29285218222858221A2089291D2920000004D
:2007EB0000C292A2099291D29200000000C292A20A9291D29200000000C292A20B9291D2EB
:20080B009200000000C292A20C9291D29200000000C292A20D9291D29200000000C292A232
:20082B000E9291D29200000000C292A20F9291D29200000000C2922275828E12074675823B
:20084B00001207DFC29012072B7582BE1207467F009024FDE4932FF98782C0071207DFD084
:20086B00070FBF08ECC290227582FF1207467F008F057E00C007C006C005120761AC82D080
:20088B0005D006D0078D828E83ECF00FBF1FE1C290227582FE1207467F008F82758300E0A1
:2008AB00F582C0071207DFD0070FBF1FEDC29022900000E0FF900001E0FDE4FEFCEF4206E0
:2008CB00EC420575601D90000275F000C006C0051204D7AC82AF83D005D006ECB50608EFD0
:2008EB00B50504758201227582002275601D90000275F0001204D7AE82AF838E05900000A1
:20090B00EDF08F06900001EEF02275600075613275628075630875640090003C75F0401259
:20092B001F6C75600875613275628075631F75640090000075F000121F6C1208F612084316
:20094B0012072B02089DE582FF700475821222EF24ED50087560888F8202096A8F8222C06E
:20096B00E0C0D0E5822560D4F582D0D0D0E022C0E0C0D0C2D7E5822560D4F582E583356155
:08098B00D4F583D0D0D0E022A6
:0124FD003CA2
:20320000001110290706260000000000000000000000000000000000000000000000000031
:073220000000010000700036
:2000E800755500755700755800755900755B00754400E4F545F546F547F548F549F54AF5FA
:170108004B754CD4754D0D754ED4754F0DF550F551F552F553F55466
:20099300AE4EAF4F75603C7561008E828F83C007C006121F43AC82D006D00775603C75617E
:2009B300008E828F83C004122419AE82D0047F0075600A8F618C828F83C007C006C004121A
:2009D30024B8AB82D004D006D007EBC454F0FB75600A7561008C828F83C006C00312248276
:2009F300AD82D003D006ED42037F0075600A8F618E828F83C007C006C0031224B8AC82D02E
:200A130003D006D007ECC454F0FC75600A7561008E828F83C004C003122482AE82D003D03A
:200A330004EE4CF5608B820205771204AC858256120480AE827401B55526EE7017E54B70E6
:200A53000E121F3885824985834A754B018003754B007E03BE0109E4F547F548F54B7E03FF
:200A73007402B555028003020B3AE553602C7403B55605BE0302801A755300755200854C0F
:200A93004E854D4F53AFFBC2AFD295D2AFD21F7537007556037E03020B3AE55460447401F9
:200AB300B55609755400753700755603E5567004F554F537EE6003BE026DAC4CAD4D743C88
:200AD3002CFCE43DFD8C4C8D4DC374D49C740D9D5006754C3C754D00854C4E854D4F7E0370
:200AF30080457401B55612755401755200854C4E854D4F75370F755603EE701DE5527014FC
:200B1300E54E454F600E121F3885825085835175520180037552007E03BE010B854C4E8573
:200B33004D4F7552007E037407B55503020BDD7401B5560474018001E4FD600ABE0107754C
:200B5300550075820022E556701BC006C005121F38858245858346D005D00605557406B58C
:200B73005503755500ED6010C006121F38858245858346D006755500EE7010C006121F38DD
:200B9300858245858346D006755503E555603B7401B5550280347402B55502802DC00612F4
:200BB3001F38E5828583F0D006C39545FCE5F09546FDC374649CE49D5010C006121F388584
:200BD3008245858346D0067555007582BFC006120746D006D291000000A2919208D2920008
:200BF300000000C292000000A2919209D29200000000C292000000A291920AD292000000D5
:200C130000C292000000A291920BD29200000000C292000000A291920CD29200000000C2EE
:200C330092000000A291920DD29200000000C292000000A291920ED29200000000C29200FA
:200C53000000A291920FD29200000000C292E521F53CD291000000A2919208D2920000002A
:200C730000C292000000A2919209D29200000000C292000000A291920AD29200000000C292
:200C930092000000A291920BD29200000000C292000000A291920CD29200000000C292009E
:200CB3000000A291920DD29200000000C292000000A291920ED29200000000C2920000000C
:200CD300A291920FD29200000000C292AD218D3DD291000000A2919208D29200000000C287
:200CF30092000000A2919209D29200000000C292000000A291920AD29200000000C2920042
:200D13000000A291920BD29200000000C292000000A291920CD29200000000C292000000AF
:200D3300A291920DD29200000000C292000000A291920ED29200000000C292000000A29158
:200D5300920FD29200000000C292E521F53ED291000000A2919208D29200000000C2920006
:200D73000000A2919209D29200000000C292000000A291920AD29200000000C29200000053
:200D9300A291920BD29200000000C292000000A291920CD29200000000C292000000A291FC
:200DB300920DD29200000000C292000000A291920ED29200000000C292000000A291920F6A
:200DD300D29200000000C292E521F53FD291000000A2919208D29200000000C29200000026
:200DF300A2919209D29200000000C292000000A291920AD29200000000C292000000A291A0
:200E1300920BD29200000000C292000000A291920CD29200000000C292000000A291920D0F
:200E3300D29200000000C292000000A291920ED29200000000C292000000A291920FD29224
:200E530000000000C292E521F540D291000000A2919208D29200000000C292000000A291D5
:200E73009209D29200000000C292000000A291920AD29200000000C292000000A291920BB5
:200E9300D29200000000C292000000A291920CD29200000000C292000000A291920DD292C8
:200EB30000000000C292000000A291920ED29200000000C292000000A291920FD292000008
:200ED3000000C292E521F541D291000000A2919208D29200000000C292000000A2919209B9
:200EF300D29200000000C292000000A291920AD29200000000C292000000A291920BD2926C
:200F130000000000C292000000A291920CD29200000000C292000000A291920DD2920000AB
:200F33000000C292000000A291920ED29200000000C292000000A291920FD2920000000087
:200F5300C292E521F542C290EDB544030210047D00BD05004003021001ED75F003A4FBAC67
:200F7300F02404FAEC3400FF8A828F83A3A3E0FF8541F005F0EF8002C313D5F0FB30E06ABE
:200F9300EB2404FAEC3400FF8A828F83A3A3E0FF30E057EB2404F582EC3400F583E0FFB5B2
:200FB3003E48EB2404FBEC3400FC8B828C83A3E0FFB53D368D047F008C828F83E0600B8DA0
:200FD30082758300E0FC7F0080047C017F008C2B53AFFBE4F529F52A43AF04C21FC2AF7517
:200FF30038007539EAD2AF7555070D020F64853D44E55524F850030212FAE555240B83F59C
:2010130082E555240C83F583E4732DCCEA73D1F7FA2D10101112121212107407B5551E7599
:20103300370F7403B55605BE0302801175370053AFFBC2AFD295D2AFD21F755500853E827A
:20105300853D3A1205BFE53C30E00C747F5533F533747F5534F534E55560030212FA7F00FC
:201073007E00EE75F003A4FCADF02404FAED3400FB8A828B83A3A3E0FB30E022EC2404FC91
:20109300ED3400FD8C828D83A3A3E0FD8541F005F0ED8002C313D5F0FB30E0027F010EBED0
:2010B300050040BEEF6009747F5535F5350212FA74804535F5350212FAE54B6045121F3829
:2010D300E5828583F0C39549FEE5F0954AFFC3EE9464EF9400402BAE49AF4A74642EFEE4DD
:2010F3003FFF8E498F4A0547E4B547020548AE47AF48C3EE9410EF940E4007E4F547F548FE
:20111300F54BAE47AF4875603C7561008E828F83C007C006121F43AC82D006D00775603C9A
:201133007561008E828F83C004122419AE82D0047F0075600A8F618C828F83C007C006C0D2
:20115300041224B8AB82D004D006D007EBC454F0FB75600A7561008C828F83C006C003127E
:201173002482AD82D003D006ED42038E057F0075600A8F618D828F83C007C006C005C00395
:201193001224B8AA82D003D005D006D007EAC454F0FA75600A7561008D828F83C006C00382
:2011B300C002122482AD82D002D003D006ED4AF5608B82C006120577D006E54B700302127E
:2011D300FAEE20E0030212FA747F5533F533747F5534F5340212FAE553600575370F807A5B
:2011F300E552605A121F38E5828583F0C39550FEE5F09551FFC3EE9464EF94004040AE5019
:20121300AF5174642EFEE43FFF8E508F51E54E454F600B154E74FFB54E02154F80207552FF
:2012330000755301752B0353AFFBE4F529F52A43AF04C21FC2AF7538007539EAD2AFE552CC
:201253006008AE4EAF4FEE20E004E554600C747F5533F533747F5534F5341209930212FA7E
:20127300C2ADAE27AF28D2ADEE2EFEEF33FF8E8274282FF583E493FEA3E493FF90001DE018
:20129300FD90001EE0FBE4FCFAED4204EA42038C608B618E828F8312097AAE82AF838E04F6
:2012B3008F05C374999C74099D50047E997F098E828F83120657747F5533F5338029AE4142
:2012D3007F00740C2EF560E43FF561900005121FDCAE82AF83EE2400F582EF3431F5831295
:2012F3000538800312060D758201221204ACAF82C007120480AE82D007E5576020BF0110F9
:2013130075370012084375446075570075820022EF700A05577406B55703755701EE600347
:20133300BE02067C017D0080047C007D00E55724FA5003021466E55775F003A49013537383
:2013530002136502137A02137A0213CE0213CE02142CEE70020557EF7004758202229031DF
:20137300001205380214667401B5571B853E828C60C00412096AAF82D004EFF53E24DC5002
:2013930003753E007537037402B55717853D828C6012096AE582FFF53D24A65003753D0020
:2013B30075370C853E82853D3A1205BF747F5533F533747F5534F5340214667403B5572ADA
:2013D300853F828C60C00412096AAF82D004EFF53F24CE5003753F00900003E0235401FF74
:2013F300600575370C80037537037404B557258540828C6012096AE582F54024ED500375B5
:201413004000900003E0235401FF6005753703800375370C12060D803A8541828C60120912
:201433006AE582F54124F8500375410175370FAE417F00740C2EF560E43FF5619000051220
:201453001FDCAE82AF83EE2400F582EF3431F583120538758201221204ACAF82C00712048E
:201473008085825AD007E55A60057402B55A067C017D0080047C007D00E4B5581DEF70048A
:2014930075820222E55A7009755801F55975820122903105120538021B8EE55924F35003C8
:2014B300021B8EE559240B83F582E559241183F583E473E0BBC7E14F4F4F4F4F4F4F297439
:2014D3001415161718181818181818191ABF01167559007537007558001208F612089D756F
:2014F300446075820022EF701205587406B558028003021B8E755801021B8EE55A7048AD7A
:20151300581DC2D575F003ED30E704B2D5F404A430D50AF42401C5F0F43400C5F0FDABF0C7
:201533002404FAEB3400FE74022AFAE43EFEED2404FDEB3400FB8D828B83A3A3E0FD6305CB
:20155300018A828E83EDF07401B55A06755901021B8E903041E493FE8E32E55890300093B3
:20157300FE8E33AE581EC2D575F003EE30E704B2D5F404A430D50AF42401C5F0F43400C580
:20159300F02404FD740035F0FE8D828E83A3A3E0FE74015EF582120631747F5533F533749E
:2015B3007F5534F534021B8EBF0109753700755900021B8EEF7008F537755902021B8EAE92
:2015D300581EC2D575F003EE30E704B2D5F404A430D50AF42401C5F0F43400C5F0FEADF002
:2015F3002404FAED3400FBEE2404F582ED3400F583E0FE8C608E82C003C00212096AAE8260
:20161300D002D0038A828B83EEF0E558FE14FDC2D575F003ED30E704B2D5F404A430D50A95
:20163300F42401C5F0F43400C5F02404F582740035F0F583E024DC502AEE14FDC2D575F0E7
:2016530003ED30E704B2D5F404A430D50AF42401C5F0F43400C5F02404F582740035F0F562
:2016730083E4F07537031EC2D575F003EE30E704B2D5F404A430D50AF42401C5F0F4340003
:20169300C5F0FEADF02404F582ED3400F583E0FBEE2404FEED3400FD8E828D83A3E0F560AA
:2016B3008B82120577747F5533F533747F5534F534021B8EBF0109753700755900021B8E9B
:2016D300EF7008F537755903021B8EAE581EC2D575F003EE30E704B2D5F404A430D50AF496
:2016F3002401C5F0F43400C5F0FEADF02404FAED3400FB0ABA00010BEE2404FEED3400FD45
:201713008E828D83A3E0FE8C608E82C003C00212096AAE82D002D0038A828B83EEF0E55805
:20173300FE14FDC2D575F003ED30E704B2D5F404A430D50AF42401C5F0F43400C5F024047B
:20175300FC740035F0FD8C828D83A3E024A6502DEE14FDC2D575F003ED30E704B2D5F40477
:20177300A430D50AF42401C5F0F43400C5F02404FC740035F0FD8C828D83A3E4F075370CF1
:201793001EC2D575F003EE30E704B2D5F404A430D50AF42401C5F0F43400C5F0FEADF02474
:2017B30004F582ED3400F583E0FCEE2404FEED3400FD8E828D83A3E0F5608C8212057774EC
:2017D3007F5533F533747F5534F534021B8EBF0106755900021B8EEF700675590C021B8E4E
:2017F3007401B55A06755904021B8E90313C120538AE581EC2D575F003EE30E704B2D5F4DC
:2018130004A430D50AF42401C5F0F43400C5F02404FD740035F0FE8D828E83A3A3E0FE5300
:2018330006FE7D00BEFE0CBD0009747F5535F535021B8E74804535F535021B8EAD597E006D
:2018530074092DF560E43EF561900005C007121FDCAD82AE83ED2400F582EE3431F58312D0
:201873000538D007AE591E1E1EAD581DED75F003A42404FC740035F0FD8C828D83A3A3E0C7
:20189300FD8EF005F0ED8002C313D5F0FB30E008747F5535F535800674804535F535E55AA4
:2018B30070110559E55924F54003021B8E75590B021B8E7401B55A47AE591E1E1EAD581D1F
:2018D300ED75F003A4FDACF02404FAEC3400FB74022AFAE43BFBED2404FDEC3400FC8D8235
:2018F3008C83A3A3E0FD8EF005F07401800225E0D5F0FBFE62058A828B83EDF0021B8EEF7E
:20191300700675590C021B8EBF01028003021B8E755903021B8E903164C007120538D0073B
:20193300AE581EC2D575F003EE30E704B2D5F404A430D50AF42401C5F0F43400C5F0240463
:20195300FD740035F0FE8D828E83A3A3E0FE5306FE7D00BEFE0BBD0008747F5535F5358015
:201973000674804535F535E55A7006755904021B8E7401B55A028003021A5DE558FE14FDB6
:20199300C2D575F003ED30E704B2D5F404A430D50AF42401C5F0F43400C5F02404FC7400B8
:2019B30035F0FD8C828D83A3A3E0FD5305FE7C00BDFE4EBC004BEE14FDC2D575F003ED30B4
:2019D300E704B2D5F404A430D50AF42401C5F0F43400C5F0FDACF02404FAEC3400FB7402E0
:2019F3002AFAE43BFBED2404FDEC3400FC8D828C83A3A3E0FD5305018A828B83EDF0021BBA
:201A13008E1EC2D575F003EE30E704B2D5F404A430D50AF42401C5F0F43400C5F0FEADF087
:201A33002404FBED3400FC74022BFBE43CFCEE2404FEED3400FD8E828D83A3A3E0FE4306DC
:201A5300FE8B828C83EEF0021B8EEF700675590C021B8EBF01028003021B8E755903021B08
:201A73008EEF6003BF010F53AFFBC2AFD295D2AF755900021B8EE55A6003021B15E558FFC5
:201A930014FE3395E0FD8E8274002DF583E0FEBE01004014EF14FE3395E0FD8E8274002D0B
:201AB300F583E0FE24FC5013EF14FE3395E0FD8E8274002DF5837401F0802CEF14FE339591
:201AD300E02400FD8E828D83E0FC0C8E828D83ECF0EC24FC5011EF14FE3395E0FD8E827457
:201AF300002DF5837401F01FEF3395E0FE8F8274002EF583E0F52B53AFFBE4F529F52A4389
:201B1300AF04E558FF14FE3395E0FD8E8274002DF583E0FEBE01004014EF14FE3395E0FD4C
:201B33008E8274002DF583E0FE24FC50101FEF3395E0FE8F8274002EF5837401F0903062A5
:201B5300E493FF8F32903050E493FF8F339030A0E493FF8F34AF581FEF3395E0FE8F82741A
:201B7300002EF583E02430FF3395E0FEEF2400F582EE3430F583E493FF8F35758201221219
:201B930004ACAF82C007120480AE82D007E55B24F85003021E4BE55B240B83F582E55B2406
:201BB3000C83F583E473C9EDAAD65F73C0061B1B1C1C1D1D1D1EEF70131208F612089D12B8
:201BD3001F3885824585834675820222EE7002055B903114120538021E4BBF0107755B0000
:201BF30075820022EF7003755B02EE6003BE0215900019E0FD0D900019EDF0ED24F55005EB
:201C1300900019E4F0900019E07004D21F802DC21FC2AF900019E0FD7C001DBDFF011C8DC2
:201C3300608C619019DE121FDCE5828583F0242CFC740135F0FD8C388D39D2AF903062E45D
:201C530093FD8D32903072E493FD8D33900019E0FDBD0A129030B1E493FD8D34903030E4E3
:201C730093FD8D3580229030A0E493FD8D34900019E02430FD3395E0FCED2400F582EC34A2
:201C930030F583E493FD8D35747F5533F533747F5534F534021E4BEF7003755B04EE701AF2
:201CB300755B0390001DE0FD90001EE0FBE4FCFAED4204EA42038C5C8B5D90311E120538F1
:201CD300021E4BBF0111755B02AD5C90001DEDF0AD5D90001EEDF0EE6003BE0215756001BF
:201CF300756100855C82855D8312097A85825C85835DAC5CAD5DC374409C74019D5005E466
:201D1300F55CF55DC2ADAC27AD28D2ADEC2CFCED33FD8C8274282DF583E493FCA3E493FD6D
:201D3300855C60855D618C828D8312097AAC82AD838C028D03C374999A74099B50047C99F2
:201D53007D098C828D83120657021E4BEE7003755B05EF7002F55B903123120538021E4B6D
:201D7300903128C007C006120538900003E023235401F582120631D006D007EE700890001A
:201D930003E06440FDF0747F5533F533747F5534F534EF700A055B7408B55B03755B05BF88
:201DB30001028003021E4B755B04021E4B90312DC007C006120538900003E0235401F582B4
:201DD300120631D006D007EE7008900003E06480FDF0747F5533F533747F5534F534EF70A9
:201DF3000A055B7408B55B03755B05BF014A755B048045903132C007C006120538900002FE
:201E1300E0FD74015DF582120631D006D007EE7008900002E06401FEF0747F5533F5337451
:1C1E33007F5534F534EF700A055B7408B55B03755B05BF0103755B047582012284
:20330000FE123D0A3D0A3D0AFE126A143D0A6A14921B3D0A921B3D0A010000000102000287
:0433200003000300A3
:20300000C0F9A4B0999282F880908883C6A1868EFFFFFFFFFFFFFFFFFFFFFFFFFFFFFFFF78
:20302000FFFFDDFFFFFFFFFDC6F0FFFFEFBFFFFFC0F9A4B0999282F88090FFFFFFFFFFFFA0
:20304000FF8883C6A1868EC289F9F1FFC7C8ABC08C98AF9287C1FFFFFF91FFC6FFF0FFF7D8
:20306000DF8883A7A1848EC28BFBF1FFF9FFABA38C98AF9287E3FFFFFFFFFFFFFFFFFFFFC9
:20308000C0CFA4868B9290C780828198F08CB0B1FFFFFFFFFFFFFFFFFFFFFFFFFFFFFFFF1B
:2030A000FFFFEBFFFFFFFFEFF0C6FFFFFDBFFFFFC0CFA4868B9290C78082FFFFFFFFFFFFA5
:2030C000FF8198F08CB0B1D089CFCEFFF8FF9DC0A183BD92B8C8FFFFFF8AFFF0FFC6FFFE87
:2030E000FB8198BC8CA0B1D099DFCEFFCFFF9D9CA183BD92B8DCFFFFFFFFFFFFFFFFFFFF0A
:2031000053455443005345544100414C4F4E00414C4F4600434F4E46004252202000544376
:20312000414C00444953500031322020004E442020003030202000384950200030494153BF
:20314000004C756E20004D417220004D494520004A554520005549452000534162200030B8
:0E3160006F4E2000414C4C20004364202000A4
:05011F00E4F55EF55F50
:201E4F00C0E0C0D075D010AE5EAF5F74012EF55EE43FF55F74E7B5BC0BE4F5BEF5BD75BC16
:201E6F00E675BCEE74E6B5BC0BE4F5BEF5BD75BCE775BCEFE52E25E0FFA2B1E4334FF52E04
:201E8F00E52F25E0FFA2B0E4334FF52FAE2E5316877F00BE800EBF000BD2105322F17530F1
:201EAF0000752E00AE2F5316877F00BE800EBF000BD21453221F753100752F00AE2E531605
:201ECF00877F00BE071ABF001710130CE53024DF5004D2128002D211C210753000752EFF3B
:201EEF00AE2F5316877F00BE071ABF001710170CE53124DF5004D2168002D215C214753165
:201F0F0000752FFF30100DE53004FF8F30BF96004002D21330140DE53104FF8F31BF9600F0
:141F2F004002D217D0D0D0E032C2A9855E82855F83D2A9221D
:201F43007A10E4FBFCE58225E0F582E58333F583EB33FBEC33FCEB9560F5F0EC9561400602
:091F6300FCABF0438201DADD223F
:06009A00E478FFF6D8FD3A
:201F6C00AD82AE83AFF08D658E668F6785606885616985626AA863A9648803890418B8FF8E
:201F8C000119EB4C6025856882856983856AF0122466FCA38582688583698D828E838FF0E6
:151FAC00EC121FC1A3AD82AE8380CE8565828566838567F02219
:200078007900E94400601B7A009024FE780175A000E493F2A308B8000205A0D9F4DAF2750C
:02009800A0FFC7
:1B1FC10020F71130F6138883A88220F509F6A8837583002280FEF280F5F0221F
:1D1FDC00E5828560F0A4C582C0F08561F0A4D0F025F0C5838560F0A42583F58322BF
:20241900E560456160467A01E56025E0F560E561334012F561E5829560E583956140030AD0
:2024390080E6C3E56113F561E56013F560C3E5829560F5F0E58395614005F58385F082C325
:0D245900E56113F561E56013F560DAE1223D
:2000A0007800E84400600A790175A000E4F309D8FC7800E84400600C7900900001E4F0A35E
:0400C000D8FCD9FA95
:0F006900E47375816A1224F0E582600302006679
:1C24660020F71430F6148883A88220F507E6A88375830022E280F7E49322E02285
:20248200C2D5E58330E70DD2D5E4C39582F582E49583F583E56130E70BE4C39560F560E48A
:1624A2009561F56112241930D50BE4C39582F582E49583F58322AE
:2024B800C2D5E58330E70DD2D5E4C39582F582E49583F583E56130E70DB2D5E4C39560F50F
:1824D80060E49561F561121F4330D50BE4C39582F582E49583F583220D
:0424F00075820022CF
:00000001FF
