:0400000002006B325D
:03000B00021809CF
:0100130032BA
:01001B0032B2
:0100230032AA
:03002B000202BE10
:01003300329A
:03003B000205FFBC
:01004300328A
:01004B003282
:01005300327A
:01005B003272
:030063000203563F
:030108000200668C
:0300660002010B89
:20010B007F007DD77E0853AFFB538EE275D72A75D610438E10C2954391C0439DC075BC80CD
:20012B00439720E4F5BEF5BDD2AD000000000000000075BCE6758900758A00758CB8758828
:20014B0000538E7FD2A9D28C7595FF7596FF75D909E4F5D8F5E9F5F98536EA8537FA75DACA
:20016B0049D2DED2BFD2AF8533A053B0DFD21F752C00752D00752200752E00752F00C2A9B2
:20018B00855321855422D2A9E553C39521FAE5549522FCC3EA94C8EC940040ECD29553904F
:2001AB00F8439102439207C007C006C00512066F1207B71207FFE582D005D006D007602858
:2001CB00C007C006C0051203D3AC82D005D006D007BC0223C007C006C0051203A7AC82D03D
:2001EB0005D006D007BC020FC007C006C005120859D005D006D007900019E0600990001993
:20020B00E0FC24F55004D21F8039C21FC2AF900019E0FC7B001CBCFF011B8C558B56901930
:20022B00DEC007C006C005121996E5828583F0D005D006D007242CFB740135F0FC8B368CB3
:20024B0037D2AFC21EC007C006C0058D828E83120069858220D005D006D007EF75F006A467
:20026B002400FA743335F0FBE52025202AF582E43BF583E493FDA3E493FEEF75F003A42461
:20028B0018FB743335F0FCE5202BF582E43CF583E493FFC2A9855323855424D2A9E553C3EA
:1302AB009523FAE5549524FCC3EA940AEC940040EC809297
:2020000000EA00EA00EA00EA00EA00EA00EA00EA00EA00EA00EA00EA00EA00EA00EA00EA20
:2020200000EA00EA00EA00EA00EA00EA00EA00EA00EA00EA00EA00EA00EA00EA00EA00EA00
:2020400000EA00EA00EA00EA00EA00EA00EA00EA00EA00EA00EA00EA00EA00EA00EA00EAE0
:2020600000EA00EA00EA00EA00EA00EA00EA00EA00EA00EA00EA00EA00EA00EA00EA00EAC0
:2020800000EA00EA00EA00EA00EA00EA00EA00EA00EA00EA00EA00EA00EA00EA00EA00EAA0
:2020A00000EA00EA00EA00EA00EA00EA00EA00EA00EA00EA00EA00EA00EA00EA00EA00EA80
:2020C00000EA00EA00EA00EA00EA00EA00EA00EA00EA00EA00EA00EA00EABEE97CE93AE9EF
:2020E000F8E8B6E874E832E8F0E7AEE76CE72AE7E8E6A6E664E622E6E0E59EE55CE51BE5E7
:20210000D9E497E455E413E4D1E38FE34DE30BE3C9E287E245E203E2C1E17FE13DE1FBE0F8
:20212000B9E077E035E0F3DFB1DF6FDF2DDFEBDEA9DE67DE25DEE3DDA1DD5FDD1DDDDBDC1B
:2021400099DC57DC15DCD3DB91DB50DB0EDBCCDA8ADA48DA06DAC4D982D940D9FED8BCD831
:202160007AD838D8F6D7B4D772D730D7EED6ACD66AD628D6E6D5A4D562D520D5DED49CD44F
:202180005AD418D4D6D394D352D310D3CED28CD24AD208D2C6D185D143D101D1BFD07DD06A
:2021A0003BD0F9CFB7CF75CF33CFF1CEAFCE6DCE2BCEE9CDA7CD65CD23CDE1CC9FCC5DCC83
:2021C0001BCCD9CB97CB55CB13CBD1CA8FCA4DCA0BCAC9C987C945C903C9C1C87FC83DC8A3
:2021E000FCC7BAC778C736C7F4C6B2C670C62EC6ECC5AAC568C526C5E4C4A2C460C41EC4B7
:20220000DCC39AC358C316C3D4C292C250C20EC2CCC18AC148C106C1C4C082C040C0FEBFD7
:20222000BCBF7ABF38BFF6BEB4BE72BE31BEEFBDADBD6BBD29BDE7BCA5BC63BC21BCDFBBF0
:202240009DBB5BBB19BBD7BA95BA53BA11BACFB98DB94BB909B9C7B885B843B801B8BFB70A
:202260007DB73BB7F9B6B7B675B633B6F1B5AFB56DB52BB5E9B4A8B466B424B4E2B3A0B329
:202280005EB31CB3DAB298B256B214B2D2B190B14EB10CB1CAB088B046B004B0C2AF80AF3E
:2022A0003EAFFCAEBAAE78AE36AEF4ADB2AD70AD2EADECACAAAC68AC26ACE4ABA2AB60AB62
:2022C0001EABDDAA9BAA59AA17AAD5A993A951A90FA9CDA88BA849A807A8C5A783A741A773
:2022E000FFA6BDA67BA639A6F7A5B5A573A531A5EFA4ADA46BA429A4E7A3A5A363A321A396
:20230000DFA29DA25BA219A2D7A195A153A112A1D0A08EA04CA00AA0C89F869F449F029FAC
:20232000C09E7E9E3C9EFA9DB89D769D349DF29CB09C6E9C2C9CEA9BA89B669B249BE29AC9
:20234000A09A5E9A1C9ADA99989956991499D29890984E980C98CA97899747970597C396E5
:2023600081963F96FD95BB9579953795F594B39471942F94ED93AB9369932793E592A392FD
:2023800061921F92DD919B9159911791D590939051900F90CD8F8B8F498F078FC58E838E1D
:2023A000418EFF8DBE8D7C8D3A8DF88CB68C748C328CF08BAE8B6C8B2A8BE88AA68A648A33
:2023C000228AE0899E895C891A89D888968854881288D0878E874C870A87C8868686448651
:2023E0000286C0857E853C85FA84B88476843484F383B1836F832D83EB82A982678225826C
:20240000E381A1815F811D81DB80998057801580D37F917F4F7F0D7FCB7E897E477E057E84
:20242000C37D817D3F7DFD7CBB7C797C377CF57BB37B717B2F7BED7AAB7A6A7A287AE679A5
:20244000A47962792079DE789C785A781878D677947752771077CE768C764A760876C675B8
:20246000847542750075BE747C743A74F873B67374733273F072AE726C722A72E871A671DB
:2024800064712271E0709F705D701B70D96F976F556F136FD16E8F6E4D6E0B6EC96D876DEF
:2024A000456D036DC16C7F6C3D6CFB6BB96B776B356BF36AB16A6F6A2D6AEB69A96967690F
:2024C0002569E368A1685F681D68DB67996757671667D466926650660E66CC658A65486528
:2024E0000665C46482644064FE63BC637A633863F662B46272623062EE61AC616A61286143
:20250000E660A46062602060DE5F9C5F5A5F185FD65E945E525E105ECE5D8C5D4B5D095D61
:20252000C75C855C435C015CBF5B7D5B3B5BF95AB75A755A335AF159AF596D592B59E95876
:20254000A75865582358E1579F575D571B57D956975655561356D1558F554D550B55C95497
:20256000875445540354C15380533E53FC52BA5278523652F451B25170512E51EC50AA50AE
:2025800068502650E44FA24F604F1E4FDC4E9A4E584E164ED44D924D504D0E4DCC4C8A4CCB
:2025A000484C064CC44B824B404BFE4ABC4A7A4A384AF749B54973493149EF48AD486B48E7
:2025C0002948E747A54763472147DF469D465B461946D745954553451145CF448D444B44FF
:2025E0000944C743854343430143BF427D423B42F941B74175413341F140AF406D402C4020
:20260000EA3FA83F663F243FE23EA03E5E3E1C3EDA3D983D563D143DD23C903C4E3C0C3C32
:20262000CA3B883B463B043BC23A803A3E3AFC39BA3978393639F438B23870382E38EC3755
:20264000AA3768372637E436A23661361F36DD359B3559351735D534933451340F34CD336B
:202660008B3349330733C53283324132FF31BD317B313931F730B53073303130EF2FAD2F89
:202680006B2F292FE72EA52E632E212EDF2D9D2D5B2D192DD82C962C542C122CD02B8E2BA4
:2026A0004C2B0A2BC82A862A442A022AC0297E293C29FA28B82876283428F227B0276E27BC
:2026C0002C27EA26A82666262426E225A0255E251C25DA24982456241424D22390234E23DE
:2026E0000D23CB22892247220522C32181213F21FD20BB2079203720F51FB31F711F2F1FF0
:20270000ED1EAB1E691E271EE51DA31D611D1F1DDD1C9B1C591C171CD51B931B511B0F1B11
:20272000CD1A8B1A491A071AC519841942190019BE187C183A18F817B61774173217F01628
:20274000AE166C162A16E815A61564152215E0149E145C141A14D813961354131213D01245
:202760008E124C120A12C811861144110211C0107E103C10FA0FB90F770F350FF30EB10E62
:202780006F0E2D0EEB0DA90D670D250DE30CA10C5F0C1D0CDB0B990B570B150BD30A910A79
:2027A0004F0A0D0ACB09890947090509C30881083F08FD07BB0779073707F506B30671069B
:2027C0002F06EE05AC056A052805E604A40462042004DE039C035A031803D60294025202AE
:2027E0001002CE018C014A014A014A014A014A014A014A014A014A014A014A014A014A019C
:2028000000009909990999099909990999099909990999099909990999099909990999093A
:20282000990999099909990999099909990999099909990999099909990999099909990978
:20284000990999099909990999099909990999099909990999099909990999099909990958
:20286000990999099909990999099909990999099909990999099909990999099909990938
:202880009909990999099909990999099909990999099509890984097809720966096109F4
:2028A0005509500944093909340929092409190914090909040999089508900885088108EC
:2028C000760872086808630859085508510847084308380834083108270823081908150827
:2028E000110808080408000897079307900786078307790776077207690766076207590799
:2029000056075307490746074307400737073407310728072507220719071607130710072F
:2029200007070507020799069606930691068806850683068006770675067206700667068E
:202940006406620659065706540652064906470645064206400637063506330630062806AD
:202960002606230621061906170614061206100608060606030601069905970595059305C1
:2029800091058805860584058205800578057605740572057005680566056405620560058A
:2029A00058055605540552055005490547054505430541053905370535053405320530058F
:2029C000280526052505230521051905170516051405120510050905070505050405020559
:2029E00000059804970495049304920490048804870485048304820480047904770475049F
:202A0000740472047104690467046604640463046104600458045704550454045204500467
:202A20004904470446044404430441044004390437043604340433043104300428042704BB
:202A40002504240423042104200418041704150414041304110410040804070406040404E4
:202A60000304020400049903970396039503930392039103890388038703850384038303E9
:202A8000810380037903770376037503740372037103700368036703660365036303620304
:202AA0006103600358035703560354035303520351035003480347034603450343034203E7
:202AC0004103400338033703360335033403320331033003290328032603250324032303C1
:202AE00022032003190318031703160315031303120311031003090308030603050304038B
:202B00000303020301030003980297029602950294029302920291028902880287028602C9
:202B20008502840283028202800279027802770276027502740273027202710269026802F9
:202B4000670266026502640263026202610260025902580256025502540253025202510293
:202B6000500249024802470246024502440243024202400239023802370236023502340232
:202B80003302320231023002290228022702260225022402230222022102200219021802B1
:202BA00017021602150214021202110210020902080207020602050204020302020201023F
:202BC000000299019801970196019501940193019201910190018901880187018601850174
:202BE000840183018201810180017901780177017601750174017301720171017001690145
:202C00006801670166016501640163016301620161016001590158015701560155015401B6
:202C2000530152015101500149014801470146014501440143014201410140013901380120
:202C4000370136013501340133013201310130012901280128012701260125012401230196
:202C60002201210120011901180117011601150114011301120111011001090108010701FC
:202C8000060105010401030103010201010100019900980097009600950094009300920068
:202CA0009100900089008800870086008500840083008200810080008000790078007700DE
:202CC000760075007400730072007100700069006800670066006500640063006200610042
:202CE0006000590058005700560056005500540053005200510050004900480047004600B3
:202D0000450044004300420041004000390038003700360035003400330032003100300017
:202D200029002800270026002600250024002300220021002000190018001700160015008D
:202D40001400130012001100100009000800070006000500040003000200010000000100EB
:202D6000020003000400050006000700080009001000000000000000000000000000000017
:202D8000000000000000000000000000000000000000000000000000000000000000000033
:202DA000000000000000000000000000000000000000000000000000000000000000000013
:202DC0000000000000000000000000000000000000000000000000000000000000000000F3
:202DE0000000000000000000000000000000000000000000000000000000000000000000D3
:202E00000000000000000000000000000000000000000000000000000000000000000000B2
:202E2000000000000000000000000000000000000000000000000000000000000000000092
:202E4000000000000000000000000000000000000000000000000000000000000000000072
:202E6000000000000000000000000000000000000000000000000000000000000000000052
:202E8000000000000000000000000000000000000000000000000000000000000000000032
:202EA000000000000000000000000000000000000000000000000000000000000000000012
:202EC0000000000000000000000000000000000000000000000000000000000000000000F2
:202EE0000000000000000000000000000000000000000000000000000000000000000000D2
:202F00000000000000000000000000000000000000000000000000000000000000000000B1
:202F2000000000000000000000000000000000000000000000000000000000000000000091
:202F4000000000000000000000000000000000000000000000000000000000000000000071
:202F6000000000000000000000000000000000000000000000000000000000000000000051
:202F8000000000000000000000000000000000000000000000000000000000000000000031
:202FA000000000000000000000000000000000000000000000000000000000000000000011
:202FC0000000000000000000000000000000000000000000000000000000000000000000F1
:202FE0000000000000000000000000000000000000000000000000000000000000000000D1
:2002BE00C0E0C082C083C0D075D01863BC1074E7B5BC0885BE2785BD28807485BE2585BD99
:2002DE0026301F6BE52525E0FEE52633FF8E8274202FF583E493FEA3E493FFC3E5369EE59C
:2002FE00379F5022EEC39536FCEF9537A2E7CC33CC33A2E7CC33CC33CC5403FDEC2536FCF4
:20031E00ED3537FD8021E536C39EFEE5379FA2E7CE33CE33A2E7CE33CE33CE5403FFE5363E
:18033E00C39EFCE5379FFDC2BF8C368D37D2BFD0D0D083D082D0E032D3
:0300C400752B0F8A
:20035600C0E0C007C006C0D075D000C2AFE52B24F85011AE29AF2AC3EE9428EF9423500470
:20037600C2958002D295D2AFD52B03752B0FAE29AF2AC3EE9428EF9423500DAE29AF2A74B0
:11039600012EF529E43FF52AD0D0D006D007D0E03298
:2003A700C2A9E522C4035407FF7006D2A975820322301706D2A97582022210150280047F89
:2003C700008004C2167F01D2A98F8222C2A9E522540E60028006D2A975820322301306D21E
:1703E700A97582022210110280047F008004C2127F01D2A98F82228F
:2003FE0085825685835785F0587BFF7CFF7A00C3EA95555047EA2556F8E43557F9AF588864
:20041E008289838FF0121A00FF78008B058C06ED6200EE620788038F047F08EC30E712EBA1
:20043E002BFDEC33FE6305216306108D038E048006EB2BFBEC33FCDFE20A80B38B828C8369
:01045E00227B
:1B00C7007539107530007531007532007533007534037535007536007537FF1A
:20045F00AE82AF83E49390300093FD8D308E828F83A3E49390300093FD8D318E828F83A388
:20047F00A3E49390308093FD8D328E828F83A3A3A3E49390300093FF8F3322E582FFC4547E
:20049F000F90300093FE8E3053070F7E00EF2400F582EE3430F583E493FF8F31E555C4545C
:2004BF000F90308093FF8F32AE5553060F7F00EE2400F582EF3430F583E493FF8F3322AF34
:2004DF0082900003E02323540160208F82C007120895D007853855C00712049AD007EF241C
:2004FF00EE5010747F5533F53380088538558F8212049A900002E0FF30E011903030E49398
:20051F00FFB53008903020E493FF8F3022900003E0235401600B853E82853D5512049A80B7
:20053F0009853D82853E5512049A747F5531F531900002E0FF30E021903030E493B53008F2
:20055F00903020E493FF8F309030B0E493FFB532089030A0E493FF8F3222E5826011903041
:20057F00CFE493FF8F3290304EE493FF8F33229030CFE493FF8F32903046E493FF8F3322C8
:20059F00AE82AF838F0553050F7C00ED2400F582EC3430F583E493FD8D308E04EFC4CCC40D
:2005BF00540F6CCC540FCC6CCC53040F7D00EC2400F582ED3430F583E493FD8D3153060F4D
:2005DF007F00EE2480F582EF3430F583E493FF8F32903043E493FF8F33747F5531F5312276
:2005FF00C0E0C0F0C0D075D00810DF02803DAF36740F5FF5EA8537FAE5342430F987A074A4
:20061F00F8253940118534F005F0E5358002C313D5F0FB20E033AF348FF005F074048002C0
:20063F0025E0D5F0FBF4FF52B0801E10D802801943B03CE534700DAF391539EF70037539B5
:10065F0010753404E53414F534D0D0D0F0D0E03236
:20066F00C291C292C290000000000000000000000000000000000000000022C291D290009B
:20068F0000000000000000000000000000000000000000020723D291000000A2919208D21D
:2006AF009200000000C292000000A2919209D29200000000C292000000A291920AD292008C
:2006CF00000000C292000000A291920BD29200000000C292000000A291920CD292000000FA
:2006EF0000C292000000A291920DD29200000000C292000000A291920ED29200000000C214
:20070F0092000000A291920FD29200000000C29285218222858221A2089291D29200000009
:20072F0000C292A2099291D29200000000C292A20A9291D29200000000C292A20B9291D2A7
:20074F009200000000C292A20C9291D29200000000C292A20D9291D29200000000C292A2EF
:20076F000E9291D29200000000C292A20F9291D29200000000C2922275828E12068A7582B5
:20078F0000120723C29012066F7582BE12068A7F00901A8EE4932FF98782C007120723D0AC
:2007AF00070FBF08ECC290227582FF12068A7F008F057E00C007C006C0051206A5AC82D0B7
:2007CF0005D006D0078D828E83ECF00FBF1FE1C290227582FE12068A7F008F82758300E01B
:2007EF00F582C007120723D0070FBF1FEDC29022900000E0FF900001E0FDE4FEFCEF420659
:20080F00EC420575551D90000275F000C006C0051203FEAC82AF83D005D006ECB50608EF71
:20082F00B50504758201227582002275551D90000275F0001203FEAE82AF838E0590000042
:20084F00EDF08F06900001EEF02275550075563275578075580875590090003A75F040124F
:20086F00192675550875563275578075581F75590090000075F00012192612083A1207871B
:20088F0012066F0207E1E582FF700475821222EF24ED50087555888F820208AE8F8222C06D
:2008AF00E0C0D0E5822555D4F582D0D0D0E022C0E0C0D0C2D7E5822555D4F582E583355633
:0808CF00D4F583D0D0D0E02263
:011A8E003A1D
:20320000001110290706260000000000000000000000000000000000000000000000000031
:073220000000000000700037
:2000E200754A00754C00754D00754E00755000754200E4F543F544F545F546F547F548F545
:0101020049B3
:2008D7001203D385824B1203A7AE827401B54A26EE7017E549700E1218F285824785834866
:2008F70075490180037549007E03BE0109E4F545F546F5497E037407B54A03020A4474013E
:20091700B54B0474018001E4FD600ABE0107754A0075820022E54B701DC006C0051218F279
:20093700858243858344D005D006C21E054A7406B54A03754A00ED6012C0061218F28582AD
:2009570043858344D006C21E754A00EE7012C0061218F2858243858344D006C21E754A021D
:20097700E54A7003020A21301E697401B54A05C21E020A44C0061218F2E5828583F0D0061A
:20099700C39543FCE5F09544FDC374C89CE49D4003020A44054A7406B54A02802290000350
:2009B700E0FD854AF005F0ED8002C313D5F0FB30E0E21218F285824385834475820122C00C
:2009D700061218F2858243858344D006C21E754A00805AC0061218F2E5828583F0D006C31F
:2009F7009543FCE5F09544FDC3742C9C74019D503C7401B54A028035C0061218F28582436D
:200A1700858344D006754A008023C0061218F2E5828583F0D006C39543FCE5F09544FDC31F
:200A370074E89C74039D5005D21E0209AB7582BFC00612068AD006D291000000A291920874
:200A5700D29200000000C292000000A2919209D29200000000C292000000A291920AD2920E
:200A770000000000C292000000A291920BD29200000000C292000000A291920CD29200004E
:200A97000000C292000000A291920DD29200000000C292000000A291920ED292000000002A
:200AB700C292000000A291920FD29200000000C292E521F53AD291000000A2919208D29276
:200AD70000000000C292000000A2919209D29200000000C292000000A291920AD2920000F2
:200AF7000000C292000000A291920BD29200000000C292000000A291920CD29200000000CE
:200B1700C292000000A291920DD29200000000C292000000A291920ED29200000000C29255
:200B3700000000A291920FD29200000000C292AD218D3BD291000000A2919208D2920000E8
:200B57000000C292000000A2919209D29200000000C292000000A291920AD2920000000071
:200B7700C292000000A291920BD29200000000C292000000A291920CD29200000000C292F9
:200B9700000000A291920DD29200000000C292000000A291920ED29200000000C292000029
:200BB70000A291920FD29200000000C292E521F53CD291000000A2919208D29200000000C7
:200BD700C292000000A2919209D29200000000C292000000A291920AD29200000000C2929D
:200BF700000000A291920BD29200000000C292000000A291920CD29200000000C2920000CD
:200C170000A291920DD29200000000C292000000A291920ED29200000000C292000000A206
:200C370091920FD29200000000C292E521F53DD291000000A2919208D29200000000C29293
:200C5700000000A2919209D29200000000C292000000A291920AD29200000000C292000070
:200C770000A291920BD29200000000C292000000A291920CD29200000000C292000000A2AA
:200C970091920DD29200000000C292000000A291920ED29200000000C292000000A2919205
:200CB7000FD29200000000C292E521F53ED291000000A2919208D29200000000C292000035
:200CD70000A2919209D29200000000C292000000A291920AD29200000000C292000000A24E
:200CF70091920BD29200000000C292000000A291920CD29200000000C292000000A29192A9
:200D17000DD29200000000C292000000A291920ED29200000000C292000000A291920FD2C6
:200D37009200000000C292E521F53FD291000000A2919208D29200000000C292000000A2F2
:200D5700919209D29200000000C292000000A291920AD29200000000C292000000A291924C
:200D77000BD29200000000C292000000A291920CD29200000000C292000000A291920DD26C
:200D97009200000000C292000000A291920ED29200000000C292000000A291920FD2920093
:200DB700000000C292E521F540C290EDB54203020E56900003E0FD20E003020E567D00BDDB
:200DD70007005078ED75F003A4FBACF02404FAEC3400FF8A828F83A3A3E0FF853FF005F070
:200DF700EF8002C313D5F0FB30E04EEB2404FAEC3400FF8A828F83A3A3E0FF30E03BEB24AE
:200E170004F582EC3400F583E0FFB53C2CEB2404FBEC3400FC8B828C83A3E0FFB53B1A5387
:200E3700AFFBE4F529F52A43AF04C21FC2AF7536007537EAD2AF754A070D8083853B42E509
:200E57004A24F85003021071E54A240B83F582E54A240C83F583E4737FC0DE3C6368717F22
:200E77000E0E0F101010100E7407B54A1C75350F7401B54B14BE011175350053AFFBC2AF22
:200E9700D295D2AFD21F754A00853C82853B381204DEE53A20E003021071747F5531F53130
:200EB700747F5532F532021071E54960451218F2E5828583F0C39547FEE5F09548FFC3EEAA
:200ED7009464EF9400402BAE47AF4874642EFEE43FFF8E478F480545E4B545020546AE45EF
:200EF700AF46C3EE9410EF940E4007E4F545F546F549AE45AF4675553C7556008E828F8347
:200F1700C007C0061218FDAC82D006D00775553C7556008E828F83C0041219B3AE82D00492
:200F37007F0075550A8F568C828F83C007C006C004121A52AB82D004D006D007EBC454F0D2
:200F5700FB75550A7556008C828F83C006C003121A1CAD82D003D006ED42038E057F00755E
:200F7700550A8F568D828F83C007C006C005C003121A52AA82D003D005D006D007EAC454DF
:200F9700F0FA75550A7556008D828F83C006C003C002121A1CAD82D002D003D006ED4AF527
:200FB700558B82C00612049AD006E5497003021071EE20E003021071747F5531F531747F42
:200FD7005532F532021071C2ADAE27AF28D2ADEE2EFEEF33FF8E8274282FF583E493FEA389
:200FF700E493FF90001DE0FD90001EE0FBE4FCFAED4204EA42038C558B568E828F83120817
:20101700BEAE82AF838E048F05C374999C74099D50047E997F098E828F8312059F747F55DA
:2010370031F5318035AE3F7F00EE24FFF555EF34FFF556900005121996AE82AF83EE24008F
:20105700F582EF3431F58312045F800E12052C800985405575822012049A75820122120357
:20107700D3AF82C0071203A7AE82D007E54C6020BF0110753500120787754260754C0075B3
:20109700820022EF700A054C7407B54C03754C017D00EE6003BE02027D01E54C24F95003EB
:2010B7000211FCE54C75F003A49010C4730210D90210EE0210EE0211420211420211A002AC
:2010D70011C1EE7002054CEF70047582022290312312045F0211FC7401B54C1B853C828D2F
:2010F70055C0051208AEAF82D005EFF53C24DC5003753C007535037402B54C17853B828DC3
:20111700551208AEE582FFF53B24A65003753B0075350C853C82853B381204DE747F5531DA
:20113700F531747F5532F5320211FC7403B54C2A853D828D55C0051208AEAF82D005EFF583
:201157003D24CE5003753D00900003E0235401FF600575350C80037535037404B54C2585EC
:201177003E828D551208AEE582F53E24ED5003753E00900003E0235401FF600575350380C1
:201197000375350C12052C805C8540828D551208AEE582F5402466500375400075350F8503
:2011B700405575822012049A803B853F828D551208AEE582F53F24F85003753F0175350F99
:2011D700AE3F7F00EE24FFF555EF34FFF556900005121996AE82AF83EE2400F582EF34312F
:2011F700F58312045F758201221203D3AF82C0071203A785824FD0077D00E54F600574027C
:20121700B54F027D01E4B54D0280077401B54D6F801AEF700475820222E54F7006054D7555
:2012370082012290312812045F02155DBF0110754D0012083A1207E175426075820022E52B
:201257004F7008900003E06401FCF0900003E030E00C90312DC00712045FD007800A903111
:2012770032C00712045FD007747F5531F531747F5532F532EF600302155D054D02155DE561
:201297004E24F6500302155DE54E240B83F582E54E240E83F583E473C367679C9C9C9C9C58
:2012B7009C9C12131314141414141414EF7012054D7409B54D02800302155D754D01021506
:2012D7005DE54F7032E54D24FE75F003A4FBACF02404FAEC3400FE74022AFAE43EFEEB24C4
:2012F70004FBEC3400FC8B828C83A3A3E0FC6304018A828E83ECF07401B54F05054E021535
:201317005DBF010A754E00754D0075820022903041E493FE8E30E54D24FE90300093FE8E8A
:2013370031E54D24FE75F003A42404FC740035F0FE8C828E83A3A3E0FE74015EF5821205A6
:2013570079747F5531F531747F5532F53202155DEF7008054E75350002155DBF0109754EE5
:201377000075350002155D7401B54E68E54D24FE75F003A4FCAEF02404FAEE3400FBEC240F
:2013970004F582EE3400F583E0FE8D558E82C005C003C0021208AEAE82D002D003D0058A0B
:2013B700828B83EEF0E54D24FE75F003A42404F582740035F0F583E0FE24DC5014E54D2400
:2013D700FE75F003A42404F582740035F0F583E4F07535037402B54E72E54D24FE75F00314
:2013F700A4FCAEF02404FAEE3400FB0ABA00010BEC2404FCEE3400FE8C828E83A3E0FE8D2C
:20141700558E82C003C0021208AEAE82D002D0038A828B83EEF0E54D24FE75F003A42404AE
:20143700FC740035F0FE8C828E83A3E0FE24A65017E54D24FE75F003A42404FC740035F014
:20145700FE8C828E83A3E4F075350CE54D24FE75F003A4FCAEF02404F582EE3400F583E018
:20147700FBEC2404FCEE3400FE8C828E83A3E0F5388B821204DE747F5531F531747F553241
:20149700F53202155DAC4E7E00EC24FDF555EE34FFF556900005C007C005121996AC82AEA1
:2014B70083EC2400F582EE3431F58312045FD005D007AE4E1E1EE54D24FE75F003A424045F
:2014D700FB740035F0FC8B828C83A3A3E0FC8EF005F0EC8002C313D5F0FB30E008747F5550
:2014F70033F533800674804533F533ED6043AE4E1E1EE54D24FE75F003A4FDACF02404FA7D
:20151700EC3400FB74022AFAE43BFBED2404FDEC3400FC8D828C83A3A3E0FD8EF005F0748F
:2015370001800225E0D5F0FBFE62058A828B83EDF0EF700C054E740AB54E0B754E0180065C
:20155700BF0103754E00758201221203D3AF82C0071203A7AE82D007E55024F35003021878
:2015770005E550240B83F582E550241183F583E473A2C683AF384C4C4C4C4C4C4C4C1515D9
:201597001616171717171717171717EF701312083A1207E11218F2858243858344758202CE
:2015B70022EE7002055090313712045F021805BF010775500075820022EF7003755002EEF5
:2015D7006003BE0215900019E0FD0D900019EDF0ED24F55005900019E4F0900019E07004CE
:2015F700D21F802DC21FC2AF900019E0FD7C001DBDFF011C8D558C569019DE121996E58279
:201617008583F0242CFC740135F0FD8C368D37D2AF903062E493FD8D30903072E493FD8D4B
:2016370031900019E0FDBD0A129030B1E493FD8D32903030E493FD8D3380229030A0E493C2
:20165700FD8D32900019E02430FD3395E0FCED2400F582EC3430F583E493FD8D33747F556D
:2016770031F531747F5532F532021805EF7003755004EE701A75500390001DE0FD90001E99
:20169700E0FBE4FCFAED4204EA42038C518B5290314112045F021805BF0111755002AD5136
:2016B70090001DEDF0AD5290001EEDF0EE6003BE0215755501755600855182855283120877
:2016D700BE858251858352AC51AD52C374409C74019D5005E4F551F552C2ADAC27AD28D2B3
:2016F700ADEC2CFCED33FD8C8274282DF583E493FCA3E493FD8551558552568C828D831294
:2017170008BEAC82AD838C028D03C374999A74099B50047C997D098C828D8312059F021811
:2017370005EE7003755005EF7002F55090314612045F021805AC507D00740A2CF555E43D93
:20175700F556900005C007C006121996AC82AD83EC2400F582ED3431F58312045FD006D07A
:2017770007740CB550028047900003E0FDE55024FCF5F005F0ED8002C313D5F0FB5401F50F
:2017970082C007C006120579D006D007EE7040900003E0FDE55024FCF5F005F074018002B2
:2017B70025E0D5F0FBFC6205900003EDF08020900002E0FD74015DF582C007C00612057905
:2017D700D006D007EE7008900002E06401FEF0747F5531F531747F5532F532EF700A05501C
:1217F700740DB55003755005BF010375500475820122E7
:203300007510D708D708D70875100012D70800126115D7086115D708010000000102000253
:0433200003000300A3
:20300000C0F9A4B0999282F880908883C6A1868EFFFFFFFFFFFFFFFFFFFFFFFFFFFFFFFF78
:20302000FFFFDDFFFFFFFFFDC6F0FFFFEFBFFFFFC0F9A4B0999282F88090FFFFFFFFFFFFA0
:20304000FF8883C6A1868EC289F9F1FFC7FFABC08C98AF9287C1FFFFFF91FFC6FFF0FFF7A1
:20306000DF8883A7A1848EC28BFBF1FFF9FFABA38C98AF9287E3FFFFFFFFFFFFFFFFFFFFC9
:20308000C0CFA4868B9290C780828198F08CB0B1FFFFFFFFFFFFFFFFFFFFFFFFFFFFFFFF1B
:2030A000FFFFEBFFFFFFFFEFF0C6FFFFFDBFFFFFC0CFA4868B9290C78082FFFFFFFFFFFFA5
:2030C000FF8198F08CB0B1D089CFCEFFF8FF9DC0A183BD92B8C8FFFFFF8AFFF0FFC6FFFE87
:2030E000FB8198BC8CA0B1D099DFCEFFCFFF9D9CA183BD92B8DCFFFFFFFFFFFFFFFFFFFF0A
:203100004E4F4E2000545545200055454420005448555200465249200053415420005355A4
:203120004E200053455443005345544100414C4F4E00414C4F4600434F4E4600425220207F
:20314000005443414C0044495350004E53202000545020200044552020004454202000594C
:133160005220200031322020004E44202000523020200093
:05010300E4F553F55482
:20180900C0E0C0D075D010AE53AF5474012EF553E43FF55474E7B5BC0BE4F5BEF5BD75BC8E
:20182900E675BCEE74E6B5BC0BE4F5BEF5BD75BCE775BCEFE52C25E0FFA2B1E4334FF52C54
:20184900E52D25E0FFA2B0E4334FF52DAE2C5316877F00BE800EBF000BD2105322F1752E45
:2018690000752C00AE2D5316877F00BE800EBF000BD21453221F752F00752D00AE2C53165B
:20188900877F00BE071ABF001710130CE52E24DF5004D2128002D211C210752E00752CFF8D
:2018A900AE2D5316877F00BE071ABF001710170CE52F24DF5004D2168002D215C214752FB7
:2018C90000752DFF30100DE52E04FF8F2EBF96004002D21330140DE52F04FF8F2FBF960047
:1418E9004002D217D0D0D0E032C2A9855382855483D2A92280
:2018FD007A10E4FBFCE58225E0F582E58333F583EB33FBEC33FCEB9555F5F0EC9556400665
:09191D00FCABF0438201DADD228B
:06009A00E478FFF6D8FD3A
:20192600AD82AE83AFF08D5A8E5B8F5C85555D85565E85575FA858A9598803890418B8FF53
:201946000119EB4C6025855D82855E83855FF0121A00FCA385825D85835E8D828E838FF0D9
:15196600EC12197BA3AD82AE8380CE855A82855B83855CF022D2
:200078007900E94400601B7A00901A8F780175A000E493F2A308B8000205A0D9F4DAF27585
:02009800A0FFC7
:1B197B0020F71130F6138883A88220F509F6A8837583002280FEF280F5F0226B
:1D199600E5828555F0A4C582C0F08556F0A4D0F025F0C5838555F0A42583F583222C
:2019B300E555455660467A01E55525E0F555E556334012F556E5829555E583955640030A99
:2019D30080E6C3E55613F556E55513F555C3E5829555F5F0E58395564005F58385F082C3D8
:0D19F300E55613F556E55513F555DAE122DA
:2000A0007800E84400600A790175A000E4F309D8FC7800E84400600C7900900001E4F0A35E
:0400C000D8FCD9FA95
:0F006900E47375815F121A8AE5826003020066F4
:1C1A000020F71430F6148883A88220F507E6A88375830022E280F7E49322E022F5
:201A1C00C2D5E58330E70DD2D5E4C39582F582E49583F583E55630E70BE4C39555F555E41B
:161A3C009556F5561219B330D50BE4C39582F582E49583F58322A5
:201A5200C2D5E58330E70DD2D5E4C39582F582E49583F583E55630E70DB2D5E4C39555F595
:181A720055E49556F5561218FD30D50BE4C39582F582E49583F58322EB
:041A8A00758200223F
:00000001FF
