:0400000002006B325D
:03000B0002186672
:0100130032BA
:01001B0032B2
:0100230032AA
:03002B000204923A
:01003300329A
:03003B000207D3E6
:01004300328A
:01004B003282
:01005300327A
:01005B003272
:0300630002052A69
:0300FE0002006697
:0300660002010193
:200101007F007DAB7E0A53AFFB538EE275D72A75D610438E10C2954391C0439DC075BC8001
:20012100439720E4F5BEF5BDD2AD000000000000000075BCE6758900758A00758CB8758832
:2001410000538E7FD2A9D28C7595FF7596FF75D909E4F5D8F5E9F5F98540EA8541FA75DAC0
:2001610049D2DED2BFD2AF853DA053B0DFD21F753600753700752200753800753900C2A98A
:20018100855821855922D2A9E558C39521FAE5599522FCC3EA94C8EC940040ECD295539045
:2001A100F8439102439207C007C006C00512084312098B1209D3E582D005D006D0076028E0
:2001C100C007C006C0051205A7AC82D005D006D007BC0223C007C006C00512057BAC82D09B
:2001E10005D006D007BC020FC007C006C005120A2DD005D006D007D21FC21EC007C006C044
:20020100058D828E83120069858220D005D006D007EF75F006A42400FA743335F0FBE520AC
:2002210025202AF582E43BF583E493FDA3E493FEEF75F003A42418FB743335F0FCE5202B8A
:20024100F582E43CF583E493FFC2A9855823855924D2A9E558C39523FAE5599524FCC3EADE
:09026100940AEC940040EC809238
:20026A0075C7C022AF8275C5038FC375C40075C65A75C6A50022AE82AF8375C5028EC48F47
:20028A00C3855AC275C65A75C6A50022AE82AF8375C5018EC48FC375C65A75C6A50085C25C
:0602AA00822275C78022CC
:2020000000EA00EA00EA00EA00EA00EA00EA00EA00EA00EA00EA00EA00EA00EA00EA00EA20
:2020200000EA00EA00EA00EA00EA00EA00EA00EA00EA00EA00EA00EA00EA00EA00EA00EA00
:2020400000EA00EA00EA00EA00EA00EA00EA00EA00EA00EA00EA00EA00EA00EA00EA00EAE0
:2020600000EA00EA00EA00EA00EA00EA00EA00EA00EA00EA00EA00EA00EA00EA00EA00EAC0
:2020800000EA00EA00EA00EA00EA00EA00EA00EA00EA00EA00EA00EA00EA00EA00EA00EAA0
:2020A00000EA00EA00EA00EA00EA00EA00EA00EA00EA00EA00EA00EA00EA00EA00EA00EA80
:2020C00000EA00EA00EA00EA00EA00EA00EA00EA00EA00EA00EA00EA00EABEE97CE93AE9EF
:2020E000F8E8B6E874E832E8F0E7AEE76CE72AE7E8E6A6E664E622E6E0E59EE55CE51BE5E7
:20210000D9E497E455E413E4D1E38FE34DE30BE3C9E287E245E203E2C1E17FE13DE1FBE0F8
:20212000B9E077E035E0F3DFB1DF6FDF2DDFEBDEA9DE67DE25DEE3DDA1DD5FDD1DDDDBDC1B
:2021400099DC57DC15DCD3DB91DB50DB0EDBCCDA8ADA48DA06DAC4D982D940D9FED8BCD831
:202160007AD838D8F6D7B4D772D730D7EED6ACD66AD628D6E6D5A4D562D520D5DED49CD44F
:202180005AD418D4D6D394D352D310D3CED28CD24AD208D2C6D185D143D101D1BFD07DD06A
:2021A0003BD0F9CFB7CF75CF33CFF1CEAFCE6DCE2BCEE9CDA7CD65CD23CDE1CC9FCC5DCC83
:2021C0001BCCD9CB97CB55CB13CBD1CA8FCA4DCA0BCAC9C987C945C903C9C1C87FC83DC8A3
:2021E000FCC7BAC778C736C7F4C6B2C670C62EC6ECC5AAC568C526C5E4C4A2C460C41EC4B7
:20220000DCC39AC358C316C3D4C292C250C20EC2CCC18AC148C106C1C4C082C040C0FEBFD7
:20222000BCBF7ABF38BFF6BEB4BE72BE31BEEFBDADBD6BBD29BDE7BCA5BC63BC21BCDFBBF0
:202240009DBB5BBB19BBD7BA95BA53BA11BACFB98DB94BB909B9C7B885B843B801B8BFB70A
:202260007DB73BB7F9B6B7B675B633B6F1B5AFB56DB52BB5E9B4A8B466B424B4E2B3A0B329
:202280005EB31CB3DAB298B256B214B2D2B190B14EB10CB1CAB088B046B004B0C2AF80AF3E
:2022A0003EAFFCAEBAAE78AE36AEF4ADB2AD70AD2EADECACAAAC68AC26ACE4ABA2AB60AB62
:2022C0001EABDDAA9BAA59AA17AAD5A993A951A90FA9CDA88BA849A807A8C5A783A741A773
:2022E000FFA6BDA67BA639A6F7A5B5A573A531A5EFA4ADA46BA429A4E7A3A5A363A321A396
:20230000DFA29DA25BA219A2D7A195A153A112A1D0A08EA04CA00AA0C89F869F449F029FAC
:20232000C09E7E9E3C9EFA9DB89D769D349DF29CB09C6E9C2C9CEA9BA89B669B249BE29AC9
:20234000A09A5E9A1C9ADA99989956991499D29890984E980C98CA97899747970597C396E5
:2023600081963F96FD95BB9579953795F594B39471942F94ED93AB9369932793E592A392FD
:2023800061921F92DD919B9159911791D590939051900F90CD8F8B8F498F078FC58E838E1D
:2023A000418EFF8DBE8D7C8D3A8DF88CB68C748C328CF08BAE8B6C8B2A8BE88AA68A648A33
:2023C000228AE0899E895C891A89D888968854881288D0878E874C870A87C8868686448651
:2023E0000286C0857E853C85FA84B88476843484F383B1836F832D83EB82A982678225826C
:20240000E381A1815F811D81DB80998057801580D37F917F4F7F0D7FCB7E897E477E057E84
:20242000C37D817D3F7DFD7CBB7C797C377CF57BB37B717B2F7BED7AAB7A6A7A287AE679A5
:20244000A47962792079DE789C785A781878D677947752771077CE768C764A760876C675B8
:20246000847542750075BE747C743A74F873B67374733273F072AE726C722A72E871A671DB
:2024800064712271E0709F705D701B70D96F976F556F136FD16E8F6E4D6E0B6EC96D876DEF
:2024A000456D036DC16C7F6C3D6CFB6BB96B776B356BF36AB16A6F6A2D6AEB69A96967690F
:2024C0002569E368A1685F681D68DB67996757671667D466926650660E66CC658A65486528
:2024E0000665C46482644064FE63BC637A633863F662B46272623062EE61AC616A61286143
:20250000E660A46062602060DE5F9C5F5A5F185FD65E945E525E105ECE5D8C5D4B5D095D61
:20252000C75C855C435C015CBF5B7D5B3B5BF95AB75A755A335AF159AF596D592B59E95876
:20254000A75865582358E1579F575D571B57D956975655561356D1558F554D550B55C95497
:20256000875445540354C15380533E53FC52BA5278523652F451B25170512E51EC50AA50AE
:2025800068502650E44FA24F604F1E4FDC4E9A4E584E164ED44D924D504D0E4DCC4C8A4CCB
:2025A000484C064CC44B824B404BFE4ABC4A7A4A384AF749B54973493149EF48AD486B48E7
:2025C0002948E747A54763472147DF469D465B461946D745954553451145CF448D444B44FF
:2025E0000944C743854343430143BF427D423B42F941B74175413341F140AF406D402C4020
:20260000EA3FA83F663F243FE23EA03E5E3E1C3EDA3D983D563D143DD23C903C4E3C0C3C32
:20262000CA3B883B463B043BC23A803A3E3AFC39BA3978393639F438B23870382E38EC3755
:20264000AA3768372637E436A23661361F36DD359B3559351735D534933451340F34CD336B
:202660008B3349330733C53283324132FF31BD317B313931F730B53073303130EF2FAD2F89
:202680006B2F292FE72EA52E632E212EDF2D9D2D5B2D192DD82C962C542C122CD02B8E2BA4
:2026A0004C2B0A2BC82A862A442A022AC0297E293C29FA28B82876283428F227B0276E27BC
:2026C0002C27EA26A82666262426E225A0255E251C25DA24982456241424D22390234E23DE
:2026E0000D23CB22892247220522C32181213F21FD20BB2079203720F51FB31F711F2F1FF0
:20270000ED1EAB1E691E271EE51DA31D611D1F1DDD1C9B1C591C171CD51B931B511B0F1B11
:20272000CD1A8B1A491A071AC519841942190019BE187C183A18F817B61774173217F01628
:20274000AE166C162A16E815A61564152215E0149E145C141A14D813961354131213D01245
:202760008E124C120A12C811861144110211C0107E103C10FA0FB90F770F350FF30EB10E62
:202780006F0E2D0EEB0DA90D670D250DE30CA10C5F0C1D0CDB0B990B570B150BD30A910A79
:2027A0004F0A0D0ACB09890947090509C30881083F08FD07BB0779073707F506B30671069B
:2027C0002F06EE05AC056A052805E604A40462042004DE039C035A031803D60294025202AE
:2027E0001002CE018C014A014A014A014A014A014A014A014A014A014A014A014A014A019C
:2028000000009909990999099909990999099909990999099909990999099909990999093A
:20282000990999099909990999099909990999099909990999099909990999099909990978
:20284000990999099909990999099909990999099909990999099909990999099909990958
:20286000990999099909990999099909990999099909990999099909990999099909990938
:202880009909990999099909990999099909990999099509890984097809720966096109F4
:2028A0005509500944093909340929092409190914090909040999089508900885088108EC
:2028C000760872086808630859085508510847084308380834083108270823081908150827
:2028E000110808080408000897079307900786078307790776077207690766076207590799
:2029000056075307490746074307400737073407310728072507220719071607130710072F
:2029200007070507020799069606930691068806850683068006770675067206700667068E
:202940006406620659065706540652064906470645064206400637063506330630062806AD
:202960002606230621061906170614061206100608060606030601069905970595059305C1
:2029800091058805860584058205800578057605740572057005680566056405620560058A
:2029A00058055605540552055005490547054505430541053905370535053405320530058F
:2029C000280526052505230521051905170516051405120510050905070505050405020559
:2029E00000059804970495049304920490048804870485048304820480047904770475049F
:202A0000740472047104690467046604640463046104600458045704550454045204500467
:202A20004904470446044404430441044004390437043604340433043104300428042704BB
:202A40002504240423042104200418041704150414041304110410040804070406040404E4
:202A60000304020400049903970396039503930392039103890388038703850384038303E9
:202A8000810380037903770376037503740372037103700368036703660365036303620304
:202AA0006103600358035703560354035303520351035003480347034603450343034203E7
:202AC0004103400338033703360335033403320331033003290328032603250324032303C1
:202AE00022032003190318031703160315031303120311031003090308030603050304038B
:202B00000303020301030003980297029602950294029302920291028902880287028602C9
:202B20008502840283028202800279027802770276027502740273027202710269026802F9
:202B4000670266026502640263026202610260025902580256025502540253025202510293
:202B6000500249024802470246024502440243024202400239023802370236023502340232
:202B80003302320231023002290228022702260225022402230222022102200219021802B1
:202BA00017021602150214021202110210020902080207020602050204020302020201023F
:202BC000000299019801970196019501940193019201910190018901880187018601850174
:202BE000840183018201810180017901780177017601750174017301720171017001690145
:202C00006801670166016501640163016301620161016001590158015701560155015401B6
:202C2000530152015101500149014801470146014501440143014201410140013901380120
:202C4000370136013501340133013201310130012901280128012701260125012401230196
:202C60002201210120011901180117011601150114011301120111011001090108010701FC
:202C8000060105010401030103010201010100019900980097009600950094009300920068
:202CA0009100900089008800870086008500840083008200810080008000790078007700DE
:202CC000760075007400730072007100700069006800670066006500640063006200610042
:202CE0006000590058005700560056005500540053005200510050004900480047004600B3
:202D0000450044004300420041004000390038003700360035003400330032003100300017
:202D200029002800270026002600250024002300220021002000190018001700160015008D
:202D40001400130012001100100009000800070006000500040003000200010000000100EB
:202D6000020003000400050006000700080009001000000000000000000000000000000017
:202D8000000000000000000000000000000000000000000000000000000000000000000033
:202DA000000000000000000000000000000000000000000000000000000000000000000013
:202DC0000000000000000000000000000000000000000000000000000000000000000000F3
:202DE0000000000000000000000000000000000000000000000000000000000000000000D3
:202E00000000000000000000000000000000000000000000000000000000000000000000B2
:202E2000000000000000000000000000000000000000000000000000000000000000000092
:202E4000000000000000000000000000000000000000000000000000000000000000000072
:202E6000000000000000000000000000000000000000000000000000000000000000000052
:202E8000000000000000000000000000000000000000000000000000000000000000000032
:202EA000000000000000000000000000000000000000000000000000000000000000000012
:202EC0000000000000000000000000000000000000000000000000000000000000000000F2
:202EE0000000000000000000000000000000000000000000000000000000000000000000D2
:202F00000000000000000000000000000000000000000000000000000000000000000000B1
:202F2000000000000000000000000000000000000000000000000000000000000000000091
:202F4000000000000000000000000000000000000000000000000000000000000000000071
:202F6000000000000000000000000000000000000000000000000000000000000000000051
:202F8000000000000000000000000000000000000000000000000000000000000000000031
:202FA000000000000000000000000000000000000000000000000000000000000000000011
:202FC0000000000000000000000000000000000000000000000000000000000000000000F1
:202FE0000000000000000000000000000000000000000000000000000000000000000000D1
:2002B00085822B85832CE529C3952BF52DE52A952CF52E852D5A852E5B90E8D412195A85B2
:2002D000822F858330852D5A852E5B90E8D4121A10858231858332780079007A007BEAC081
:2002F00003C002C001C00012026A75820012026E75820212026E75820412026E75820812A8
:20031000026ED000D001D002D0037E007F00C3EE952BEF952C50030203BDC3E5299EE52A66
:200330009F50030203BD8E048F05EC2CFCED33FD8C828D838A5AC007C006C005C004C003C7
:20035000C002C001C000120280D000D001D002D003D004D005D006D0070CBC00010D8C8236
:200370008D838B5AC007C006C003C002C001C000120280D000D001D002D003D006D007EA74
:20039000C3952FFAEB9530FBE53128F8E53239F9C3E8952DE9952E500302047E1ABAFF01DE
:2003B0001BE8C3952DF8E9952EF902047EC3EE952BEF952C505D8E048F05EC2CFCED33FD5F
:2003D0008C828D83755A00C007C006C005C004C003C002C001C000120280D000D001D002FD
:2003F000D003D004D005D006D0070CBC00010D8C828D83755AEAC007C006C003C002C00144
:20041000C000120280D000D001D002D003D006D007805B8E048F05EC2CFCED33FD8C828DB8
:2004300083755A2CC007C006C005C004C003C002C001C000120280D000D001D002D003D068
:2004500004D005D006D0070CBC00010D8C828D83755A01C007C006C003C002C001C000129D
:200470000280D000D001D002D003D006D0070EBE00010F8E048F0574FC2D400302031E02F0
:2004900002ACC0E0C082C083C0D075D01863BC1074E7B5BC0885BE2785BD28807485BE2559
:2004B00085BD26301F6BE52525E0FEE52633FF8E8274202FF583E493FEA3E493FFC3E540FF
:2004D0009EE5419F5022EEC39540FCEF9541A2E7CC33CC33A2E7CC33CC33CC5403FDEC25B1
:2004F00040FCED3541FD8021E540C39EFEE5419FA2E7CE33CE33A2E7CE33CE33CE5403FF2C
:1A051000E540C39EFCE5419FFDC2BF8C408D41D2BFD0D0D083D082D0E032BA
:0300C40075350F80
:20052A00C0E0C007C006C0D075D000C2AFE53524F85011AE33AF34C3EE9428EF942350047C
:20054A00C2958002D295D2AFD5350375350FAE33AF34C3EE9428EF9423500DAE33AF34749E
:11056A00012EF533E43FF534D0D0D006D007D0E032AE
:20057B00C2A9E522C4035407FF7006D2A975820322301706D2A97582022210150280047FB3
:20059B00008004C2167F01D2A98F8222C2A9E522540E60028006D2A975820322301306D248
:1705BB00A97582022210110280047F008004C2127F01D2A98F8222B9
:2005D20085825B85835C85F05D7BFF7CFF7A00C3EA955A5047EA255BF8E4355CF9AF5D886B
:2005F2008289838FF0121A5DFF78008B058C06ED6200EE620788038F047F08EC30E712EB6F
:200612002BFDEC33FE6305216306108D038E048006EB2BFBEC33FCDFE20A80B38B828C8393
:0106320022A5
:1B00C700754310753A00753B00753C00753D00753E03753F007540007541FFC0
:20063300AE82AF83E49390300093FD8D3A8E828F83A3E49390300093FD8D3B8E828F83A39E
:20065300A3E49390308093FD8D3C8E828F83A3A3A3E49390300093FF8F3D22E582FFC45494
:200673000F90300093FE8E3A53070F7E00EF2400F582EE3430F583E493FF8F3BE55AC4546D
:200693000F90308093FF8F3CAE5A53060F7F00EE2400F582EF3430F583E493FF8F3D22AF45
:2006B30082900003E02323540160208F82C007120A69D00785425AC00712066ED007EF248B
:2006D300EE5010747F553DF53D800885425A8F8212066E900002E0FF30E011903030E493C9
:2006F300FFB53A08903020E493FF8F3A22900003E0235401600B85488285475A12066E80DF
:200713000985478285485A12066E747F553BF53B900002E0FF30E021903030E493B53A080F
:20073300903020E493FF8F3A9030B0E493FFB53C089030A0E493FF8F3C22E582601190304D
:20075300CFE493FF8F3C90304EE493FF8F3D229030CFE493FF8F3C903046E493FF8F3D22CA
:20077300AE82AF838F0553050F7C00ED2400F582EC3430F583E493FD8D3A8E04EFC4CCC42D
:20079300540F6CCC540FCC6CCC53040F7D00EC2400F582ED3430F583E493FD8D3B53060F6D
:2007B3007F00EE2480F582EF3430F583E493FF8F3C903043E493FF8F3D747F553BF53B2278
:2007D300C0E0C0F0C0D075D00810DF02803DAF40740F5FF5EA8541FAE53E243AF987A074A6
:2007F300F825434011853EF005F0E53F8002C313D5F0FB20E033AF3E8FF005F074048002C3
:2008130025E0D5F0FBF4FF52B0801E10D802801943B03CE53E700DAF431543EF70037543B7
:1008330010753E04E53E14F53ED0D0D0F0D0E03242
:20084300C291C292C290000000000000000000000000000000000000000022C291D29000C5
:20086300000000000000000000000000000000000000000208F7D291000000A2919208D272
:200883009200000000C292000000A2919209D29200000000C292000000A291920AD29200B6
:2008A300000000C292000000A291920BD29200000000C292000000A291920CD29200000024
:2008C30000C292000000A291920DD29200000000C292000000A291920ED29200000000C23E
:2008E30092000000A291920FD29200000000C29285218222858221A2089291D29200000034
:2009030000C292A2099291D29200000000C292A20A9291D29200000000C292A20B9291D2D1
:200923009200000000C292A20C9291D29200000000C292A20D9291D29200000000C292A219
:200943000E9291D29200000000C292A20F9291D29200000000C2922275828E12085E758209
:20096300001208F7C2901208437582BE12085E7F00901A7DE4932FF98782C0071208F7D091
:20098300070FBF08ECC290227582FF12085E7F008F057E00C007C006C005120879AC82D035
:2009A30005D006D0078D828E83ECF00FBF1FE1C290227582FE12085E7F008F82758300E06F
:2009C300F582C0071208F7D0070FBF1FEDC29022900000E0FF900001E0FDE4FEFCEF4206AE
:2009E300EC4205755A1D90000275F000C006C0051205D2AC82AF83D005D006ECB50608EFC1
:200A0300B505047582012275820022755A1D90000275F0001205D2AE82AF838E0590000091
:200A2300EDF08F06900001EEF022755A00755B32755C80755D08755E0090004475F0401256
:200A43001983755A08755B32755C80755D1F755E0090000075F000121983120A0E12095BC6
:200A63001208430209B5E582FF700475821222EF24ED5008755A888F82020A828F8222C010
:200A8300E0C0D0E582255AD4F582D0D0D0E022C0E0C0D0C2D7E582255AD4F582E583355B4E
:080AA300D4F583D0D0D0E0228D
:011A7D004424
:20320000001110290706260000000000000000000000000000000000000000000000000031
:073220000000000000700037
:1700E200754F00755100755200755300755500754C00E4F54DF54EFA
:200AAB001205A7AF82C00712057B858250D0077407B54F03020BE0BF0103EF8001E4FD60D2
:200ACB000C7401B55007754F0075820022EF701DC007C00512194F85824D85834ED005D0D0
:200AEB0007C21E054F7406B54F03754F00ED6012C00712194F85824D85834ED007C21E75F5
:200B0B004F00E5507013101F02800CC2AF7540007541EAD2AF8002D21FE54F7003020BBDDB
:200B2B00301E5FC00712194FE5828583F0D007C3954DFCE5F0954EFDC374C89CE49D4003D1
:200B4B00020BE0054F7406B54F028022900003E0FD854FF005F0ED8002C313D5F0FB30E0E9
:200B6B00E212194F85824D85834E75820122C00712194F85824D85834ED007C21E754F00E4
:200B8B008053C00712194FE5828583F0D007C3954DFCE5F0954EFDC3742C9C74019D503514
:200BAB00C00712194F85824D85834ED007754F008023C00712194FE5828583F0D007C39532
:200BCB004DFCE5F0954EFDC374E89C74039D5005D21E020B4E7582BFC00712085ED007D2FF
:200BEB0091000000A2919208D29200000000C292000000A2919209D29200000000C292004E
:200C0B000000A291920AD29200000000C292000000A291920BD29200000000C292000000BA
:200C2B00A291920CD29200000000C292000000A291920DD29200000000C292000000A29163
:200C4B00920ED29200000000C292000000A291920FD29200000000C292E521F544D2910003
:200C6B000000A2919208D29200000000C292000000A2919209D29200000000C2920000005E
:200C8B00A291920AD29200000000C292000000A291920BD29200000000C292000000A29107
:200CAB00920CD29200000000C292000000A291920DD29200000000C292000000A291920E76
:200CCB00D29200000000C292000000A291920FD29200000000C292AD218D45D291000000C2
:200CEB00A2919208D29200000000C292000000A2919209D29200000000C292000000A291AB
:200D0B00920AD29200000000C292000000A291920BD29200000000C292000000A291920C1B
:200D2B00D29200000000C292000000A291920DD29200000000C292000000A291920ED2922F
:200D4B0000000000C292000000A291920FD29200000000C292E521F546D291000000A291D1
:200D6B009208D29200000000C292000000A2919209D29200000000C292000000A291920AC1
:200D8B00D29200000000C292000000A291920BD29200000000C292000000A291920CD292D3
:200DAB0000000000C292000000A291920DD29200000000C292000000A291920ED292000013
:200DCB000000C292000000A291920FD29200000000C292E521F547D291000000A2919208B6
:200DEB00D29200000000C292000000A2919209D29200000000C292000000A291920AD29277
:200E0B0000000000C292000000A291920BD29200000000C292000000A291920CD2920000B6
:200E2B000000C292000000A291920DD29200000000C292000000A291920ED2920000000092
:200E4B00C292000000A291920FD29200000000C292E521F548D291000000A2919208D292D0
:200E6B0000000000C292000000A2919209D29200000000C292000000A291920AD29200005A
:200E8B000000C292000000A291920BD29200000000C292000000A291920CD2920000000036
:200EAB00C292000000A291920DD29200000000C292000000A291920ED29200000000C292BE
:200ECB00000000A291920FD29200000000C292E521F549D291000000A2919208D2920000A3
:200EEB000000C292000000A2919209D29200000000C292000000A291920AD29200000000DA
:200F0B00C292000000A291920BD29200000000C292000000A291920CD29200000000C29261
:200F2B00000000A291920DD29200000000C292000000A291920ED29200000000C292000091
:200F4B0000A291920FD29200000000C292E521F54AC290EDB54C03020FF2900003E0FD20DF
:200F6B00E003020FF27D00BD07005078ED75F003A4FBACF02404FAEC3400FE8A828E83A3E7
:200F8B00A3E0FE8549F005F0EE8002C313D5F0FB30E04EEB2404FAEC3400FE8A828E83A3C3
:200FAB00A3E0FE30E03BEB2404F582EC3400F583E0FEB5462CEB2404FBEC3400FC8B828C70
:200FCB0083A3E0FEB5451A53AFFBE4F533F53443AF04C21FC2AF7540007541EAD2AF754FDA
:200FEB00070D808385454CE54F24F8500302110FE54F240B83F582E54F240C83F583E473E1
:20100B001B5C7CDA01060F1B10101010111111107407B54F1C753F0FBF01167401B5501185
:20102B00753F0053AFFBC2AFD295D2AFD21F754F008546828545421206B2E54420E0030295
:20104B00110F747F553BF53B747F553CF53C02110F85458285445A12066EE54420E00302B8
:20106B00110F747F553BF53B747F553CF53C02110FC2ADAE27AF28D2ADEE2EFEEF33FF8E58
:20108B008274282FF583E493FEA3E493FF90001DE0FD90001EE0FBE4FCFAED4204EA4203A3
:2010AB008C5A8B5B8E828F83120A92AE82AF838E048F05C374999C74099D50047E997F0988
:2010CB008E828F83120773747F553BF53B8035AE497F00EE24FFF55AEF34FFF55B90000512
:2010EB001219F3AE82AF83EE2400F582EF3431F583120633800E1207008009854A5A758275
:20110B002012066E758201221205A7AF82C00712057BAE82D007E5516020BF0110753F007B
:20112B0012095B754C6075510075820022EF700A05517407B551037551017D00EE6003BE98
:20114B0002027D01E55124F9500302129AE55175F003A49011627302117702118C02118C2E
:20116B000211E00211E002123E02125FEE70020551EF700475820222903123120633021242
:20118B009A7401B5511B8546828D5AC005120A82AF82D005EFF54624DC5003754600753F8B
:2011AB00037402B551178545828D5A120A82E582FFF54524A65003754500753F0C85468239
:2011CB008545421206B2747F553BF53B747F553CF53C02129A7403B5512A8547828D5AC07C
:2011EB0005120A82AF82D005EFF54724CE5003754700900003E0235401FF6005753F0C8080
:20120B0003753F037404B551258548828D5A120A82E582F54824ED5003754800900003E05A
:20122B00235401FF6005753F038003753F0C120700805C854A828D5A120A82E582F54A2438
:20124B00665003754A00753F0F854A5A75822012066E803B8549828D5A120A82E582F5494D
:20126B0024F85003754901753F0FAE497F00EE24FFF55AEF34FFF55B9000051219F3AE8247
:20128B00AF83EE2400F582EF3431F583120633758201221205A7AF82C00712057B858254B4
:2012AB00D0077D00E55460057402B554027D01E4B5520280077401B5526F801AEF70047561
:2012CB00820222E55470060552758201229031281206330215FBBF0110755200120A0E1224
:2012EB0009B5754C6075820022E5547008900003E06401FCF0900003E030E00C90312DC039
:20130B0007120633D007800A903132C007120633D007747F553BF53B747F553CF53CEF607C
:20132B00030215FB05520215FBE55324F650030215FBE553240B83F582E553240E83F583A7
:20134B00E4736105053A3A3A3A3A3A3A13141415151515151515EF701205527409B552020E
:20136B0080030215FB7552010215FBE5547032E55224FE75F003A4FBACF02404FAEC3400DA
:20138B00FE74022AFAE43EFEEB2404FBEC3400FC8B828C83A3A3E0FC6304018A828E83ECB1
:2013AB00F07401B5540505530215FBBF010A75530075520075820022903041E493FE8E3A95
:2013CB00E55224FE90300093FE8E3BE55224FE75F003A42404FC740035F0FE8C828E83A3AD
:2013EB00A3E0FE74015EF58212074D747F553BF53B747F553CF53C0215FBEF700805537503
:20140B003F000215FBBF0109755300753F000215FB7401B55368E55224FE75F003A4FCAE25
:20142B00F02404FAEE3400FBEC2404F582EE3400F583E0FE8D5A8E82C005C003C002120A12
:20144B0082AE82D002D003D0058A828B83EEF0E55224FE75F003A42404F582740035F0F5CB
:20146B0083E0FE24DC5014E55224FE75F003A42404F582740035F0F583E4F0753F03740286
:20148B00B55372E55224FE75F003A4FCAEF02404FAEE3400FB0ABA00010BEC2404FCEE3487
:2014AB0000FE8C828E83A3E0FE8D5A8E82C003C002120A82AE82D002D0038A828B83EEF09C
:2014CB00E55224FE75F003A42404FC740035F0FE8C828E83A3E0FE24A65017E55224FE7542
:2014EB00F003A42404FC740035F0FE8C828E83A3E4F0753F0CE55224FE75F003A4FCAEF03A
:20150B002404F582EE3400F583E0FBEC2404FCEE3400FE8C828E83A3E0F5428B821206B2CC
:20152B00747F553BF53B747F553CF53C0215FBAC537E00EC24FDF55AEE34FFF55B90000547
:20154B00C007C0051219F3AC82AE83EC2400F582EE3431F583120633D005D007AE531E1EF1
:20156B00E55224FE75F003A42404FB740035F0FC8B828C83A3A3E0FC8EF005F0EC8002C361
:20158B0013D5F0FB30E008747F553DF53D80067480453DF53DED6043AE531E1EE55224FE4A
:2015AB0075F003A4FDACF02404FAEC3400FB74022AFAE43BFBED2404FDEC3400FC8D828CC1
:2015CB0083A3A3E0FD8EF005F07401800225E0D5F0FBFE62058A828B83EDF0EF700C05530C
:2015EB00740AB5530B7553018006BF0103755300758201221205A7AF82C00712057BAE82E3
:20160B00D007E55524F15003021862E555240B83F582E555241383F583E47344687D7DE01E
:20162B000C95A9A9A9A9A9A9A9A9161616161617171717171717171717EF7013120A0E12B4
:20164B0009B512194F85824D85834E75820222EE70020555903137120633021862EF7003A7
:20166B00755504EE700375550290313C120633021862C21FBF0103755501EE702D7402B57B
:20168B005510C2ADAC25AD26D2AD8C568D5705558018C2AD852582852683D2AD85562985BF
:2016AB00572A1202B0755501D21F7402B55513903146120633C2AF75402C754101D2AF02AD
:2016CB00186290314B120633C2AF7540007541EAD2AF021862EF7003755506EE701A7555F7
:2016EB000590001DE0FD90001EE0FBE4FCFAED4204EA42038C568B57903150120633021851
:20170B0062BF0111755504AD5690001DEDF0AD5790001EEDF0EE6003BE0215755A01755BDB
:20172B0000855682855783120A92858256858357AC56AD57C374409C74019D5005E4F556C9
:20174B00F557C2ADAC27AD28D2ADEC2CFCED33FD8C8274282DF583E493FCA3E493FD8556B7
:20176B005A85575B8C828D83120A92AC82AD838C028D03C374999A74099B50047C997D0914
:20178B008C828D83120773021862EE7003755507EF7002F555903155120633021862AC555D
:2017AB007D00740B2CF55AE43DF55B900005C007C0061219F3AC82AD83EC2400F582ED34F0
:2017CB0031F583120633D006D007740EB555028047900003E0FDE55524FAF5F005F0ED80F9
:2017EB0002C313D5F0FB5401F582C007C00612074DD006D007EE7040900003E0FDE555246E
:20180B00FAF5F005F07401800225E0D5F0FBFC6205900003EDF08020900002E0FD74015D79
:20182B00F582C007C00612074DD006D007EE7008900002E06401FEF0747F553BF53B747FB5
:1B184B00553CF53CEF700A0555740FB55503755507BF010375550675820122EF
:203300001311AB0AAB0AAB0A13119E12AB0A9E12FF15AB0AFF15AB0A010000000102000299
:0433200003000300A3
:20300000C0F9A4B0999282F880908883C6A1868EFFFFFFFFFFFFFFFFFFFFFFFFFFFFFFFF78
:20302000FFFFDDFFFFFFFFFDC6F0FFFFEFBFFFFFC0F9A4B0999282F88090FFFFFFFFFFFFA0
:20304000FF8883C6A1868EC289F9F1FFC7FFABC08C98AF9287C1FFFFFF91FFC6FFF0FFF7A1
:20306000DF8883A7A1848EC28BFBF1FFF9FFABA38C98AF9287E3FFFFFFFFFFFFFFFFFFFFC9
:20308000C0CFA4868B9290C780828198F08CB0B1FFFFFFFFFFFFFFFFFFFFFFFFFFFFFFFF1B
:2030A000FFFFEBFFFFFFFFEFF0C6FFFFFDBFFFFFC0CFA4868B9290C78082FFFFFFFFFFFFA5
:2030C000FF8198F08CB0B1D089CFCEFFF8FF9DC0A183BD92B8C8FFFFFF8AFFF0FFC6FFFE87
:2030E000FB8198BC8CA0B1D099DFCEFFCFFF9D9CA183BD92B8DCFFFFFFFFFFFFFFFFFFFF0A
:203100004E4F4E2000545545200055454420005448555200465249200053415420005355A4
:203120004E200053455443005345544100414C4F4E00414C4F4600434F4E46004C43414C37
:2031400000434C444E00434C4C4F00434C4849005443414C0044495350004E53202000547B
:203160005020200044552020004454202000595220200031322020004E442020005230200C
:0231800020002D
:0500F900E4F558F55983
:20186600C0E0C0D075D010AE58AF5974012EF558E43FF55974E7B5BC0BE4F5BEF5BD75BC1D
:20188600E675BCEE74E6B5BC0BE4F5BEF5BD75BCE775BCEFE53625E0FFA2B1E4334FF536E3
:2018A600E53725E0FFA2B0E4334FF537AE365316877F00BE800EBF000BD2105322F17538C0
:2018C60000753600AE375316877F00BE800EBF000BD21453221F753900753700AE365316CC
:2018E600877F00BE071ABF001710130CE53824DF5004D2128002D211C2107538007536FF12
:20190600AE375316877F00BE071ABF001710170CE53924DF5004D2168002D215C21475393B
:20192600007537FF30100DE53804FF8F38BF96004002D21330140DE53904FF8F39BF9600B7
:141946004002D217D0D0D0E032C2A9855882855983D2A92218
:20195A007A10E4FBFCE58225E0F582E58333F583EB33FBEC33FCEB955AF5F0EC955B4006FD
:09197A00FCABF0438201DADD222E
:06009A00E478FFF6D8FD3A
:20198300AD82AE83AFF08D5F8E608F61855A62855B63855C64A85DA95E8803890418B8FFBF
:2019A3000119EB4C60258562828563838564F0121A5DFCA38582628583638D828E838FF006
:1519C300EC1219D8A3AD82AE8380CE855F828560838561F02209
:200078007900E94400601B7A00901A7E780175A000E493F2A308B8000205A0D9F4DAF27596
:02009800A0FFC7
:1B19D80020F71130F6138883A88220F509F6A8837583002280FEF280F5F0220E
:1D19F300E582855AF0A4C582C0F0855BF0A4D0F025F0C583855AF0A42583F58322C0
:201A1000E55A455B60467A01E55A25E0F55AE55B334012F55BE582955AE583955B40030A13
:201A300080E6C3E55B13F55BE55A13F55AC3E582955AF5F0E583955B4005F58385F082C35C
:0D1A5000E55B13F55BE55A13F55ADAE12268
:2000A0007800E84400600A790175A000E4F309D8FC7800E84400600C7900900001E4F0A35E
:0400C000D8FCD9FA95
:0F006900E473758164121A79E582600302006600
:1C1A5D0020F71430F6148883A88220F507E6A88375830022E280F7E49322E02298
:041A79007582002250
:00000001FF
