:0400000002006B325D
:03000B000219EBEC
:0100130032BA
:01001B0032B2
:0100230032AA
:03002B0002048A42
:01003300329A
:03003B0002089820
:01004300328A
:01004B003282
:01005300327A
:01005B003272
:030063000205EFA4
:0300FE0002006697
:0300660002010193
:200101007F007D0D7E0C53AFFB538EE275D72A75D610438E10C2954391C0439DC075BC809D
:20012100439720E4F5BEF5BDD2AD000000000000000075BCE6758900758A00758CB8758832
:2001410000538E7FD2A9D28C7595FF7596FF75D909E4F5D8F5E9F5F98548EA8549FA75DAB0
:2001610049D2DED2BFD2AF8545A053B0DFD21F753E00753F00752200754000754100C2A962
:20018100855E25855F26D2A9E55EC39525FAE55F9526FCC3EA94C8EC940040ECD29553901D
:2001A100F8439102439207C007C006C005120908120AB1120AF9E582D005D006D0076028CC
:2001C100C007C006C00512066CAC82D005D006D007BC0223C007C006C005120640AC82D00F
:2001E10005D006D007BC020FC007C006C005120B53D005D006D007D21FC21EC007C006C01D
:20020100058D828E83120069858224D005D006D007EF75F006A42400FA743335F0FBE524A4
:2002210025242AF582E43BF583E493FDA3E493FEEF75F003A42418FB743335F0FCE5242B82
:20024100F582E43CF583E493FFC2A9855E27855F28D2A9E55EC39527FAE55F9528FCC3EAB6
:09026100940AEC940040EC809238
:20026A0085822F858330E52DC3952FF582E52E9530F583121CDDAA82AB83ACF0B2E7FDC04F
:20028A0002C003C004C00590D40075F0687447121D5D85823185833285F033F534E58124C1
:2002AA00FCF581852F82853083121CDDA882A983ACF0FDC000C001C004C005853182853261
:2002CA00838533F0E534121AF3AA82AB83ACF0FDE58124FCF581C002C003C004C005900024
:2002EA000075F06A7447121AE885823585833685F037F538E58124FCF581120BC77582002C
:20030A00120BCB758202120BCB758204120BCB758208120BCBE4F539F53AC3E539952FE575
:20032A003A95305003020410C3E52D9539E52E953A5003020410AC39AD3AEC2CFCED33FD60
:20034A008C028D03853982853A83C005C004C003C002121CDDA882A983AEF0FFC000C00166
:20036A00C006C0078531828532838533F0E534121AF3A882A983AEF0FFE58124FCF581C0E5
:20038A0035C036C037C038888289838EF0EF121C84A882A983AEF0FFE58124FCF581D00243
:2003AA00D003D004D005888289838EF0EFC007C006C005C004C003C002C001C000121CE901
:2003CA00858260D000D001D002D0038A828B83C001C000120BDDD000D001D004D005D006B1
:2003EA00D0070CBC00010D888289838EF0EFC005C004121CE9AF83D004D0058F608C828DBE
:20040A0083120BDD8063C3E539952FE53A9530502DA839A93AE828F8E933F9888289837500
:20042A006000C001C000120BDDD000D00108B8000109888289837560EA120BDD802BA83911
:20044A00A93AE828F8E933F98882898375602CC001C000120BDDD000D00108B8000109880D
:20046A00828983756001120BDD0539E4B53902053AA839A93A74FC294003020324020C09E3
:20048A00C020C0E0C0F0C082C083C007C006C005C004C003C002C001C000C0D075D0186331
:2004AA00BC1074E7B5BC0985BE2B85BD2C0205D285BE2985BD2A201F030205D2E52925E0D6
:2004CA00FEE52A33FF8E8274202FF583E493FEA3E493FF8E828F8375D000121CDD75D0182B
:2004EA00AC82AD83AEF0FFE4C0E0C0E074C8C0E07442C0E08C828D838EF0EF75D000121DA2
:20050A005D75D018AC82AD83AEF0FFE58124FCF581854882854983C01FC01EC01DC01C7595
:20052A00D000121CDD75D018A882A983AAF0FBE4C0E0C0E074C8C0E07442C0E08882898322
:20054A008AF0EB75D000121D5D75D018A882A983AAF0FBE58124FCF581C018C019C01AC0CC
:20056A001B90000075F0C6744275D000121AF375D018A882A983AAF0FBE58124FCF581D06D
:20058A001CD01DD01ED01FC018C019C01AC01B8C828D838EF0EF75D000121C8475D018AC7A
:2005AA0082AD83AEF0FFE58124FCF5818C828D838EF0EF75D000121CE975D018AE82AF8340
:2005CA00C2BF8E488F49D2BFD0D0D000D001D002D003D004D005D006D007D083D082D0F0B0
:0505EA00D0E0D020323A
:0300C400753D0F78
:2005EF00C0E0C007C006C0D075D000C2AFE53D24F85011AE3BAF3CC3EE9428EF942350049F
:20060F00C2958002D295D2AFD53D03753D0FAE3BAF3CC3EE9428EF9423500DAE3BAF3C74A8
:11062F00012EF53BE43FF53CD0D0D006D007D0E032D8
:20064000C2A9E522C4035407FF7006D2A975820322301706D2A97582022210150280047FED
:20066000008004C2167F01D2A98F8222C2A9E522540E60028006D2A975820322301306D282
:17068000A97582022210110280047F008004C2127F01D2A98F8222F3
:2006970085826185836285F0637BFF7CFF7A00C3EA95605047EA2561F8E43562F9AF63887B
:2006B7008289838FF0121E20FF78008B058C06ED6200EE620788038F047F08EC30E712EBE2
:2006D7002BFDEC33FE6305216306108D038E048006EB2BFBEC33FCDFE20A80B38B828C83CE
:0106F70022E0
:1B00C700754B107542007543007544007545007546037547007548007549FF78
:2006F800AE82AF83E49390300093FD8D428E828F83A3E49390300093FD8D438E828F83A3C9
:20071800A3E49390308093FD8D448E828F83A3A3A3E49390300093FF8F4522E582FFC454BE
:200738000F90300093FE8E4253070F7E00EF2400F582EE3430F583E493FF8F43E560C45491
:200758000F90308093FF8F44AE6053060F7F00EE2400F582EF3430F583E493FF8F4522AF69
:2007780082900003E02323540160208F82C007120B95D007854A60C007120733D007EF24C4
:20079800EE5010747F5545F5458008854A608F82120733900002E0FF30E011903030E4931F
:2007B800FFB54208903020E493FF8F4222900003E0235401600B855082854F60120733802D
:2007D80009854F82855060120733747F5543F543900002E0FF30E021903030E493B5420856
:2007F800903020E493FF8F429030B0E493FFB544089030A0E493FF8F4422E5826011903070
:20081800CFE493FF8F4490304EE493FF8F45229030CFE493FF8F44903046E493FF8F4522E4
:20083800AE82AF838F0553050F7C00ED2400F582EC3430F583E493FD8D428E04EFC4CCC45F
:20085800540F6CCC540FCC6CCC53040F7D00EC2400F582ED3430F583E493FD8D4353060F9F
:200878007F00EE2480F582EF3430F583E493FF8F44903043E493FF8F45747F5543F5432292
:20089800C0E0C0F0C0D075D00810DF02803DAF48740F5FF5EA8549FAE5462442F987A074C0
:2008B800F8254B40118546F005F0E5478002C313D5F0FB20E033AF468FF005F074048002DD
:2008D80025E0D5F0FBF4FF52B0801E10D802801943B03CE546700DAF4B154BEF7003754BD2
:1008F80010754604E54614F546D0D0D0F0D0E03265
:20090800C291C292C290000000000000000000000000000000000000000022858221A208E2
:200928009291D29000000000000000000000000000000000000000000000D29200000000C6
:20094800C292A2099291D29200000000C292A20A9291D29200000000C292A20B9291D292FA
:2009680000000000C292A20C9291D29200000000C292A20D9291D29200000000C292A20E58
:200988009291D29200000000C292A20F9291D29200000000C29222D291000000A291920896
:2009A800D29200000000C292000000A2919209D29200000000C292000000A291920AD292BE
:2009C80000000000C292000000A291920BD29200000000C292000000A291920CD2920000FE
:2009E8000000C292000000A291920DD29200000000C292000000A291920ED29200000000DA
:200A0800C292000000A291920FD29200000000C29285218222858221A2089291D29200004B
:200A28000000C292A2099291D29200000000C292A20A9291D29200000000C292A20B92917D
:200A4800D29200000000C292A20C9291D29200000000C292A20D9291D29200000000C292C3
:200A6800A20E9291D29200000000C292A20F9291D29200000000C2922275828E12092375FD
:200A88008200120A1DC2901209087582BE1209237F00901ECFE4932FF98782C007120A1D87
:200AA800D0070FBF08ECC290227582FF1209237F008F057E00C007C006C00512099FAC8222
:200AC800D005D006D0078D828E83ECF00FBF1FE1C290227582FE1209237F008F8275830093
:200AE800E0F582C007120A1DD0070FBF1FEDC29022900000E0FF900001E0FDE4FEFCEF4286
:200B080006EC420575601D90000275F000C006C005120697AC82AF83D005D006ECB50608B7
:200B2800EFB50504758201227582002275601D90000275F000120697AE82AF838E059000B0
:200B480000EDF08F06900001EEF02275600075613275628075630875640090004C75F0401C
:200B6800121BC475600875613275628075631F75640090000075F000121BC4120B34120A1D
:200B880081120908120A81120908020ADBE58290325093F58222C0E0C0D0E5822560D4F578
:1F0BA80082D0D0D0E022C0E0C0D0C2D7E5822560D4F582E5833561D4F583D0D0D0E0227E
:011ECF004CC6
:20320000001110290706260000000000000000000000000000000000000000000000000031
:073220000000000000700037
:203250000001020304050607080900000000000010111201020304050607000000000000E2
:043270000809101128
:200BC70075C7C022AF8275C5038FC375C40075C65A75C6A50022AE82AF8375C5028EC48FE1
:200BE700C38560C275C65A75C6A50022AE82AF8375C5018EC48FC375C65A75C6A50085C2F0
:060C0700822275C7802265
:2020000000EA00EA00EA00EA00EA00EA00EA00EA00EA00EA00EA00EA00EA00EA00EA00EA20
:2020200000EA00EA00EA00EA00EA00EA00EA00EA00EA00EA00EA00EA00EA00EA00EA00EA00
:2020400000EA00EA00EA00EA00EA00EA00EA00EA00EA00EA00EA00EA00EA00EA00EA00EAE0
:2020600000EA00EA00EA00EA00EA00EA00EA00EA00EA00EA00EA00EA00EA00EA00EA00EAC0
:2020800000EA00EA00EA00EA00EA00EA00EA00EA00EA00EA00EA00EA00EA00EA00EA00EAA0
:2020A00000EA00EA00EA00EA00EA00EA00EA00EA00EA00EA00EA00EA00EA00EA00EA00EA80
:2020C00000EA00EA00EA00EA00EA00EA00EA00EA00EA00EA00EA00EA00EABEE97CE93AE9EF
:2020E000F8E8B6E874E832E8F0E7AEE76CE72AE7E8E6A6E664E622E6E0E59EE55CE51BE5E7
:20210000D9E497E455E413E4D1E38FE34DE30BE3C9E287E245E203E2C1E17FE13DE1FBE0F8
:20212000B9E077E035E0F3DFB1DF6FDF2DDFEBDEA9DE67DE25DEE3DDA1DD5FDD1DDDDBDC1B
:2021400099DC57DC15DCD3DB91DB50DB0EDBCCDA8ADA48DA06DAC4D982D940D9FED8BCD831
:202160007AD838D8F6D7B4D772D730D7EED6ACD66AD628D6E6D5A4D562D520D5DED49CD44F
:202180005AD418D4D6D394D352D310D3CED28CD24AD208D2C6D185D143D101D1BFD07DD06A
:2021A0003BD0F9CFB7CF75CF33CFF1CEAFCE6DCE2BCEE9CDA7CD65CD23CDE1CC9FCC5DCC83
:2021C0001BCCD9CB97CB55CB13CBD1CA8FCA4DCA0BCAC9C987C945C903C9C1C87FC83DC8A3
:2021E000FCC7BAC778C736C7F4C6B2C670C62EC6ECC5AAC568C526C5E4C4A2C460C41EC4B7
:20220000DCC39AC358C316C3D4C292C250C20EC2CCC18AC148C106C1C4C082C040C0FEBFD7
:20222000BCBF7ABF38BFF6BEB4BE72BE31BEEFBDADBD6BBD29BDE7BCA5BC63BC21BCDFBBF0
:202240009DBB5BBB19BBD7BA95BA53BA11BACFB98DB94BB909B9C7B885B843B801B8BFB70A
:202260007DB73BB7F9B6B7B675B633B6F1B5AFB56DB52BB5E9B4A8B466B424B4E2B3A0B329
:202280005EB31CB3DAB298B256B214B2D2B190B14EB10CB1CAB088B046B004B0C2AF80AF3E
:2022A0003EAFFCAEBAAE78AE36AEF4ADB2AD70AD2EADECACAAAC68AC26ACE4ABA2AB60AB62
:2022C0001EABDDAA9BAA59AA17AAD5A993A951A90FA9CDA88BA849A807A8C5A783A741A773
:2022E000FFA6BDA67BA639A6F7A5B5A573A531A5EFA4ADA46BA429A4E7A3A5A363A321A396
:20230000DFA29DA25BA219A2D7A195A153A112A1D0A08EA04CA00AA0C89F869F449F029FAC
:20232000C09E7E9E3C9EFA9DB89D769D349DF29CB09C6E9C2C9CEA9BA89B669B249BE29AC9
:20234000A09A5E9A1C9ADA99989956991499D29890984E980C98CA97899747970597C396E5
:2023600081963F96FD95BB9579953795F594B39471942F94ED93AB9369932793E592A392FD
:2023800061921F92DD919B9159911791D590939051900F90CD8F8B8F498F078FC58E838E1D
:2023A000418EFF8DBE8D7C8D3A8DF88CB68C748C328CF08BAE8B6C8B2A8BE88AA68A648A33
:2023C000228AE0899E895C891A89D888968854881288D0878E874C870A87C8868686448651
:2023E0000286C0857E853C85FA84B88476843484F383B1836F832D83EB82A982678225826C
:20240000E381A1815F811D81DB80998057801580D37F917F4F7F0D7FCB7E897E477E057E84
:20242000C37D817D3F7DFD7CBB7C797C377CF57BB37B717B2F7BED7AAB7A6A7A287AE679A5
:20244000A47962792079DE789C785A781878D677947752771077CE768C764A760876C675B8
:20246000847542750075BE747C743A74F873B67374733273F072AE726C722A72E871A671DB
:2024800064712271E0709F705D701B70D96F976F556F136FD16E8F6E4D6E0B6EC96D876DEF
:2024A000456D036DC16C7F6C3D6CFB6BB96B776B356BF36AB16A6F6A2D6AEB69A96967690F
:2024C0002569E368A1685F681D68DB67996757671667D466926650660E66CC658A65486528
:2024E0000665C46482644064FE63BC637A633863F662B46272623062EE61AC616A61286143
:20250000E660A46062602060DE5F9C5F5A5F185FD65E945E525E105ECE5D8C5D4B5D095D61
:20252000C75C855C435C015CBF5B7D5B3B5BF95AB75A755A335AF159AF596D592B59E95876
:20254000A75865582358E1579F575D571B57D956975655561356D1558F554D550B55C95497
:20256000875445540354C15380533E53FC52BA5278523652F451B25170512E51EC50AA50AE
:2025800068502650E44FA24F604F1E4FDC4E9A4E584E164ED44D924D504D0E4DCC4C8A4CCB
:2025A000484C064CC44B824B404BFE4ABC4A7A4A384AF749B54973493149EF48AD486B48E7
:2025C0002948E747A54763472147DF469D465B461946D745954553451145CF448D444B44FF
:2025E0000944C743854343430143BF427D423B42F941B74175413341F140AF406D402C4020
:20260000EA3FA83F663F243FE23EA03E5E3E1C3EDA3D983D563D143DD23C903C4E3C0C3C32
:20262000CA3B883B463B043BC23A803A3E3AFC39BA3978393639F438B23870382E38EC3755
:20264000AA3768372637E436A23661361F36DD359B3559351735D534933451340F34CD336B
:202660008B3349330733C53283324132FF31BD317B313931F730B53073303130EF2FAD2F89
:202680006B2F292FE72EA52E632E212EDF2D9D2D5B2D192DD82C962C542C122CD02B8E2BA4
:2026A0004C2B0A2BC82A862A442A022AC0297E293C29FA28B82876283428F227B0276E27BC
:2026C0002C27EA26A82666262426E225A0255E251C25DA24982456241424D22390234E23DE
:2026E0000D23CB22892247220522C32181213F21FD20BB2079203720F51FB31F711F2F1FF0
:20270000ED1EAB1E691E271EE51DA31D611D1F1DDD1C9B1C591C171CD51B931B511B0F1B11
:20272000CD1A8B1A491A071AC519841942190019BE187C183A18F817B61774173217F01628
:20274000AE166C162A16E815A61564152215E0149E145C141A14D813961354131213D01245
:202760008E124C120A12C811861144110211C0107E103C10FA0FB90F770F350FF30EB10E62
:202780006F0E2D0EEB0DA90D670D250DE30CA10C5F0C1D0CDB0B990B570B150BD30A910A79
:2027A0004F0A0D0ACB09890947090509C30881083F08FD07BB0779073707F506B30671069B
:2027C0002F06EE05AC056A052805E604A40462042004DE039C035A031803D60294025202AE
:2027E0001002CE018C014A014A014A014A014A014A014A014A014A014A014A014A014A019C
:2028000000009909990999099909990999099909990999099909990999099909990999093A
:20282000990999099909990999099909990999099909990999099909990999099909990978
:20284000990999099909990999099909990999099909990999099909990999099909990958
:20286000990999099909990999099909990999099909990999099909990999099909990938
:202880009909990999099909990999099909990999099509890984097809720966096109F4
:2028A0005509500944093909340929092409190914090909040999089508900885088108EC
:2028C000760872086808630859085508510847084308380834083108270823081908150827
:2028E000110808080408000897079307900786078307790776077207690766076207590799
:2029000056075307490746074307400737073407310728072507220719071607130710072F
:2029200007070507020799069606930691068806850683068006770675067206700667068E
:202940006406620659065706540652064906470645064206400637063506330630062806AD
:202960002606230621061906170614061206100608060606030601069905970595059305C1
:2029800091058805860584058205800578057605740572057005680566056405620560058A
:2029A00058055605540552055005490547054505430541053905370535053405320530058F
:2029C000280526052505230521051905170516051405120510050905070505050405020559
:2029E00000059804970495049304920490048804870485048304820480047904770475049F
:202A0000740472047104690467046604640463046104600458045704550454045204500467
:202A20004904470446044404430441044004390437043604340433043104300428042704BB
:202A40002504240423042104200418041704150414041304110410040804070406040404E4
:202A60000304020400049903970396039503930392039103890388038703850384038303E9
:202A8000810380037903770376037503740372037103700368036703660365036303620304
:202AA0006103600358035703560354035303520351035003480347034603450343034203E7
:202AC0004103400338033703360335033403320331033003290328032603250324032303C1
:202AE00022032003190318031703160315031303120311031003090308030603050304038B
:202B00000303020301030003980297029602950294029302920291028902880287028602C9
:202B20008502840283028202800279027802770276027502740273027202710269026802F9
:202B4000670266026502640263026202610260025902580256025502540253025202510293
:202B6000500249024802470246024502440243024202400239023802370236023502340232
:202B80003302320231023002290228022702260225022402230222022102200219021802B1
:202BA00017021602150214021202110210020902080207020602050204020302020201023F
:202BC000000299019801970196019501940193019201910190018901880187018601850174
:202BE000840183018201810180017901780177017601750174017301720171017001690145
:202C00006801670166016501640163016301620161016001590158015701560155015401B6
:202C2000530152015101500149014801470146014501440143014201410140013901380120
:202C4000370136013501340133013201310130012901280128012701260125012401230196
:202C60002201210120011901180117011601150114011301120111011001090108010701FC
:202C8000060105010401030103010201010100019900980097009600950094009300920068
:202CA0009100900089008800870086008500840083008200810080008000790078007700DE
:202CC000760075007400730072007100700069006800670066006500640063006200610042
:202CE0006000590058005700560056005500540053005200510050004900480047004600B3
:202D0000450044004300420041004000390038003700360035003400330032003100300017
:202D200029002800270026002600250024002300220021002000190018001700160015008D
:202D40001400130012001100100009000800070006000500040003000200010000000100EB
:202D6000020003000400050006000700080009001000000000000000000000000000000017
:202D8000000000000000000000000000000000000000000000000000000000000000000033
:202DA000000000000000000000000000000000000000000000000000000000000000000013
:202DC0000000000000000000000000000000000000000000000000000000000000000000F3
:202DE0000000000000000000000000000000000000000000000000000000000000000000D3
:202E00000000000000000000000000000000000000000000000000000000000000000000B2
:202E2000000000000000000000000000000000000000000000000000000000000000000092
:202E4000000000000000000000000000000000000000000000000000000000000000000072
:202E6000000000000000000000000000000000000000000000000000000000000000000052
:202E8000000000000000000000000000000000000000000000000000000000000000000032
:202EA000000000000000000000000000000000000000000000000000000000000000000012
:202EC0000000000000000000000000000000000000000000000000000000000000000000F2
:202EE0000000000000000000000000000000000000000000000000000000000000000000D2
:202F00000000000000000000000000000000000000000000000000000000000000000000B1
:202F2000000000000000000000000000000000000000000000000000000000000000000091
:202F4000000000000000000000000000000000000000000000000000000000000000000071
:202F6000000000000000000000000000000000000000000000000000000000000000000051
:202F8000000000000000000000000000000000000000000000000000000000000000000031
:202FA000000000000000000000000000000000000000000000000000000000000000000011
:202FC0000000000000000000000000000000000000000000000000000000000000000000F1
:202FE0000000000000000000000000000000000000000000000000000000000000000000D1
:1700E200755700755800755900755A00755B00755400E4F555F556BF
:200C0D0012066CAF82C007120640AE82D0077407B55703020D5ABF0103EF8001E4FD600A7B
:200C2D00BE010775570075820022EF7021C007C006C005121AD4858255858356D005D006C5
:200C4D00D007C21E05577406B55703755700ED6016C007C006121AD4858255858356D0069F
:200C6D00D007C21E755700EE7013101F02800CC2AF7548007549EAD2AF8002D21FE5577040
:200C8D0003020D33301E67C007C006121AD4E5828583F0D006D007C39555FCE5F09556FD4E
:200CAD00C374C89CE49D4003020D5A05577406B557028022900003E0FD8557F005F0ED803B
:200CCD0002C313D5F0FB30E0E2121AD485825585835675820122C007C006121AD4858255C0
:200CED00858356D006D007C21E755700805FC007C006121AD4E5828583F0D006D007C39560
:200D0D0055FCE5F09556FDC374F49C74019D503DC007C006121AD4858255858356D006D065
:200D2D00077557008027C007C006121AD4E5828583F0D006D007C39555FCE5F09556FDC36A
:200D4D0074E89C74039D5005D21E020CB87582BFC007C006120923D006D007D291000000DE
:200D6D00A2919208D29200000000C292000000A2919209D29200000000C292000000A29128
:200D8D00920AD29200000000C292000000A291920BD29200000000C292000000A291920C99
:200DAD00D29200000000C292000000A291920DD29200000000C292000000A291920ED292AD
:200DCD0000000000C292000000A291920FD29200000000C292E521F54CD291000000A29149
:200DED009208D29200000000C292000000A2919209D29200000000C292000000A291920A3F
:200E0D00D29200000000C292000000A291920BD29200000000C292000000A291920CD29250
:200E2D0000000000C292000000A291920DD29200000000C292000000A291920ED292000090
:200E4D000000C292000000A291920FD29200000000C292AD218D4DD291000000A2919208CD
:200E6D00D29200000000C292000000A2919209D29200000000C292000000A291920AD292F4
:200E8D0000000000C292000000A291920BD29200000000C292000000A291920CD292000034
:200EAD000000C292000000A291920DD29200000000C292000000A291920ED2920000000010
:200ECD00C292000000A291920FD29200000000C292E521F54ED291000000A2919208D29248
:200EED0000000000C292000000A2919209D29200000000C292000000A291920AD2920000D8
:200F0D000000C292000000A291920BD29200000000C292000000A291920CD29200000000B3
:200F2D00C292000000A291920DD29200000000C292000000A291920ED29200000000C2923B
:200F4D00000000A291920FD29200000000C292E521F54FD291000000A2919208D29200001A
:200F6D000000C292000000A2919209D29200000000C292000000A291920AD2920000000057
:200F8D00C292000000A291920BD29200000000C292000000A291920CD29200000000C292DF
:200FAD00000000A291920DD29200000000C292000000A291920ED29200000000C29200000F
:200FCD0000A291920FD29200000000C292E521F550D291000000A2919208D2920000000099
:200FED00C292000000A2919209D29200000000C292000000A291920AD29200000000C29283
:20100D00000000A291920BD29200000000C292000000A291920CD29200000000C2920000B2
:20102D0000A291920DD29200000000C292000000A291920ED29200000000C292000000A2EC
:20104D0091920FD29200000000C292E521F551D291000000A2919208D29200000000C29265
:20106D00000000A2919209D29200000000C292000000A291920AD29200000000C292000056
:20108D0000A291920BD29200000000C292000000A291920CD29200000000C292000000A290
:2010AD0091920DD29200000000C292000000A291920ED29200000000C292000000A29192EB
:2010CD000FD29200000000C292E521F552C290EDB5540302117B900003E0FD20E003021190
:2010ED007B7D00BD07004003021178C006ED75F003A4FBACF02404FAEC3400FE8A828E83A6
:20110D00A3A3E0FE8551F005F0EE8002C313D5F0FBD00630E051C006EB2404FAEC3400FEB5
:20112D008A828E83A3A3E0D00630E03BEB2404F582EC3400F583E0FAB54E2CEB2404FBEC19
:20114D003400FC8B828C83A3E0FCB54D1A53AFFBE4F53BF53C43AF04C21FC2AF75480075DF
:20116D0049EAD2AF7557070D0210F0854D54E55724F85003021296E557240B83F582E557B0
:20118D00240C83F583E473A4E30361888D96A411111212121212117407B5571A75470FBFCE
:2011AD000114BE011175470053AFFBC2AFD295D2AFD21F755700854E82854D4A120777E588
:2011CD004C20E003021296747F5543F543747F5544F544021296854D82854C60120733E521
:2011ED004C20E003021296747F5543F543747F5544F544021296C2ADAE2BAF2CD2ADEE2EF9
:20120D00FEEF33FF8E8274282FF583E493FEA3E493FF90001DE0FD90001EE0FBE4FCFAEDE7
:20122D004204EA42038C608B618E828F83120BAEAE82AF838E048F05C374999C74099D5009
:20124D00047E997F098E828F83120838747F5543F5438035AE517F00EE24FFF560EF34FFEC
:20126D00F561900005121C67AE82AF83EE2400F582EF3431F5831206F8800E1207C5800925
:20128D008552607582201207337582012212066CAF82C007120640AE82D007E5586020BF36
:2012AD000110754700120A8175546075580075820022EF700A05587407B558037558017D0C
:2012CD0000EE6003BE02027D01E55824F95003021421E55875F003A49012E9730212FE0231
:2012ED0013130213130213670213670213C50213E6EE70020558EF700475820222903123A7
:20130D001206F80214217401B5581B8D60854E82C005120B9EAF82D005EFF54E24DC50038F
:20132D00754E007547037402B558178D60854D82120B9EE582FFF54D24A65003754D00758C
:20134D00470C854E82854D4A120777747F5543F543747F5544F5440214217403B5582A8D32
:20136D0060854F82C005120B9EAF82D005EFF54F24CE5003754F00900003E0235401FF609E
:20138D000575470C80037547037404B558258D60855082120B9EE582F55024ED50037550B3
:2013AD0000900003E0235401FF6005754703800375470C1207C5805C8D60855282120B9E0C
:2013CD00E582F5522466500375520075470F855260758220120733803B8D60855182120B2C
:2013ED009EE582F55124F8500375510175470FAE517F00EE24FFF560EF34FFF561900005A3
:20140D00121C67AE82AF83EE2400F582EF3431F5831206F87582012212066CAF82C00712BB
:20142D000640AE82D0077D00EE6003BE02027D01E4B5590280077401B5596D8019EF7004DD
:20144D0075820222EE70060559758201229031281206F802177EBF0110755900120B3412F7
:20146D000ADB75546075820022EE7008900003E06401FCF0900003E030E00C90312DC007CA
:20148D001206F8D007800A903132C0071206F8D007747F5543F543747F5544F544EF600353
:2014AD0002177E055902177EE55A24F6500302177EE55A240B83F582E55A240E83F583E498
:2014CD0073E28787BCBCBCBCBCBCBC14151516161616161616EF701205597409B5590280C4
:2014ED000302177E75590102177EEE7036C006E55924FE75F003A4FBACF02404FAEC340040
:20150D00FE74022AFAE43EFEEB2404FBEC3400FC8B828C83A3A3E0FC6304018A828E83EC2D
:20152D00F0D006BE0105055A02177EBF010A755A0075590075820022903041E493FE8E4258
:20154D00E55924FE90300093FE8E43E55924FE75F003A42404FC740035F0FE8C828E83A313
:20156D00A3E0FE74015EF582120812747F5543F543747F5544F54402177EEF7008055A750D
:20158D00470002177EBF0109755A0075470002177E7401B55A68E55924FE75F003A4FCAE73
:2015AD00F02404FAEE3400FBEC2404F582EE3400F583E0FE8D608E82C005C003C002120B88
:2015CD009EAE82D002D003D0058A828B83EEF0E55924FE75F003A42404F582740035F0F525
:2015ED0083E0FE24DC5014E55924FE75F003A42404F582740035F0F583E4F07547037402F4
:20160D00B55A72E55924FE75F003A4FCAEF02404FAEE3400FB0ABA00010BEC2404FCEE34F5
:20162D0000FE8C828E83A3E0FE8D608E82C003C002120B9EAE82D002D0038A828B83EEF0F5
:20164D00E55924FE75F003A42404FC740035F0FE8C828E83A3E0FE24A65017E55924FE75B0
:20166D00F003A42404FC740035F0FE8C828E83A3E4F075470CE55924FE75F003A4FCAEF0A7
:20168D002404F582EE3400F583E0FBEC2404FCEE3400FE8C828E83A3E0F54A8B821207777B
:2016AD00747F5543F543747F5544F54402177EAC5A7E00EC24FDF560EE34FFF5619000050C
:2016CD00C007C005121C67AC82AE83EC2400F582EE3431F5831206F8D005D007AE5A1E1E2B
:2016ED00E55924FE75F003A42404FB740035F0FC8B828C83A3A3E0FC8EF005F0EC8002C3D7
:20170D0013D5F0FBFE30E008747F5545F545800674804545F545ED6043AE5A1E1EE5592498
:20172D00FE75F003A4FDACF02404FAEC3400FB74022AFAE43BFBED2404FDEC3400FC8D82CB
:20174D008C83A3A3E0FD8EF005F07401800225E0D5F0FBFE62058A828B83EDF0EF700C054F
:20176D005A740AB55A0B755A018006BF0103755A007582012212066CAF82C007120640AEE6
:20178D0082D007E55B24F150030219E7E55B240B83F582E55B241383F583E473C7EB000055
:2017AD0065911A2E2E2E2E2E2E2E2E171718181818191919191919191919EF7013120B346A
:2017CD00120ADB121AD485825585835675820222EE7002055B9031371206F80219E7EF7007
:2017ED0003755B04EE7003755B0290313C1206F80219E7C21FBF0103755B01EE702F74024B
:20180D00B55B10C2ADAC29AD2AD2AD8C5C8D5D055B801AC2ADAC29AD2AD2AD855C2D855DAB
:20182D002E8C828D8312026A755B01D21F7402B55B139031461206F8C2AF75482C75490146
:20184D00D2AF0219E790314B1206F8C2AF7548007549EAD2AF0219E7EF7003755B06EE70ED
:20186D001A755B0590001DE0FD90001EE0FBE4FCFAED4204EA42038C5C8B5D903150120624
:20188D00F80219E7BF0111755B04AD5C90001DEDF0AD5D90001EEDF0EE6003BE0215756079
:2018AD0001756100855C82855D83120BAE85825C85835DAC5CAD5DC374409C74019D50055D
:2018CD00E4F55CF55DC2ADAC2BAD2CD2ADEC2CFCED33FD8C8274282DF583E493FCA3E493C9
:2018ED00FD855C60855D618C828D83120BAEAC82AD838C028D03C374999A74099B50047CA3
:20190D00997D098C828D831208380219E7EE7003755B07EF7002F55B9031551206F80219FF
:20192D00E7AC5B7D00740B2CF560E43DF561900005C007C006121C67AC82AD83EC2400F59E
:20194D0082ED3431F5831206F8D006D007740EB55B028047900003E0FDE55B24FAF5F0055E
:20196D00F0ED8002C313D5F0FB5401F582C007C006120812D006D007EE7040900003E0FD25
:20198D00E55B24FAF5F005F07401800225E0D5F0FBFC6205900003EDF08020900002E0FD64
:2019AD0074015DF582C007C006120812D006D007EE7008900002E06401FEF0747F5543F5C0
:1E19CD0043747F5544F544EF700A055B740FB55B03755B07BF0103755B06758201220B
:203300009A120D0C0D0C0D0C9A1225140D0C251482170D0C82170D0C010000000102000215
:0433200003000300A3
:20300000C0F9A4B0999282F880908883C6A1868EFFFFFFFFFFFFFFFFFFFFFFFFFFFFFFFF78
:20302000FFFFDDFFFFFFFFFDC6F0FFFFEFBFFFFFC0F9A4B0999282F88090FFFFFFFFFFFFA0
:20304000FF8883C6A1868EC289F9F1FFC7FFABC08C98AF9287C1FFFFFF91FFC6FFF0FFF7A1
:20306000DF8883A7A1848EC28BFBF1FFF9FFABA38C98AF9287E3FFFFFFFFFFFFFFFFFFFFC9
:20308000C0CFA4868B9290C780828198F08CB0B1FFFFFFFFFFFFFFFFFFFFFFFFFFFFFFFF1B
:2030A000FFFFEBFFFFFFFFEFF0C6FFFFFDBFFFFFC0CFA4868B9290C78082FFFFFFFFFFFFA5
:2030C000FF8198F08CB0B1D089CFCEFFF8FF9DC0A183BD92B8C8FFFFFF8AFFF0FFC6FFFE87
:2030E000FB8198BC8CA0B1D099DFCEFFCFFF9D9CA183BD92B8DCFFFFFFFFFFFFFFFFFFFF0A
:203100004E4F4E2000545545200055454420005448555200465249200053415420005355A4
:203120004E200053455443005345544100414C4F4E00414C4F4600434F4E46004C43414C37
:2031400000434C444E00434C4C4F00434C4849005443414C0044495350004E53202000547B
:203160005020200044552020004454202000595220200031322020004E442020005230200C
:0231800020002D
:0500F900E4F55EF55F77
:2019EB00C0E0C0D075D010AE5EAF5F74012EF55EE43FF55F74E7B5BC0BE4F5BEF5BD75BC7F
:201A0B00E675BCEE74E6B5BC0BE4F5BEF5BD75BCE775BCEFE53E25E0FFA2B1E4334FF53E4C
:201A2B00E53F25E0FFA2B0E4334FF53FAE3E5316877F00BE800EBF000BD2105322F1754019
:201A4B0000753E00AE3F5316877F00BE800EBF000BD21453221F754100753F00AE3E53161D
:201A6B00877F00BE071ABF001710130CE54024DF5004D2128002D211C210754000753EFF73
:201A8B00AE3F5316877F00BE071ABF001710170CE54124DF5004D2168002D215C21475419D
:201AAB0000753FFF30100DE54004FF8F40BF96004002D21330140DE54104FF8F41BF960009
:141ACB004002D217D0D0D0E032C2A9855E82855F83D2A92286
:091ADF0085829910990280FB2216
:0B1AE800A8811818C6B2E7C6021C84D3
:201AF300121B96BC0003021D15EF60FA30D502B2D1E583B4FF03021D2BE582B4FF03021DA6
:201B13002B258340072482400B021D152483145003021D2BF582EA8DF0A4A8F0EA8EF0A4F5
:201B330028F8E435F0F9EB8DF0A428E935F0F9E433CA8FF0A429F9EA35F0FAEBF88EF0A401
:201B530029F9EA35F0FAE433FBEC8DF0A429F9EA35F0FAE43BFBE88FF0A42AFAEB35F0FBA9
:201B7300E433CCFD8EF0A42AFAEB35F0FBE43CFCED8FF0A42BFBEC35F0FC20E703121C1971
:031B9300021CF43D
:201B9600AA82AB83A2F73392D1F5826002D2F7ACF0E58124F9F8E6FD08E6FE0886F008E6B2
:0E1BB600A2F73392D5F5836002D2F7AFF0228A
:06009A00E478FFF6D8FD3A
:201BC400AD82AE83AFF08D658E668F6785606885616985626AA863A9648803890418B8FF3A
:201BE4000119EB4C6025856882856983856AF0121E20FCA38582688583698D828E838FF0DE
:151C0400EC121C4CA3AD82AE8380CE8565828566838567F0223C
:201C19007804EC7011E58224F8500AF582E4C9CACBFCD8EF22EC7820058220E713D58201CA
:131C390022C3E933F9EA33FAEB33FBEC33FCD8EA158222D8
:200078007900E94400601B7A00901ED0780175A000E493F2A308B8000205A0D9F4DAF27540
:02009800A0FFC7
:1B1C4C0020F71130F6138883A88220F509F6A8837583002280FEF280F5F02297
:1D1C6700E5828560F0A4C582C0F08561F0A4D0F025F0C5838560F0A42583F5832237
:201C8400121B967900E583B58202800D5003121D43E583C39582121E4FE5D0C465D020E1A1
:201CA40017EA2DFAEB3EFBEC3FFC50097401121E4FEC4480FC021CF4C3EA9DFAEB9EFBECEE
:191CC4009FFC500FC3E499F9E49AFAE49BFBE49CFCB2D1121C19021CF48A
:2000A0007800E84400600A790175A000E4F309D8FC7800E84400600C7900900001E4F0A35E
:0400C000D8FCD9FA95
:0C1CDD00E4AC83AB82FAF9748E021E4561
:0B1CE9007F8E121E98F58385F082228A
:02006900E4733E
:201CF400B98003EA13B34010EA2401FAE43BFBE43CFC50047C800582BC000EBB000BBA0034
:201D140008E4F5F0F583F58222A2D1E582138CF092F78B838A8222E4F583F58275F080F4F3
:0F1D3400A2D11322E4F583F58275F0C0747F22EB
:1A1D4300E582C583F582A2D133A2D592D11392D5ECCFFCEBCEFBEACDFA2228
:201D5D00121B9630D502B2D1BF0009BC0003021D38021D2BBC0003021D15E583B4FF0BE5F3
:201D7D0082B4FF03021D38021D15E582B4FF03021D2BC395835007247F400B021D15248024
:201D9D00145003021D2BF582C3ED9AEE9BEF9C40111582C3EA33F9EB33FAEC33FBE433FC9A
:201DBD008005E4CCCBCAF9C08275F019C3E99DEA9EEB9FEC9400D5F002802D400EE99DF967
:201DDD00EA9EFAEB9FFBEC9400FCC3B3E833F8E58233F582E58333F583C3E933F9EA33FAC7
:201DFD00EB33FBEC33FC80C4B3E4F938FAE43582FBE43583FCD082500405827C80121C19EE
:031E1D00021D0C97
:0D006B0075816A121E92E582600302006634
:1C1E200020F71430F6148883A88220F507E6A88375830022E280F7E49322E022D1
:131E3C00FCABF0AA83A982749EC2D1F582121C19021CF42F
:201E4F006040F82582500274FFF582E824F8501ECCCBCAF9E4CC24F85014CBCAF9E4CB249B
:201E6F00F8500BCAF9E4CA24F8500379002224086010F8C3EC13FCEB13FBEA13FAE913F94E
:031E8F00D8F12265
:041E92007582002233
:201E96007F9E121EBD30D103021D15C3EF9582500974FFF5F0F583F582227900121E4F89DE
:071EB600828A838BF0EC220D
:121EBD00AA82AB83A2F73392D1F5826002D2F7ACF0222A
:00000001FF
