:0400000002006B325D
:03000B00021DF5DE
:0100130032BA
:01001B0032B2
:0100230032AA
:03002B000202EDE1
:01003300329A
:03003B0002068E2C
:01004300328A
:01004B003282
:01005300327A
:01005B003272
:0300630002038D08
:03010E0002006686
:0300660002011183
:200111007F007D667E0953AFFB538EE275D72A75D610438E10C2954391C0439DC075BC8037
:20013100439720E4F5BEF5BDD2AD000000000000000075BCE6758900758A00758CB8758822
:2001510000538E7FD2A9D28C7595FF7596FF75D909E4F5D8F5E9F5F98539EA853AFA75DABE
:2001710049D2DED2BFD2AF8536A053B0DFD21F752F00753000752200753100753200C2A99D
:20019100855622855723D2A9E556C39522FAE5579523FCC3EA94C8EC940040ECD295539039
:2001B100F8439102439207C007C006C0051206FE12084612088EE582D005D006D0076028A3
:2001D100C007C006C00512047FAC82D005D006D007BC0223C007C006C005120453AC82D0DD
:2001F10005D006D007BC020FC007C006C0051208E8D005D006D007900019E06009900019FE
:20021100E0FC24F55004D21F8039C21FC2AF900019E0FC7B001CBCFF011B8C588B59901924
:20023100DEC007C006C005121F82E5828583F0D005D006D007242CFB740135F0FC8B398CB8
:200251003AD2AF7C008C027B008A828B83E0600B8C82758300E0FB24FC50088C8275830089
:200271007401F00CBC050040DC752C01C21EC007C006C0058D828E83120069858221D005B3
:20029100D006D007EF75F006A42400FA743335F0FBE52125212AF582E43BF583E493FDA322
:2002B100E493FEEF75F003A42418FB743335F0FCE5212BF582E43CF583E493FFC2A98556C2
:1C02D10024855725D2A9E556C39524FAE5579525FCC3EA940AEC940040EC8092C5
:2020000000EA00EA00EA00EA00EA00EA00EA00EA00EA00EA00EA00EA00EA00EA00EA00EA20
:2020200000EA00EA00EA00EA00EA00EA00EA00EA00EA00EA00EA00EA00EA00EA00EA00EA00
:2020400000EA00EA00EA00EA00EA00EA00EA00EA00EA00EA00EA00EA00EA00EA00EA00EAE0
:2020600000EA00EA00EA00EA00EA00EA00EA7CE9F8E874E8F0E76CE7E8E664E6E0E55CE511
:20208000D9E455E4D1E34DE3C9E245E2C1E13DE1B9E035E0B1DF2DDFA9DE25DEA1DD1DDD88
:2020A00099DC15DC91DB0EDB8ADA06DA82D9FED87AD8F6D772D7EED66AD6E6D562D5DED4E0
:2020C0005AD4D6D352D3CED24AD2C6D143D1BFD03BD0B7CF33CFAFCE2BCEA7CD23CD9FCC36
:2020E0001BCC97CB13CB8FCA0BCA87C903C97FC8FCC778C7F4C670C6ECC568C5E4C460C48C
:20210000DCC358C3D4C250C2CCC148C1C4C040C0BCBF38BFB4BE31BEADBD29BDA5BC21BCE2
:202120009DBB19BB95BA11BA8DB909B985B801B87DB7F9B675B6F1B56DB5E9B466B4E2B339
:202140005EB3DAB256B2D2B14EB1CAB046B0C2AF3EAFBAAE36AEB2AD2EADAAAC26ACA2AB8F
:202160001EAB9BAA17AA93A90FA98BA807A883A7FFA67BA6F7A573A5EFA46BA4E7A363A3E4
:20218000DFA25BA2D7A153A1D0A04CA0C89F449FC09E3C9EB89D349DB09C2C9CA89B249B3B
:2021A000A09A1C9A9899149990980C98899705978196FD957995F5947194ED936993E59291
:2021C0006192DD915991D5905190CD8F498FC58E418EBE8D3A8DB68C328CAE8B2A8BA68AE8
:2021E000228A9E891A89968812888E870A87868602867E85FA847684F3836F83EB8267823E
:20220000E3815F81DB805780D37F4F7FCB7E477EC37D3F7DBB7C377CB37B2F7BAB7A287A95
:20222000A47920799C781878947710778C760876847500757C74F8737473F0726C72E871E9
:202240006471E0705D70D96F556FD16E4D6EC96D456DC16C3D6CB96B356BB16A2D6AA96940
:202260002569A1681D689967166792660E668A6506658264FE637A63F6627262EE616A6195
:20228000E6606260DE5F5A5FD65E525ECE5D4B5DC75C435CBF5B3B5BB75A335AAF592B59ED
:2022A000A75823589F571B57975613568F550B55875403548053FC527852F4517051EC5043
:2022C0006850E44F604FDC4E584ED44D504DCC4C484CC44B404BBC4A384AB5493149AD489B
:2022E0002948A54721479D461946954511458D440944854301437D42F9417541F1406D40F0
:20230000EA3F663FE23E5E3EDA3D563DD23C4E3CCA3B463BC23A3E3ABA393639B2382E3845
:20232000AA372637A2361F369B35173593340F348B3307338332FF317B31F7307330EF2F9B
:202340006B2FE72E632EDF2D5B2DD82C542CD02B4C2BC82A442AC0293C29B8283428B027F2
:202360002C27A8262426A0251C259824142490230D23892205228121FD207920F51F711F47
:20238000ED1E691EE51D611DDD1C591CD51B511BCD1A491AC5194219BE183A18B6173217A0
:2023A000AE162A16A61522159E141A14961312138E120A12861102117E10FA0F770FF30EF5
:2023C0006F0EEB0D670DE30C5F0CDB0B570BD30A4F0ACB094709C3083F08BB073707B3064D
:2023E0002F06AC052805A40420049C031803940210028C014A014A014A014A014A014A014D
:2028000000009909990999099909990999099909990999099909990999099909990999093A
:20282000990999099909990999099909990999099909990999099909990999099909990978
:20284000990999099909990999099909990999099909990999099909990999099909990958
:20286000990999099909990999099909990999099909990999099909990999099909990938
:202880009909990999099909990999099909990999099509890984097809720966096109F4
:2028A0005509500944093909340929092409190914090909040999089508900885088108EC
:2028C000760872086808630859085508510847084308380834083108270823081908150827
:2028E000110808080408000897079307900786078307790776077207690766076207590799
:2029000056075307490746074307400737073407310728072507220719071607130710072F
:2029200007070507020799069606930691068806850683068006770675067206700667068E
:202940006406620659065706540652064906470645064206400637063506330630062806AD
:202960002606230621061906170614061206100608060606030601069905970595059305C1
:2029800091058805860584058205800578057605740572057005680566056405620560058A
:2029A00058055605540552055005490547054505430541053905370535053405320530058F
:2029C000280526052505230521051905170516051405120510050905070505050405020559
:2029E00000059804970495049304920490048804870485048304820480047904770475049F
:202A0000740472047104690467046604640463046104600458045704550454045204500467
:202A20004904470446044404430441044004390437043604340433043104300428042704BB
:202A40002504240423042104200418041704150414041304110410040804070406040404E4
:202A60000304020400049903970396039503930392039103890388038703850384038303E9
:202A8000810380037903770376037503740372037103700368036703660365036303620304
:202AA0006103600358035703560354035303520351035003480347034603450343034203E7
:202AC0004103400338033703360335033403320331033003290328032603250324032303C1
:202AE00022032003190318031703160315031303120311031003090308030603050304038B
:202B00000303020301030003980297029602950294029302920291028902880287028602C9
:202B20008502840283028202800279027802770276027502740273027202710269026802F9
:202B4000670266026502640263026202610260025902580256025502540253025202510293
:202B6000500249024802470246024502440243024202400239023802370236023502340232
:202B80003302320231023002290228022702260225022402230222022102200219021802B1
:202BA00017021602150214021202110210020902080207020602050204020302020201023F
:202BC000000299019801970196019501940193019201910190018901880187018601850174
:202BE000840183018201810180017901780177017601750174017301720171017001690145
:202C00006801670166016501640163016301620161016001590158015701560155015401B6
:202C2000530152015101500149014801470146014501440143014201410140013901380120
:202C4000370136013501340133013201310130012901280128012701260125012401230196
:202C60002201210120011901180117011601150114011301120111011001090108010701FC
:202C8000060105010401030103010201010100019900980097009600950094009300920068
:202CA0009100900089008800870086008500840083008200810080008000790078007700DE
:202CC000760075007400730072007100700069006800670066006500640063006200610042
:202CE0006000590058005700560056005500540053005200510050004900480047004600B3
:202D0000450044004300420041004000390038003700360035003400330032003100300017
:202D200029002800270026002600250024002300220021002000190018001700160015008D
:202D40001400130012001100100009000800070006000500040003000200010000000100EB
:202D6000020003000400050006000700080009001000000000000000000000000000000017
:202D8000000000000000000000000000000000000000000000000000000000000000000033
:202DA000000000000000000000000000000000000000000000000000000000000000000013
:202DC0000000000000000000000000000000000000000000000000000000000000000000F3
:202DE0000000000000000000000000000000000000000000000000000000000000000000D3
:202E00000000000000000000000000000000000000000000000000000000000000000000B2
:202E2000000000000000000000000000000000000000000000000000000000000000000092
:202E4000000000000000000000000000000000000000000000000000000000000000000072
:202E6000000000000000000000000000000000000000000000000000000000000000000052
:202E8000000000000000000000000000000000000000000000000000000000000000000032
:202EA000000000000000000000000000000000000000000000000000000000000000000012
:202EC0000000000000000000000000000000000000000000000000000000000000000000F2
:202EE0000000000000000000000000000000000000000000000000000000000000000000D2
:202F00000000000000000000000000000000000000000000000000000000000000000000B1
:202F2000000000000000000000000000000000000000000000000000000000000000000091
:202F4000000000000000000000000000000000000000000000000000000000000000000071
:202F6000000000000000000000000000000000000000000000000000000000000000000051
:202F8000000000000000000000000000000000000000000000000000000000000000000031
:202FA000000000000000000000000000000000000000000000000000000000000000000011
:202FC0000000000000000000000000000000000000000000000000000000000000000000F1
:202FE0000000000000000000000000000000000000000000000000000000000000000000D1
:2002ED00C0E0C082C083C0D075D01863BC1074E7B5BC0985BE2885BD2902038485BE26858E
:20030D00BD27301F72AE26E527C313CE13CEFFEE2EFEEF33FF8E8274202FF583E493FEA329
:20032D00E493FFC3E5399EE53A9F5022EEC39539FCEF953AA2E7CC33CC33A2E7CC33CC3344
:20034D00CC5403FDEC2539FCED353AFD8021E539C39EFEE53A9FA2E7CE33CE33A2E7CE33E0
:20036D00CE33CE5403FFE539C39EFCE53A9FFDC2BF8C398D3AD2BFD0D0D083D082D0E03250
:0900C400752D0F752E00752C013D
:20038D00C0E0C007C006C0D075D000AE2AAF2BC3EE9428EF9423400BD295D52D03752D0F21
:2003AD0002044AAF2CBF02028005BF0359802474F1252E5013C3E52E94149200400674DD3C
:2003CD00252E5004C2008002D200A200E433FF7E69803D74F1252E5022C3E52E94149200BD
:2003ED00400674DD252E5013C3E52E94289200400674C9252E5004C2008002D200A200E4B9
:20040D0033FF7E69800AC3E52E940FE433FF7E69EF600AE52D24F85004C2958002D295D5C6
:20042D002D03752D0F052EC3E52E9E4003752E00AE2AAF2B74012EF52AE43FF52BD0D0D01A
:06044D0006D007D0E032EA
:20045300C2A9E522C4035407FF7006D2A975820322301706D2A97582022210150280047FDC
:20047300008004C2167F01D2A98F8222C2A9E522540E60028006D2A975820322301306D271
:17049300A97582022210110280047F008004C2127F01D2A98F8222E2
:2004AA0085825985835A85F05B7BFF7CFF7A00C3EA95585047EA2559F8E4355AF9AF5B88A2
:2004CA008289838FF0122400FF78008B058C06ED6200EE620788038F047F08EC30E712EBEB
:2004EA002BFDEC33FE6305216306108D038E048006EB2BFBEC33FCDFE20A80B38B828C83BD
:01050A0022CE
:1B00CD00753C10753300753400753500753600753703753800753900753AFFF9
:20050B00AE82AF83E49390300093FD8E828F83A3E49390300093FC8E828F83A3A3E49390AD
:20052B00308093FB8E828F83A3A3A3E49390300093FFC2AF8D338C348B358F36D2AF22E5A0
:20054B0082FFC4540F90300093FE53070F7D00EF2400F582ED3430F583E493FFE558C45493
:20056B000F90308093FDAB5853030F7C00EB2400F582EC3430F583E493FCC2AF8E338F34F7
:20058B008D358C36D2AF22AF82900003E02323540160208F82C007120924D007853B58C0A4
:2005AB000712054AD007BF12004010747F5536F5368008853B588F8212054A900002E0FFA4
:2005CB0030E011903030E493FFB53308903020E493FF8F3322900003E0235401600B854143
:2005EB008285405812054A800985408285415812054A747F5534F53422E58260119030CF73
:20060B00E493FF8F3590304EE493FF8F36229030CFE493FF8F35903046E493FF8F3622AE50
:20062B0082AF838F0553050F7C00ED2400F582EC3430F583E493FD8E03EFC4CBC4540F6B1F
:20064B00CB540FCB6BCB53030F7C00EB2400F582EC3430F583E493FC53060F7F00EE248045
:20066B00F582EF3430F583E493FF903043E493FEC2AF8D338C348F358E36D2AF747F5534C9
:20068B00F53422C0E0C0F0C0D075D00810DF02803DAF39740F5FF5EA853AFAE5372433F95B
:2006AB0087A074F8253C40118537F005F0E5388002C313D5F0FB20E033AF378FF005F07413
:2006CB0004800225E0D5F0FBF4FF52B0801E10D802801943B03CE537700DAF3C153CEF704B
:1306EB0003753C10753704E53714F537D0D0D0F0D0E032EA
:2006FE00C291C292C290000000000000000000000000000000000000000022C291D290000C
:20071E00000000000000000000000000000000000000000207B2D291000000A2919208D2FE
:20073E009200000000C292000000A2919209D29200000000C292000000A291920AD29200FC
:20075E00000000C292000000A291920BD29200000000C292000000A291920CD2920000006A
:20077E0000C292000000A291920DD29200000000C292000000A291920ED29200000000C284
:20079E0092000000A291920FD29200000000C29285218222858221A2089291D2920000007A
:2007BE0000C292A2099291D29200000000C292A20A9291D29200000000C292A20B9291D218
:2007DE009200000000C292A20C9291D29200000000C292A20D9291D29200000000C292A260
:2007FE000E9291D29200000000C292A20F9291D29200000000C2922275828E120719758296
:20081E00001207B2C2901206FE7582BE1207197F0090248EE4932FF98782C0071207B2D0D5
:20083E00070FBF08ECC290227582FF1207197F008F057E00C007C006C005120734AC82D007
:20085E0005D006D0078D828E83ECF00FBF1FE1C290227582FE1207197F008F82758300E0FB
:20087E00F582C0071207B2D0070FBF1FEDC29022900000E0FF900001E0FDE4FEFCEF42063A
:20089E00EC420575581D90000275F000C006C0051204AAAC82AF83D005D006ECB50608EF32
:2008BE00B50504758201227582002275581D90000275F0001204AAAE82AF838E0590000003
:2008DE00EDF08F06900001EEF022755800755932755A80755B08755C0090003D75F04012AE
:2008FE001F12755808755932755A80755B1F755C0090000075F000121F121208C91208167A
:20091E001206FE020870E582FF700475821222EF24ED50087558888F8202093D8F8222C02B
:20093E00E0C0D0E5822558D4F582D0D0D0E022C0E0C0D0C2D7E5822558D4F582E58335599A
:08095E00D4F583D0D0D0E022D3
:01248E003D10
:20320000001110290706260000000000000000000000000000000000000000000000000031
:073220000000010000700036
:2000E800754D00754F00755000755100755300754500E4F546F547F548F549F54AF54BF51B
:010108004CAA
:2009660012047F85824E120453AE827401B54D26EE7017E54C700E121EDE85824A85834B7B
:20098600754C018003754C007E03BE0109E4F548F549F54C7E037407B54D03020B0D7401D2
:2009A600B54E0474018001E4FD600ABE0107754D0075820022E54E701DC006C005121EDEEF
:2009C600858246858347D005D006C21E054D7406B54D03754D00ED6012C006121EDE85821D
:2009E60046858347D006C21E754D00EE7012C006121EDE858246858347D006C21E754D028A
:200A0600E54D7003020AB0301E6A7401B54D05C21E020B0DC006121EDEE5828583F0D00638
:200A2600C39546FCE5F09547FDC374C89CE49D4003020B0D054D7406B54D028022900003EA
:200A4600E0FD854DF005F0ED8002C313D5F0FB30E0E2121EDE85824685834775820122C081
:200A660006121EDE858246858347D006C21E754D00020B0DC006121EDEE5828583F0D00625
:200A8600C39546FCE5F09547FDC374649CE49D50767401B54D02806FC006121EDE85824601
:200AA600858347D006754D00805DC006121EDEE5828583F0D006C39546FCE5F09547FDC358
:200AC60074E89C74039D503FD21E054D7406B54D028022900003E0FD854DF005F0ED80027D
:200AE600C313D5F0FB30E0E2121EDE85824685834775820122C006121EDE85824685834734
:200B0600D006C21E754D007582BFC006120719D006D291000000A2919208D292000000003F
:200B2600C292000000A2919209D29200000000C292000000A291920AD29200000000C2924E
:200B4600000000A291920BD29200000000C292000000A291920CD29200000000C29200007E
:200B660000A291920DD29200000000C292000000A291920ED29200000000C292000000A2B8
:200B860091920FD29200000000C292E521F53DD291000000A2919208D29200000000C29245
:200BA600000000A2919209D29200000000C292000000A291920AD29200000000C292000022
:200BC60000A291920BD29200000000C292000000A291920CD29200000000C292000000A25C
:200BE60091920DD29200000000C292000000A291920ED29200000000C292000000A29192B7
:200C06000FD29200000000C292AD218D3ED291000000A2919208D29200000000C292000086
:200C260000A2919209D29200000000C292000000A291920AD29200000000C292000000A2FF
:200C460091920BD29200000000C292000000A291920CD29200000000C292000000A291925A
:200C66000DD29200000000C292000000A291920ED29200000000C292000000A291920FD278
:200C86009200000000C292E521F53FD291000000A2919208D29200000000C292000000A2A4
:200CA600919209D29200000000C292000000A291920AD29200000000C292000000A29192FE
:200CC6000BD29200000000C292000000A291920CD29200000000C292000000A291920DD21E
:200CE6009200000000C292000000A291920ED29200000000C292000000A291920FD2920045
:200D0600000000C292E521F540D291000000A2919208D29200000000C292000000A2919291
:200D260009D29200000000C292000000A291920AD29200000000C292000000A291920BD2C3
:200D46009200000000C292000000A291920CD29200000000C292000000A291920DD29200E8
:200D6600000000C292000000A291920ED29200000000C292000000A291920FD29200000056
:200D860000C292E521F541D291000000A2919208D29200000000C292000000A2919209D235
:200DA6009200000000C292000000A291920AD29200000000C292000000A291920BD292008C
:200DC600000000C292000000A291920CD29200000000C292000000A291920DD292000000FA
:200DE60000C292000000A291920ED29200000000C292000000A291920FD29200000000C214
:200E060092E521F542D291000000A2919208D29200000000C292000000A2919209D29200E3
:200E2600000000C292000000A291920AD29200000000C292000000A291920BD2920000009D
:200E460000C292000000A291920CD29200000000C292000000A291920DD29200000000C2B7
:200E660092000000A291920ED29200000000C292000000A291920FD29200000000C292E5DE
:200E860021F543C290EDB54503020F347D00BD05004003020F31ED75F003A4FBACF02404F6
:200EA600FAEC3400FF8A828F83A3A3E0FF8542F005F0EF8002C313D5F0FB30E06AEB240490
:200EC600FAEC3400FF8A828F83A3A3E0FF30E057EB2404F582EC3400F583E0FFB53F48EB21
:200EE6002404FBEC3400FC8B828C83A3E0FFB53E368D047F008C828F83E0600B8D82758364
:200F060000E0FC7F0080047C017F008C2C53AFFBE4F52AF52B43AF04C21FC2AF75390075AD
:200F26003AEAD2AF754D070D020E94853E45E54D24F850030211C2E54D240B83F582E54D81
:200F4600240C83F583E4735DFC1A78B4B9C25D0F0F11111111110F7407B54D1E75380F7445
:200F660003B54E05BE0302801175380053AFFBC2AFD295D2AFD21F754D00853F82853E3B12
:200F8600120592E53D30E00C747F5534F534747F5535F535E54D60030211C27F007E00EEC3
:200FA60075F003A4FCADF02404FAED3400FB8A828B83A3A3E0FB30E022EC2404FCED3400AA
:200FC600FD8C828D83A3A3E0FD8542F005F0ED8002C313D5F0FB30E0027F010EBE05004079
:200FE600BEEF6009747F5536F5360211C274804536F5360211C2E54C6045121EDEE5828518
:2010060083F0C3954AFEE5F0954BFFC3EE9464EF9400402BAE4AAF4B74642EFEE43FFF8EC6
:201026004A8F4B0548E4B548020549AE48AF49C3EE9410EF940E4007E4F548F549F54CAE9F
:2010460048AF4975583C7559008E828F83C007C006121EE9AC82D006D00775583C755900F9
:201066008E828F83C004121F9FAE82D0047F0075580A8F598C828F83C007C006C0041224CB
:2010860052AB82D004D006D007EBC454F0FB75580A7559008C828F83C006C00312241CAD0F
:2010A60082D003D006ED42038E057F0075580A8F598D828F83C007C006C005C0031224523E
:2010C600AA82D003D005D006D007EAC454F0FA75580A7559008D828F83C006C003C002127A
:2010E600241CAD82D002D003D006ED4AF5588B82C00612054AD006E54C70030211C2EE20EB
:20110600E0030211C2747F5534F534747F5535F5350211C2C2ADAE28AF29D2ADEE2EFEEF4B
:2011260033FF8E8274282FF583E493FEA3E493FF90001DE0FD90001EE0FBE4FCFAED420476
:20114600EA42038C588B598E828F8312094DAE82AF838E048F05C374999C74099D50047E28
:20116600997F098E828F8312062A747F5534F534804A90001AE0600DAE427F00741B2EFE54
:20118600E43FFF800CAC427D00EC24FFFEED34FFFF8E588F59900005121F82AE82AF83EE9E
:2011A6002400F582EF3431F58312050B800E1205E0800985435875822012054A75820122E0
:2011C60012047FAF82C007120453AE82D007E54F6020BF0110753800120816754560754FCD
:2011E6000075820022EF700A054F7407B54F03754F017D00EE6003BE02027D01E54F24F96D
:201206005003021362E54F75F003A49012157302122A02123F02123F02129302129302124E
:20122600F1021312EE7002054FEF70047582022290312312050B0213627401B54F1B853F89
:20124600828D58C00512093DAF82D005EFF53F24DC5003753F007538037402B54F17853ED0
:20126600828D5812093DE582FFF53E24A65003753E0075380C853F82853E3B120592747FA7
:201286005534F534747F5535F5350213627403B54F2A8540828D58C00512093DAF82D00584
:2012A600EFF54024CE5003754000900003E0235401FF600575380C80037538037404B54F53
:2012C600258541828D5812093DE582F54124ED5003754100900003E0235401FF60057538AB
:2012E60003800375380C1205E080718543828D5812093DE582F54324665003754300753859
:201306000F85435875822012054A80508542828D5812093DE582F54224F850037542017590
:20132600380F90001AE0600DAE427F00741B2EFEE43FFF800CAC427D00EC24FFFEED34FFF9
:20134600FF8E588F59900005121F82AE82AF83EE2400F582EF3431F58312050B758201227F
:2013660012047FAF82C007120453858252D0077D00E55260057402B552027D01E4B5501D25
:20138600EF700475820222E5527009755001F5517582012290312812050B021AFFE5512473
:2013A600F35003021AFFE551240B83F582E551241183F583E473D6B1BDD76A6A6A6A6A6A13
:2013C6006A75E513141516171717171717171819BF01167551007538007550001208C9121C
:2013E600087075456075820022EF701205507406B550028003021AFF755001021AFFE5523F
:201406007048AC501CC2D575F003EC30E704B2D5F404A430D50AF42401C5F0F43400C5F013
:20142600FCABF02404FAEB3400FE74022AFAE43EFEEC2404FCEB3400FB8C828B83A3A3E0AA
:20144600FC6304018A828E83ECF07401B55206755101021AFF903041E493FE8E33E55090C9
:20146600300093FE8E34AE501EC2D575F003EE30E704B2D5F404A430D50AF42401C5F0F4CB
:201486003400C5F02404FC740035F0FE8C828E83A3A3E0FE74015EF582120604747F55347D
:2014A600F534747F5535F535021AFFBF0109753800755100021AFFEF7008F5387551020286
:2014C6001AFFAE501EC2D575F003EE30E704B2D5F404A430D50AF42401C5F0F43400C5F0EC
:2014E600FEACF02404FAEC3400FBEE2404F582EC3400F583E0FE8D588E82C003C002120977
:201506003DAE82D002D0038A828B83EEF0E550FE14FCC2D575F003EC30E704B2D5F404A44F
:2015260030D50AF42401C5F0F43400C5F02404F582740035F0F583E024DC502AEE14FCC221
:20154600D575F003EC30E704B2D5F404A430D50AF42401C5F0F43400C5F02404F582740051
:2015660035F0F583E4F07538031EC2D575F003EE30E704B2D5F404A430D50AF42401C5F01E
:20158600F43400C5F0FEACF02404F582EC3400F583E0FBEE2404FEEC3400FC8E828C83A3CA
:2015A600E0F5588B8212054A747F5534F534747F5535F535021AFFBF0109753800755100E7
:2015C600021AFFEF7008F538755103021AFFAE501EC2D575F003EE30E704B2D5F404A430FB
:2015E600D50AF42401C5F0F43400C5F0FEACF02404FAEC3400FB0ABA00010BEE2404FEECB4
:201606003400FC8E828C83A3E0FE8D588E82C003C00212093DAE82D002D0038A828B83EE45
:20162600F0E550FE14FDC2D575F003ED30E704B2D5F404A430D50AF42401C5F0F43400C57C
:20164600F02404FC740035F0FD8C828D83A3E024A6502DEE14FDC2D575F003ED30E704B23A
:20166600D5F404A430D50AF42401C5F0F43400C5F02404FC740035F0FD8C828D83A3E4F0EA
:2016860075380C1EC2D575F003EE30E704B2D5F404A430D50AF42401C5F0F43400C5F0FE8A
:2016A600ADF02404F582ED3400F583E0FCEE2404FEED3400FD8E828D83A3E0F5588C821231
:2016C600054A747F5534F534747F5535F535021AFFBF0106755100021AFFEF700675510C70
:2016E600021AFF7401B55206755104021AFF90001AE060067D247E0080047D237E008D58CC
:201706008E59900005121F82AD82AE83ED2400F582EE3431F58312050BAE501EC2D575F0A7
:2017260003EE30E704B2D5F404A430D50AF42401C5F0F43400C5F02404FD740035F0FE8D71
:20174600828E83A3A3E0FE5306FE7D00BEFE0CBD0009747F5536F536021AFF74804536F542
:2017660036021AFF90001AE0602AAD517E0074182DF558E43EF559900005C007121F82AD50
:2017860082AE83ED2400F582EE3431F58312050BD0078029AD517E00ED24FCF558EE34FFA4
:2017A600F559900005C007121F82AD82AE83ED2400F582EE3431F58312050BD007AE511EFD
:2017C6001E1EAD501DED75F003A42404FC740035F0FD8C828D83A3A3E0FD8EF005F0ED80D9
:2017E60002C313D5F0FB30E008747F5536F536800674804536F536E55270110551E5512402
:20180600F54003021AFF75510B021AFF7401B55247AE511E1E1EAD501DED75F003A4FDACAB
:20182600F02404FAEC3400FB74022AFAE43BFBED2404FDEC3400FC8D828C83A3A3E0FD8EC4
:20184600F005F07401800225E0D5F0FBFE62058A828B83EDF0021AFFEF700675510C021A17
:20186600FFBF01028003021AFF755103021AFF90001AE060067D247E0080047D237E008DE1
:20188600588E59900005C007121F82AD82AE83ED2400F582EE3431F58312050BD007AE504A
:2018A6001EC2D575F003EE30E704B2D5F404A430D50AF42401C5F0F43400C5F02404FD7486
:2018C6000035F0FE8D828E83A3A3E0FE5306FE7D00BEFE0BBD0008747F5536F53680067498
:2018E600804536F536E5527006755104021AFF7401B5520280030219CEE550FE14FDC2D565
:2019060075F003ED30E704B2D5F404A430D50AF42401C5F0F43400C5F02404FC740035F0B7
:20192600FD8C828D83A3A3E0FD5305FE7C00BDFE4EBC004BEE14FDC2D575F003ED30E7047B
:20194600B2D5F404A430D50AF42401C5F0F43400C5F0FDACF02404FAEC3400FB74022AFA34
:20196600E43BFBED2404FDEC3400FC8D828C83A3A3E0FD5305018A828B83EDF0021AFF1E4F
:20198600C2D575F003EE30E704B2D5F404A430D50AF42401C5F0F43400C5F0FEADF0240499
:2019A600FBED3400FC74022BFBE43CFCEE2404FEED3400FD8E828D83A3A3E0FE4306FE8B09
:2019C600828C83EEF0021AFFEF700675510C021AFFBF01028003021AFF755103021AFFEFF2
:2019E6006003BF010F53AFFBC2AFD295D2AF755100021AFFE5526003021A86E550FF14FEF6
:201A06003395E0FD8E8274002DF583E0FEBE01004014EF14FE3395E0FD8E8274002DF58332
:201A2600E0FE24FC5013EF14FE3395E0FD8E8274002DF5837401F0802CEF14FE3395E02492
:201A460000FD8E828D83E0FC0C8E828D83ECF0EC24FC5011EF14FE3395E0FD8E8274002DBB
:201A6600F5837401F01FEF3395E0FE8F8274002EF583E0F52C53AFFBE4F52AF52B43AF048D
:201A8600E550FF14FE3395E0FD8E8274002DF583E0FEBE01004014EF14FE3395E0FD8E8285
:201AA60074002DF583E0FE24FC50101FEF3395E0FE8F8274002EF5837401F0903062E493CC
:201AC600FF8F33903050E493FF8F349030A0E493FF8F35AF501FEF3395E0FE8F8274002EF6
:201AE600F583E02430FF3395E0FEEF2400F582EE3430F583E493FF8F367582012212047F51
:201B0600AF82C007120453AE82D007E55324F25003021DF1E553240B83F582E55324128354
:201B2600F583E473466A2753DCF0F0F0F0F0F0F0F0AB1B1B1C1C1C1C1C1C1C1C1C1C1C1D18
:201B4600EF70131208C9120870121EDE85824685834775820222EE70020553903137120514
:201B66000B021DF1BF010775530075820022EF7003755302EE6003BE0215900019E0FD0DB7
:201B8600900019EDF0ED24F55005900019E4F0900019E07004D21F802DC21FC2AF9000194B
:201BA600E0FD7C001DBDFF011C8D588C599019DE121F82E5828583F0242CFC740135F0FD8A
:201BC6008C398D3AD2AF903062E493FD8D33903072E493FD8D34900019E0FDBD0A12903016
:201BE600B1E493FD8D35903030E493FD8D3680229030A0E493FD8D35900019E02430FD338C
:201C060095E0FCED2400F582EC3430F583E493FD8D36747F5534F534747F5535F535021D5B
:201C2600F1EF700375530DEE701A75530390001DE0FD90001EE0FBE4FCFAED4204EA4203E4
:201C46008C548B5590314112050B021DF1BF0111755302AD5490001DEDF0AD5590001EEDC7
:201C6600F0EE6003BE021575580175590085548285558312094D858254858355AC54AD55D2
:201C8600C374409C74019D5005E4F554F555C2ADAC28AD29D2ADEC2CFCED33FD8C827428DA
:201CA6002DF583E493FCA3E493FD8554588555598C828D8312094DAC82AD838C028D03C3C6
:201CC60074999A74099B50047C997D098C828D8312062A021DF1EE7003755305EF7002F55C
:201CE6005390314612050B021DF1AC537D00740A2CF558E43DF559900005C007C006121F1D
:201D060082AC82AD83EC2400F582ED3431F58312050BD006D007740CB553028047900003D9
:201D2600E0FDE55324FCF5F005F0ED8002C313D5F0FB5401F582C007C006120604D006D06E
:201D460007EE7040900003E0FDE55324FCF5F005F07401800225E0D5F0FBFC620590000384
:201D6600EDF08020900002E0FD74015DF582C007C006120604D006D007EE7008900002E0FA
:201D86006401FDF0747F5534F534747F5535F535EF700A0553740EB55303755305BF014B79
:201DA6007553048046BF010775530075820022EF7003755304EE700890001AE06401FFF071
:201DC60090001AE060067E1B7F0080047E1A7F008E588F59900005121F82AE82AF83EE24D0
:0F1DE60000F582EF3431F58312050B758201226F
:20330000C611660966096609C611661366096613031B6609031B6609010000000102000231
:0433200003000300A3
:20300000C0F9A4B0999282F880908883C6A1868EFFFFFFFFFFFFFFFFFFFFFFFFFFFFFFFF78
:20302000FFFFDDFFFFFFFFFDC6F0FFFFEFBFFFFFC0F9A4B0999282F88090FFFFFFFFFFFFA0
:20304000FF8883C6A1868EC289F9F1FFC7C8ABC08C98AF9287C1FFFFFF91FFC6FFF0FFF7D8
:20306000DF8883A7A1848EC28BFBF1FFF9FFABA38C98AF9287E3FFFFFFFFFFFFFFFFFFFFC9
:20308000C0CFA4868B9290C780828198F08CB0B1FFFFFFFFFFFFFFFFFFFFFFFFFFFFFFFF1B
:2030A000FFFFEBFFFFFFFFEFF0C6FFFFFDBFFFFFC0CFA4868B9290C78082FFFFFFFFFFFFA5
:2030C000FF8198F08CB0B1D089CFCEFFF8FF9DC0A183BD92B8C8FFFFFF8AFFF0FFC6FFFE87
:2030E000FB8198BC8CA0B1D099DFCEFFCFFF9D9CA183BD92B8DCFFFFFFFFFFFFFFFFFFFF0A
:203100004E4F4E2000545545200055454420005448555200465249200053415420005355A4
:203120004E200053455443005345544100414C4F4E00414C4F4600434F4E4600425220207F
:20314000005443414C0044495350004E53202000545020200044552020004454202000594C
:203160005220200031322020004E442020005230202000384950200064414C59004C416E50
:2031800020004C2D456E004C2D4553004C756E20004D417220004D494520004A5545200064
:1931A00055494520005341622000306F4E2000414C4C20003049415300EA
:05010900E4F556F55776
:201DF500C0E0C0D075D010AE56AF5774012EF556E43FF55774E7B5BC0BE4F5BEF5BD75BC91
:201E1500E675BCEE74E6B5BC0BE4F5BEF5BD75BCE775BCEFE52F25E0FFA2B1E4334FF52F5C
:201E3500E53025E0FFA2B0E4334FF530AE2F5316877F00BE800EBF000BD2105322F1753147
:201E550000752F00AE305316877F00BE800EBF000BD21453221F753200753000AE2F53165A
:201E7500877F00BE071ABF001710130CE53124DF5004D2128002D211C210753100752FFF92
:201E9500AE305316877F00BE071ABF001710170CE53224DF5004D2168002D215C2147532BC
:201EB500007530FF30100DE53104FF8F31BF96004002D21330140DE53204FF8F32BF960046
:141ED5004002D217D0D0D0E032C2A9855682855783D2A92288
:201EE9007A10E4FBFCE58225E0F582E58333F583EB33FBEC33FCEB9558F5F0EC955940066D
:091F0900FCABF0438201DADD2299
:06009A00E478FFF6D8FD3A
:201F1200AD82AE83AFF08D5D8E5E8F5F855860855961855A62A85BA95C8803890418B8FF40
:201F32000119EB4C60258560828561838562F0122400FCA38582608583618D828E838FF0CE
:151F5200EC121F67A3AD82AE8380CE855D82855E83855FF022E5
:200078007900E94400601B7A0090248F780175A000E493F2A308B8000205A0D9F4DAF2757B
:02009800A0FFC7
:1B1F670020F71130F6138883A88220F509F6A8837583002280FEF280F5F02279
:1D1F8200E5828558F0A4C582C0F08559F0A4D0F025F0C5838558F0A42583F5832231
:201F9F00E558455960467A01E55825E0F558E559334012F559E5829558E583955940030A8F
:201FBF0080E6C3E55913F559E55813F558C3E5829558F5F0E58395594005F58385F082C3D4
:0D1FDF00E55913F559E55813F558DAE122DC
:2000A0007800E84400600A790175A000E4F309D8FC7800E84400600C7900900001E4F0A35E
:0400C000D8FCD9FA95
:0F006900E47375816212248AE5826003020066E7
:1C24000020F71430F6148883A88220F507E6A88375830022E280F7E49322E022EB
:20241C00C2D5E58330E70DD2D5E4C39582F582E49583F583E55930E70BE4C39558F558E408
:16243C009559F559121F9F30D50BE4C39582F582E49583F58322A3
:20245200C2D5E58330E70DD2D5E4C39582F582E49583F583E55930E70DB2D5E4C39558F585
:1824720058E49559F559121EE930D50BE4C39582F582E49583F58322E6
:04248A007582002235
:00000001FF
