:0400000002006B325D
:03000B0002191CBB
:0100130032BA
:01001B0032B2
:0100230032AA
:03002B000202DFEF
:01003300329A
:03003B0002067941
:01004300328A
:01004B003282
:01005300327A
:01005B003272
:030063000203771E
:03010E0002006686
:0300660002011183
:200111007F007D517E0953AFFB538EE275D72A75D610438E10C2954391C0439DC075BC804C
:20013100439720E4F5BEF5BDD2AD000000000000000075BCE6758900758A00758CB8758822
:2001510000538E7FD2A9D28C7595FF7596FF75D909E4F5D8F5E9F5F98539EA853AFA75DABE
:2001710049D2DED2BFD2AF8536A053B0DFD21F752F00753000752200753100753200C2A99D
:20019100855622855723D2A9E556C39522FAE5579523FCC3EA94C8EC940040ECD295539039
:2001B100F8439102439207C007C006C0051206E9120831120879E582D005D006D0076028E2
:2001D100C007C006C00512044DAC82D005D006D007BC0223C007C006C005120421AC82D041
:2001F10005D006D007BC020FC007C006C0051208D3D005D006D007900019E0600990001913
:20021100E0FC24F55004D21F8039C21FC2AF900019E0FC7B001CBCFF011B8C588B59901924
:20023100DEC007C006C005121AA9E5828583F0D005D006D007242CFB740135F0FC8B398C96
:200251003AD2AF90001AE0600990001AE0FC24FC500690001A7401F090001AE0F52CC21E49
:20027100C007C006C0058D828E83120069858221D005D006D007EF75F006A42400FA743313
:2002910035F0FBE52125212AF582E43BF583E493FDA3E493FEEF75F003A42418FB7433350F
:2002B100F0FCE5212BF582E43CF583E493FFC2A9855624855725D2A9E556C39524FAE557B8
:0E02D1009525FCC3EA940AEC940040EC809260
:2020000000EA00EA00EA00EA00EA00EA00EA00EA00EA00EA00EA00EA00EA00EA00EA00EA20
:2020200000EA00EA00EA00EA00EA00EA00EA00EA00EA00EA00EA00EA00EA00EA00EA00EA00
:2020400000EA00EA00EA00EA00EA00EA00EA00EA00EA00EA00EA00EA00EA00EA00EA00EAE0
:2020600000EA00EA00EA00EA00EA00EA00EA00EA00EA00EA00EA00EA00EA00EA00EA00EAC0
:2020800000EA00EA00EA00EA00EA00EA00EA00EA00EA00EA00EA00EA00EA00EA00EA00EAA0
:2020A00000EA00EA00EA00EA00EA00EA00EA00EA00EA00EA00EA00EA00EA00EA00EA00EA80
:2020C00000EA00EA00EA00EA00EA00EA00EA00EA00EA00EA00EA00EA00EABEE97CE93AE9EF
:2020E000F8E8B6E874E832E8F0E7AEE76CE72AE7E8E6A6E664E622E6E0E59EE55CE51BE5E7
:20210000D9E497E455E413E4D1E38FE34DE30BE3C9E287E245E203E2C1E17FE13DE1FBE0F8
:20212000B9E077E035E0F3DFB1DF6FDF2DDFEBDEA9DE67DE25DEE3DDA1DD5FDD1DDDDBDC1B
:2021400099DC57DC15DCD3DB91DB50DB0EDBCCDA8ADA48DA06DAC4D982D940D9FED8BCD831
:202160007AD838D8F6D7B4D772D730D7EED6ACD66AD628D6E6D5A4D562D520D5DED49CD44F
:202180005AD418D4D6D394D352D310D3CED28CD24AD208D2C6D185D143D101D1BFD07DD06A
:2021A0003BD0F9CFB7CF75CF33CFF1CEAFCE6DCE2BCEE9CDA7CD65CD23CDE1CC9FCC5DCC83
:2021C0001BCCD9CB97CB55CB13CBD1CA8FCA4DCA0BCAC9C987C945C903C9C1C87FC83DC8A3
:2021E000FCC7BAC778C736C7F4C6B2C670C62EC6ECC5AAC568C526C5E4C4A2C460C41EC4B7
:20220000DCC39AC358C316C3D4C292C250C20EC2CCC18AC148C106C1C4C082C040C0FEBFD7
:20222000BCBF7ABF38BFF6BEB4BE72BE31BEEFBDADBD6BBD29BDE7BCA5BC63BC21BCDFBBF0
:202240009DBB5BBB19BBD7BA95BA53BA11BACFB98DB94BB909B9C7B885B843B801B8BFB70A
:202260007DB73BB7F9B6B7B675B633B6F1B5AFB56DB52BB5E9B4A8B466B424B4E2B3A0B329
:202280005EB31CB3DAB298B256B214B2D2B190B14EB10CB1CAB088B046B004B0C2AF80AF3E
:2022A0003EAFFCAEBAAE78AE36AEF4ADB2AD70AD2EADECACAAAC68AC26ACE4ABA2AB60AB62
:2022C0001EABDDAA9BAA59AA17AAD5A993A951A90FA9CDA88BA849A807A8C5A783A741A773
:2022E000FFA6BDA67BA639A6F7A5B5A573A531A5EFA4ADA46BA429A4E7A3A5A363A321A396
:20230000DFA29DA25BA219A2D7A195A153A112A1D0A08EA04CA00AA0C89F869F449F029FAC
:20232000C09E7E9E3C9EFA9DB89D769D349DF29CB09C6E9C2C9CEA9BA89B669B249BE29AC9
:20234000A09A5E9A1C9ADA99989956991499D29890984E980C98CA97899747970597C396E5
:2023600081963F96FD95BB9579953795F594B39471942F94ED93AB9369932793E592A392FD
:2023800061921F92DD919B9159911791D590939051900F90CD8F8B8F498F078FC58E838E1D
:2023A000418EFF8DBE8D7C8D3A8DF88CB68C748C328CF08BAE8B6C8B2A8BE88AA68A648A33
:2023C000228AE0899E895C891A89D888968854881288D0878E874C870A87C8868686448651
:2023E0000286C0857E853C85FA84B88476843484F383B1836F832D83EB82A982678225826C
:20240000E381A1815F811D81DB80998057801580D37F917F4F7F0D7FCB7E897E477E057E84
:20242000C37D817D3F7DFD7CBB7C797C377CF57BB37B717B2F7BED7AAB7A6A7A287AE679A5
:20244000A47962792079DE789C785A781878D677947752771077CE768C764A760876C675B8
:20246000847542750075BE747C743A74F873B67374733273F072AE726C722A72E871A671DB
:2024800064712271E0709F705D701B70D96F976F556F136FD16E8F6E4D6E0B6EC96D876DEF
:2024A000456D036DC16C7F6C3D6CFB6BB96B776B356BF36AB16A6F6A2D6AEB69A96967690F
:2024C0002569E368A1685F681D68DB67996757671667D466926650660E66CC658A65486528
:2024E0000665C46482644064FE63BC637A633863F662B46272623062EE61AC616A61286143
:20250000E660A46062602060DE5F9C5F5A5F185FD65E945E525E105ECE5D8C5D4B5D095D61
:20252000C75C855C435C015CBF5B7D5B3B5BF95AB75A755A335AF159AF596D592B59E95876
:20254000A75865582358E1579F575D571B57D956975655561356D1558F554D550B55C95497
:20256000875445540354C15380533E53FC52BA5278523652F451B25170512E51EC50AA50AE
:2025800068502650E44FA24F604F1E4FDC4E9A4E584E164ED44D924D504D0E4DCC4C8A4CCB
:2025A000484C064CC44B824B404BFE4ABC4A7A4A384AF749B54973493149EF48AD486B48E7
:2025C0002948E747A54763472147DF469D465B461946D745954553451145CF448D444B44FF
:2025E0000944C743854343430143BF427D423B42F941B74175413341F140AF406D402C4020
:20260000EA3FA83F663F243FE23EA03E5E3E1C3EDA3D983D563D143DD23C903C4E3C0C3C32
:20262000CA3B883B463B043BC23A803A3E3AFC39BA3978393639F438B23870382E38EC3755
:20264000AA3768372637E436A23661361F36DD359B3559351735D534933451340F34CD336B
:202660008B3349330733C53283324132FF31BD317B313931F730B53073303130EF2FAD2F89
:202680006B2F292FE72EA52E632E212EDF2D9D2D5B2D192DD82C962C542C122CD02B8E2BA4
:2026A0004C2B0A2BC82A862A442A022AC0297E293C29FA28B82876283428F227B0276E27BC
:2026C0002C27EA26A82666262426E225A0255E251C25DA24982456241424D22390234E23DE
:2026E0000D23CB22892247220522C32181213F21FD20BB2079203720F51FB31F711F2F1FF0
:20270000ED1EAB1E691E271EE51DA31D611D1F1DDD1C9B1C591C171CD51B931B511B0F1B11
:20272000CD1A8B1A491A071AC519841942190019BE187C183A18F817B61774173217F01628
:20274000AE166C162A16E815A61564152215E0149E145C141A14D813961354131213D01245
:202760008E124C120A12C811861144110211C0107E103C10FA0FB90F770F350FF30EB10E62
:202780006F0E2D0EEB0DA90D670D250DE30CA10C5F0C1D0CDB0B990B570B150BD30A910A79
:2027A0004F0A0D0ACB09890947090509C30881083F08FD07BB0779073707F506B30671069B
:2027C0002F06EE05AC056A052805E604A40462042004DE039C035A031803D60294025202AE
:2027E0001002CE018C014A014A014A014A014A014A014A014A014A014A014A014A014A019C
:2028000000009909990999099909990999099909990999099909990999099909990999093A
:20282000990999099909990999099909990999099909990999099909990999099909990978
:20284000990999099909990999099909990999099909990999099909990999099909990958
:20286000990999099909990999099909990999099909990999099909990999099909990938
:202880009909990999099909990999099909990999099509890984097809720966096109F4
:2028A0005509500944093909340929092409190914090909040999089508900885088108EC
:2028C000760872086808630859085508510847084308380834083108270823081908150827
:2028E000110808080408000897079307900786078307790776077207690766076207590799
:2029000056075307490746074307400737073407310728072507220719071607130710072F
:2029200007070507020799069606930691068806850683068006770675067206700667068E
:202940006406620659065706540652064906470645064206400637063506330630062806AD
:202960002606230621061906170614061206100608060606030601069905970595059305C1
:2029800091058805860584058205800578057605740572057005680566056405620560058A
:2029A00058055605540552055005490547054505430541053905370535053405320530058F
:2029C000280526052505230521051905170516051405120510050905070505050405020559
:2029E00000059804970495049304920490048804870485048304820480047904770475049F
:202A0000740472047104690467046604640463046104600458045704550454045204500467
:202A20004904470446044404430441044004390437043604340433043104300428042704BB
:202A40002504240423042104200418041704150414041304110410040804070406040404E4
:202A60000304020400049903970396039503930392039103890388038703850384038303E9
:202A8000810380037903770376037503740372037103700368036703660365036303620304
:202AA0006103600358035703560354035303520351035003480347034603450343034203E7
:202AC0004103400338033703360335033403320331033003290328032603250324032303C1
:202AE00022032003190318031703160315031303120311031003090308030603050304038B
:202B00000303020301030003980297029602950294029302920291028902880287028602C9
:202B20008502840283028202800279027802770276027502740273027202710269026802F9
:202B4000670266026502640263026202610260025902580256025502540253025202510293
:202B6000500249024802470246024502440243024202400239023802370236023502340232
:202B80003302320231023002290228022702260225022402230222022102200219021802B1
:202BA00017021602150214021202110210020902080207020602050204020302020201023F
:202BC000000299019801970196019501940193019201910190018901880187018601850174
:202BE000840183018201810180017901780177017601750174017301720171017001690145
:202C00006801670166016501640163016301620161016001590158015701560155015401B6
:202C2000530152015101500149014801470146014501440143014201410140013901380120
:202C4000370136013501340133013201310130012901280128012701260125012401230196
:202C60002201210120011901180117011601150114011301120111011001090108010701FC
:202C8000060105010401030103010201010100019900980097009600950094009300920068
:202CA0009100900089008800870086008500840083008200810080008000790078007700DE
:202CC000760075007400730072007100700069006800670066006500640063006200610042
:202CE0006000590058005700560056005500540053005200510050004900480047004600B3
:202D0000450044004300420041004000390038003700360035003400330032003100300017
:202D200029002800270026002600250024002300220021002000190018001700160015008D
:202D40001400130012001100100009000800070006000500040003000200010000000100EB
:202D6000020003000400050006000700080009001000000000000000000000000000000017
:202D8000000000000000000000000000000000000000000000000000000000000000000033
:202DA000000000000000000000000000000000000000000000000000000000000000000013
:202DC0000000000000000000000000000000000000000000000000000000000000000000F3
:202DE0000000000000000000000000000000000000000000000000000000000000000000D3
:202E00000000000000000000000000000000000000000000000000000000000000000000B2
:202E2000000000000000000000000000000000000000000000000000000000000000000092
:202E4000000000000000000000000000000000000000000000000000000000000000000072
:202E6000000000000000000000000000000000000000000000000000000000000000000052
:202E8000000000000000000000000000000000000000000000000000000000000000000032
:202EA000000000000000000000000000000000000000000000000000000000000000000012
:202EC0000000000000000000000000000000000000000000000000000000000000000000F2
:202EE0000000000000000000000000000000000000000000000000000000000000000000D2
:202F00000000000000000000000000000000000000000000000000000000000000000000B1
:202F2000000000000000000000000000000000000000000000000000000000000000000091
:202F4000000000000000000000000000000000000000000000000000000000000000000071
:202F6000000000000000000000000000000000000000000000000000000000000000000051
:202F8000000000000000000000000000000000000000000000000000000000000000000031
:202FA000000000000000000000000000000000000000000000000000000000000000000011
:202FC0000000000000000000000000000000000000000000000000000000000000000000F1
:202FE0000000000000000000000000000000000000000000000000000000000000000000D1
:2002DF00C0E0C082C083C0D075D01863BC1074E7B5BC0885BE2885BD29807485BE2685BD75
:2002FF0027301F6BE52625E0FEE52733FF8E8274202FF583E493FEA3E493FFC3E5399EE575
:20031F003A9F5022EEC39539FCEF953AA2E7CC33CC33A2E7CC33CC33CC5403FDEC2539FCC6
:20033F00ED353AFD8021E539C39EFEE53A9FA2E7CE33CE33A2E7CE33CE33CE5403FFE53911
:18035F00C39EFCE53A9FFDC2BF8C398D3AD2BFD0D0D083D082D0E032A9
:0900C400752D0F752E00752C013D
:20037700C0E0C007C006C005C0D075D0007402B52C0280057403B52C3174F1252E5013C35A
:20039700E52E94199200400674D8252E5004C2008002D200A200E433FF7402B52C067D64AF
:2003B7007E0080107D467E00800AC3E52E940FE433FF7D69C2AFEF6017E52D24F85011AEC4
:2003D7002AAF2BC3EE9428EF94235004C2958002D295D2AFD52D03752D0F052EC3E52E9D7E
:2003F7004003752E00AE2AAF2BC3EE9428EF9423500DAE2AAF2B74012EF52AE43FF52BD057
:0A041700D0D005D006D007D0E032A7
:20042100C2A9E522C4035407FF7006D2A975820322301706D2A97582022210150280047F0E
:20044100008004C2167F01D2A98F8222C2A9E522540E60028006D2A975820322301306D2A3
:17046100A97582022210110280047F008004C2127F01D2A98F822214
:2004780085825985835A85F05B7BFF7CFF7A00C3EA95585047EA2559F8E4355AF9AF5B88D4
:200498008289838FF0121B13FF78008B058C06ED6200EE620788038F047F08EC30E712EB13
:2004B8002BFDEC33FE6305216306108D038E048006EB2BFBEC33FCDFE20A80B38B828C83EF
:0104D8002201
:1B00CD00753C10753300753400753500753600753703753800753900753AFFF9
:2004D900AE82AF83E49390300093FD8D338E828F83A3E49390300093FD8D348E828F83A308
:2004F900A3E49390308093FD8D358E828F83A3A3A3E49390300093FF8F3622E582FFC454FE
:200519000F90300093FE8E3353070F7E00EF2400F582EE3430F583E493FF8F34E558C454D8
:200539000F90308093FF8F35AE5853060F7F00EE2400F582EF3430F583E493FF8F3622AFB0
:2005590082900003E02323540160208F82C00712090FD007853B58C007120514D007EF24A5
:20057900EE5010747F5536F5368008853B588F82120514900002E0FF30E011903030E49396
:20059900FFB53308903020E493FF8F3322900003E0235401600B85418285405812051480B3
:2005B90009854082854158120514747F5534F534900002E0FF30E021903030E493B53308EB
:2005D900903020E493FF8F339030B0E493FFB535089030A0E493FF8F3522E58260119030BE
:2005F900CFE493FF8F3590304EE493FF8F36229030CFE493FF8F35903046E493FF8F362242
:20061900AE82AF838F0553050F7C00ED2400F582EC3430F583E493FD8D338E04EFC4CCC48F
:20063900540F6CCC540FCC6CCC53040F7D00EC2400F582ED3430F583E493FD8D3453060FCF
:200659007F00EE2480F582EF3430F583E493FF8F35903043E493FF8F36747F5534F53422EF
:20067900C0E0C0F0C0D075D00810DF02803DAF39740F5FF5EA853AFAE5372433F987A0741D
:20069900F8253C40118537F005F0E5388002C313D5F0FB20E033AF378FF005F0740480023A
:2006B90025E0D5F0FBF4FF52B0801E10D802801943B03CE537700DAF3C153CEF7003753C2F
:1006D90010753704E53714F537D0D0D0F0D0E032B3
:2006E900C291C292C290000000000000000000000000000000000000000022C291D2900021
:200709000000000000000000000000000000000000000002079DD291000000A2919208D228
:200729009200000000C292000000A2919209D29200000000C292000000A291920AD2920011
:20074900000000C292000000A291920BD29200000000C292000000A291920CD2920000007F
:2007690000C292000000A291920DD29200000000C292000000A291920ED29200000000C299
:2007890092000000A291920FD29200000000C29285218222858221A2089291D2920000008F
:2007A90000C292A2099291D29200000000C292A20A9291D29200000000C292A20B9291D22D
:2007C9009200000000C292A20C9291D29200000000C292A20D9291D29200000000C292A275
:2007E9000E9291D29200000000C292A20F9291D29200000000C2922275828E1207047582C0
:200809000012079DC2901206E97582BE1207047F00901BA1E4932FF98782C00712079DD034
:20082900070FBF08ECC290227582FF1207047F008F057E00C007C006C00512071FAC82D046
:2008490005D006D0078D828E83ECF00FBF1FE1C290227582FE1207047F008F82758300E025
:20086900F582C00712079DD0070FBF1FEDC29022900000E0FF900001E0FDE4FEFCEF420664
:20088900EC420575581D90000275F000C006C005120478AC82AF83D005D006ECB50608EF79
:2008A900B50504758201227582002275581D90000275F000120478AE82AF838E059000004A
:2008C900EDF08F06900001EEF022755800755932755A80755B08755C0090003D75F04012C3
:2008E9001A39755808755932755A80755B1F755C0090000075F000121A391208B412080175
:200909001206E902085BE582FF700475821222EF24ED50087558888F820209288F8222C07F
:20092900E0C0D0E5822558D4F582D0D0D0E022C0E0C0D0C2D7E5822558D4F582E5833559AF
:08094900D4F583D0D0D0E022E8
:011BA1003D06
:20320000001110290706260000000000000000000000000000000000000000000000000031
:073220000000000000700037
:2000E800754D00754F00755000755100755300754500E4F546F547F548F549F54AF54BF51B
:010108004CAA
:2009510012044D85824E120421AE827401B54D26EE7017E54C700E121A0585824A85834BD1
:20097100754C018003754C007E03BE0109E4F548F549F54C7E037407B54D03020ABE740137
:20099100B54E0474018001E4FD600ABE0107754D0075820022E54E701DC006C005121A05E1
:2009B100858246858347D005D006C21E054D7406B54D03754D00ED6012C006121A0585820F
:2009D10046858347D006C21E754D00EE7012C006121A05858246858347D006C21E754D027C
:2009F100E54D7003020A9B301E697401B54D05C21E020ABEC006121A05E5828583F0D00691
:200A1100C39546FCE5F09547FDC374C89CE49D4003020ABE054D7406B54D0280229000034F
:200A3100E0FD854DF005F0ED8002C313D5F0FB30E0E2121A0585824685834775820122C073
:200A510006121A05858246858347D006C21E754D00805AC006121A05E5828583F0D006C371
:200A71009546FCE5F09547FDC3742C9C74019D503C7401B54D028035C006121A05858246D1
:200A9100858347D006754D008023C006121A05E5828583F0D006C39546FCE5F09547FDC384
:200AB10074E89C74039D5005D21E020A257582BFC006120704D006D291000000A291920804
:200AD100D29200000000C292000000A2919209D29200000000C292000000A291920AD29294
:200AF10000000000C292000000A291920BD29200000000C292000000A291920CD2920000D4
:200B11000000C292000000A291920DD29200000000C292000000A291920ED29200000000AF
:200B3100C292000000A291920FD29200000000C292E521F53DD291000000A2919208D292F8
:200B510000000000C292000000A2919209D29200000000C292000000A291920AD292000077
:200B71000000C292000000A291920BD29200000000C292000000A291920CD2920000000053
:200B9100C292000000A291920DD29200000000C292000000A291920ED29200000000C292DB
:200BB100000000A291920FD29200000000C292AD218D3ED291000000A2919208D29200006B
:200BD1000000C292000000A2919209D29200000000C292000000A291920AD29200000000F7
:200BF100C292000000A291920BD29200000000C292000000A291920CD29200000000C2927F
:200C1100000000A291920DD29200000000C292000000A291920ED29200000000C2920000AE
:200C310000A291920FD29200000000C292E521F53FD291000000A2919208D2920000000049
:200C5100C292000000A2919209D29200000000C292000000A291920AD29200000000C29222
:200C7100000000A291920BD29200000000C292000000A291920CD29200000000C292000052
:200C910000A291920DD29200000000C292000000A291920ED29200000000C292000000A28C
:200CB10091920FD29200000000C292E521F540D291000000A2919208D29200000000C29216
:200CD100000000A2919209D29200000000C292000000A291920AD29200000000C2920000F6
:200CF10000A291920BD29200000000C292000000A291920CD29200000000C292000000A230
:200D110091920DD29200000000C292000000A291920ED29200000000C292000000A291928A
:200D31000FD29200000000C292E521F541D291000000A2919208D29200000000C2920000B7
:200D510000A2919209D29200000000C292000000A291920AD29200000000C292000000A2D3
:200D710091920BD29200000000C292000000A291920CD29200000000C292000000A291922E
:200D91000DD29200000000C292000000A291920ED29200000000C292000000A291920FD24C
:200DB1009200000000C292E521F542D291000000A2919208D29200000000C292000000A275
:200DD100919209D29200000000C292000000A291920AD29200000000C292000000A29192D2
:200DF1000BD29200000000C292000000A291920CD29200000000C292000000A291920DD2F2
:200E11009200000000C292000000A291920ED29200000000C292000000A291920FD2920018
:200E3100000000C292E521F543C290EDB54503020ED0900003E0FD20E003020ED07D00BD66
:200E510005005078ED75F003A4FBACF02404FAEC3400FF8A828F83A3A3E0FF8542F005F0F4
:200E7100EF8002C313D5F0FB30E04EEB2404FAEC3400FF8A828F83A3A3E0FF30E03BEB2433
:200E910004F582EC3400F583E0FFB53F2CEB2404FBEC3400FC8B828C83A3E0FFB53E1A5307
:200EB100AFFBE4F52AF52B43AF04C21FC2AF753900753AEAD2AF754D070D8083853E45E57E
:200ED1004D24F850030210EDE54D240B83F582E54D240C83F583E473F93C5AB8DFE4EDF947
:200EF1000E0F10101010100E7407B54D1E75380F7403B54E05BE0302801175380053AFFB92
:200F1100C2AFD295D2AFD21F754D00853F82853E3B120558E53D20E0030210ED747F553461
:200F3100F534747F5535F5350210EDE54C6045121A05E5828583F0C3954AFEE5F0954BFF17
:200F5100C3EE9464EF9400402BAE4AAF4B74642EFEE43FFF8E4A8F4B0548E4B548020549A1
:200F7100AE48AF49C3EE9410EF940E4007E4F548F549F54CAE48AF4975583C7559008E82D0
:200F91008F83C007C006121A10AC82D006D00775583C7559008E828F83C004121AC6AE82AB
:200FB100D0047F0075580A8F598C828F83C007C006C004121B65AB82D004D006D007EBC4AE
:200FD10054F0FB75580A7559008C828F83C006C003121B2FAD82D003D006ED42038E057FFB
:200FF1000075580A8F598D828F83C007C006C005C003121B65AA82D003D005D006D007EAEE
:20101100C454F0FA75580A7559008D828F83C006C003C002121B2FAD82D002D003D006EDB9
:201031004AF5588B82C006120514D006E54C70030210EDEE20E0030210ED747F5534F534FC
:20105100747F5535F5350210EDC2ADAE28AF29D2ADEE2EFEEF33FF8E8274282FF583E49338
:20107100FEA3E493FF90001DE0FD90001EE0FBE4FCFAED4204EA42038C588B598E828F830F
:20109100120938AE82AF838E048F05C374999C74099D50047E997F098E828F831206197424
:2010B1007F5534F5348035AE427F00EE24FFF558EF34FFF559900005121AA9AE82AF83EE42
:2010D1002400F582EF3431F5831204D9800E1205A680098543587582201205147582012259
:2010F10012044DAF82C007120421AE82D007E54F6020BF0110753800120801754560754F1C
:201111000075820022EF700A054F7407B54F03754F017D00EE6003BE02027D01E54F24F942
:201131005003021278E54F75F003A49011407302115502116A02116A0211BE0211BE021213
:201151001C02123DEE7002054FEF7004758202229031231204D90212787401B54F1B853F28
:20117100828D58C005120928AF82D005EFF53F24DC5003753F007538037402B54F17853EBB
:20119100828D58120928E582FFF53E24A65003753E0075380C853F82853E3B120558747FCC
:2011B1005534F534747F5535F5350212787403B54F2A8540828D58C005120928AF82D0055A
:2011D100EFF54024CE5003754000900003E0235401FF600575380C80037538037404B54F29
:2011F100258541828D58120928E582F54124ED5003754100900003E0235401FF6005753896
:2012110003800375380C1205A6805C8543828D58120928E582F54324665003754300753892
:201231000F854358758220120514803B8542828D58120928E582F54224F8500375420175C6
:20125100380FAE427F00EE24FFF558EF34FFF559900005121AA9AE82AF83EE2400F582EFB5
:201271003431F5831204D97582012212044DAF82C007120421858252D0077D00E55260059C
:201291007402B552027D01E4B5500280117401B5500280247402B5500280700213A9EF701A
:2012B1000475820222E55270060550758201229031281204D9021670BF01107550001208D3
:2012D100B412085B75456075820022E5527008900003E06401FCF0900003E030E00C9031DE
:2012F1002DC0071204D9D007800A903132C0071204D9D007747F5534F534747F5535F535CD
:20131100EF60030216700550021670BF011653AFFBC2AFD295D2AF7550001208B412085BD1
:2013310075820022EF700C53AFFBC2AFD295D2AF755003E55260057402B5522790001AE030
:20135100FC0C90001AECF0EC24FC500690001A7401F090001AE0F52C53AFFBE4F52AF52BB2
:2013710043AF04903062E493FC8C33903050E493FC8C349030A0E493FC8C3590001AE0248D
:2013910030FC3395E0FBEC2400F582EB3430F583E493FC8C36021670E55124F650030216A7
:2013B10070E551240B83F582E551240E83F583E473D67A7AAFAFAFAFAFAFAF13141415159B
:2013D1001515151515EF701205507408B550028003021670755001021670E5527032E550E3
:2013F10024FD75F003A4FBACF02404FAEC3400FE74022AFAE43EFEEB2404FBEC3400FC8B69
:20141100828C83A3A3E0FC6304018A828E83ECF07401B552050551021670BF010A755100B8
:2014310075500075820022903041E493FE8E33E55024FD90300093FE8E34E55024FD75F062
:2014510003A42404FC740035F0FE8C828E83A3A3E0FE74015EF5821205F3747F5534F534DD
:20147100747F5535F535021670EF70080551753800021670BF010975510075380002167076
:201491007401B55168E55024FD75F003A4FCAEF02404FAEE3400FBEC2404F582EE3400F57B
:2014B10083E0FE8D588E82C005C003C002120928AE82D002D003D0058A828B83EEF0E55061
:2014D10024FD75F003A42404F582740035F0F583E0FE24DC5014E55024FD75F003A4240452
:2014F100F582740035F0F583E4F07538037402B55172E55024FD75F003A4FCAEF02404FAC3
:20151100EE3400FB0ABA00010BEC2404FCEE3400FE8C828E83A3E0FE8D588E82C003C00283
:20153100120928AE82D002D0038A828B83EEF0E55024FD75F003A42404FC740035F0FE8CE1
:20155100828E83A3E0FE24A65017E55024FD75F003A42404FC740035F0FE8C828E83A3E472
:20157100F075380CE55024FD75F003A4FCAEF02404F582EE3400F583E0FBEC2404FCEE346F
:2015910000FE8C828E83A3E0F53B8B82120558747F5534F534747F5535F535021670AC511D
:2015B1007E00EC24FDF558EE34FFF559900005C007C005121AA9AC82AE83EC2400F582EE09
:2015D1003431F5831204D9D005D007AE511E1EE55024FD75F003A42404FB740035F0FC8BA2
:2015F100828C83A3A3E0FC8EF005F0EC8002C313D5F0FB30E008747F5536F5368006748075
:201611004536F536ED6043AE511E1EE55024FD75F003A4FDACF02404FAEC3400FB74022A70
:20163100FAE43BFBED2404FDEC3400FC8D828C83A3A3E0FD8EF005F07401800225E0D5F0E2
:20165100FBFE62058A828B83EDF0EF700C0551740AB5510B7551018006BF01037551007587
:2016710082012212044DAF82C007120421AE82D007E55324F35003021918E553240B83F567
:2016910082E553241183F583E473B5D996C24B5F5F5F5F5F5F5F5F161617171818181818FD
:2016B10018181818EF70131208B412085B121A0585824685834775820222EE7002055390D4
:2016D10031371204D9021918BF010775530075820022EF7003755302EE6003BE02159000E5
:2016F10019E0FD0D900019EDF0ED24F55005900019E4F0900019E07004D21F802DC21FC23A
:20171100AF900019E0FD7C001DBDFF011C8D588C599019DE121AA9E5828583F0242CFC74CC
:201731000135F0FD8C398D3AD2AF903062E493FD8D33903072E493FD8D34900019E0FDBD68
:201751000A129030B1E493FD8D35903030E493FD8D3680229030A0E493FD8D35900019E0CD
:201771002430FD3395E0FCED2400F582EC3430F583E493FD8D36747F5534F534747F5535BA
:20179100F535021918EF7003755304EE701A75530390001DE0FD90001EE0FBE4FCFAED424E
:2017B10004EA42038C548B559031411204D9021918BF0111755302AD5490001DEDF0AD55D9
:2017D10090001EEDF0EE6003BE0215755801755900855482855583120938858254858355E8
:2017F100AC54AD55C374409C74019D5005E4F554F555C2ADAC28AD29D2ADEC2CFCED33FD1C
:201811008C8274282DF583E493FCA3E493FD8554588555598C828D83120938AC82AD838C1F
:20183100028D03C374999A74099B50047C997D098C828D83120619021918EE7003755305E4
:20185100EF7002F5539031461204D9021918AC537D00740A2CF558E43DF559900005C00767
:20187100C006121AA9AC82AD83EC2400F582ED3431F5831204D9D006D007740CB553028067
:2018910047900003E0FDE55324FCF5F005F0ED8002C313D5F0FB5401F582C007C0061205D9
:2018B100F3D006D007EE7040900003E0FDE55324FCF5F005F07401800225E0D5F0FBFC621D
:2018D10005900003EDF08020900002E0FD74015DF582C007C0061205F3D006D007EE700880
:2018F100900002E06401FEF0747F5534F534747F5535F535EF700A0553740DB553037553B1
:0B19110005BF0103755304758201221D
:20330000F110510951095109F1107C1251097C127416510974165109010000000102000259
:0433200003000300A3
:20300000C0F9A4B0999282F880908883C6A1868EFFFFFFFFFFFFFFFFFFFFFFFFFFFFFFFF78
:20302000FFFFDDFFFFFFFFFDC6F0FFFFEFBFFFFFC0F9A4B0999282F88090FFFFFFFFFFFFA0
:20304000FF8883C6A1868EC289F9F1FFC7FFABC08C98AF9287C1FFFFFF91FFC6FFF0FFF7A1
:20306000DF8883A7A1848EC28BFBF1FFF9FFABA38C98AF9287E3FFFFFFFFFFFFFFFFFFFFC9
:20308000C0CFA4868B9290C780828198F08CB0B1FFFFFFFFFFFFFFFFFFFFFFFFFFFFFFFF1B
:2030A000FFFFEBFFFFFFFFEFF0C6FFFFFDBFFFFFC0CFA4868B9290C78082FFFFFFFFFFFFA5
:2030C000FF8198F08CB0B1D089CFCEFFF8FF9DC0A183BD92B8C8FFFFFF8AFFF0FFC6FFFE87
:2030E000FB8198BC8CA0B1D099DFCEFFCFFF9D9CA183BD92B8DCFFFFFFFFFFFFFFFFFFFF0A
:203100004E4F4E2000545545200055454420005448555200465249200053415420005355A4
:203120004E200053455443005345544100414C4F4E00414C4F4600434F4E4600425220207F
:20314000005443414C0044495350004E53202000545020200044552020004454202000594C
:183160005220200031322020004E44202000523020200062502020009C
:05010900E4F556F55776
:20191C00C0E0C0D075D010AE56AF5774012EF556E43FF55774E7B5BC0BE4F5BEF5BD75BC6E
:20193C00E675BCEE74E6B5BC0BE4F5BEF5BD75BCE775BCEFE52F25E0FFA2B1E4334FF52F3A
:20195C00E53025E0FFA2B0E4334FF530AE2F5316877F00BE800EBF000BD2105322F1753125
:20197C0000752F00AE305316877F00BE800EBF000BD21453221F753200753000AE2F531638
:20199C00877F00BE071ABF001710130CE53124DF5004D2128002D211C210753100752FFF70
:2019BC00AE305316877F00BE071ABF001710170CE53224DF5004D2168002D215C21475329A
:2019DC00007530FF30100DE53104FF8F31BF96004002D21330140DE53204FF8F32BF960024
:1419FC004002D217D0D0D0E032C2A9855682855783D2A92266
:201A10007A10E4FBFCE58225E0F582E58333F583EB33FBEC33FCEB9558F5F0EC955940064A
:091A3000FCABF0438201DADD2277
:06009A00E478FFF6D8FD3A
:201A3900AD82AE83AFF08D5D8E5E8F5F855860855961855A62A85BA95C8803890418B8FF1E
:201A59000119EB4C60258560828561838562F0121B13FCA38582608583618D828E838FF0A2
:151A7900EC121A8EA3AD82AE8380CE855D82855E83855FF022A1
:200078007900E94400601B7A00901BA2780175A000E493F2A308B8000205A0D9F4DAF27571
:02009800A0FFC7
:1B1A8E0020F71130F6138883A88220F509F6A8837583002280FEF280F5F02257
:1D1AA900E5828558F0A4C582C0F08559F0A4D0F025F0C5838558F0A42583F583220F
:201AC600E558455960467A01E55825E0F558E559334012F559E5829558E583955940030A6D
:201AE60080E6C3E55913F559E55813F558C3E5829558F5F0E58395594005F58385F082C3B2
:0D1B0600E55913F559E55813F558DAE122B9
:2000A0007800E84400600A790175A000E4F309D8FC7800E84400600C7900900001E4F0A35E
:0400C000D8FCD9FA95
:0F006900E473758162121B9DE5826003020066DD
:1C1B130020F71430F6148883A88220F507E6A88375830022E280F7E49322E022E1
:201B2F00C2D5E58330E70DD2D5E4C39582F582E49583F583E55930E70BE4C39558F558E4FE
:161B4F009559F559121AC630D50BE4C39582F582E49583F5832277
:201B6500C2D5E58330E70DD2D5E4C39582F582E49583F583E55930E70DB2D5E4C39558F57B
:181B850058E49559F559121A1030D50BE4C39582F582E49583F58322B9
:041B9D00758200222B
:00000001FF
