:0400000002006B325D
:03000B000216C812
:0100130032BA
:01001B0032B2
:0100230032AA
:03002B000202B41A
:01003300329A
:03003B000205F5C6
:01004300328A
:01004B003282
:01005300327A
:01005B003272
:0300630002034C49
:0300FE0002006697
:0300660002010193
:200101007F007DCD7E0853AFFB538EE275D72A75D610438E10C2954391C0439DC075BC80E1
:20012100439720E4F5BEF5BDD2AD000000000000000075BCE6758900758A00758CB8758832
:2001410000538E7FD2A9D28C7595FF7596FF75D909E4F5D8F5E9F5F98536EA8537FA75DAD4
:2001610049D2DED2BFD2AF8533A053B0DFD21F752C00752D00752200752E00752F00C2A9BC
:20018100854E21854F22D2A9E54EC39521FAE54F9522FCC3EA94C8EC940040ECD29553906D
:2001A100F8439102439207C007C006C0051206651207AD1207F5E582D005D006D007602880
:2001C100C007C006C0051203C9AC82D005D006D007BC0223C007C006C00512039DAC82D05B
:2001E10005D006D007BC020FC007C006C00512084FD005D006D007900019E06009900019A7
:20020100E0FC24F55004D21F8039C21FC2AF900019E0FC7B001CBCFF011B8C508B51901944
:20022100DEC007C006C00512182CE5828583F0D005D006D007242CFB740135F0FC8B368C28
:2002410037D2AFC21EC007C006C0058D828E83120069858220D005D006D007EF75F006A471
:200261002400FA743335F0FBE52025202AF582E43BF583E493FDA3E493FEEF75F003A4246B
:2002810018FB743335F0FCE5202BF582E43CF583E493FFC2A9854E23854F24D2A9E54EC303
:1302A1009523FAE54F9524FCC3EA940AEC940040EC8092A6
:2020000000EA00EA00EA00EA00EA00EA00EA00EA00EA00EA00EA00EA00EA00EA00EA00EA20
:2020200000EA00EA00EA00EA00EA00EA00EA00EA00EA00EA00EA00EA00EA00EA00EA00EA00
:2020400000EA00EA00EA00EA00EA00EA00EA00EA00EA00EA00EA00EA00EA00EA00EA00EAE0
:2020600000EA00EA00EA00EA00EA00EA00EA00EA00EA00EA00EA00EA00EA00EA00EA00EAC0
:2020800000EA00EA00EA00EA00EA00EA00EA00EA00EA00EA00EA00EA00EA00EA00EA00EAA0
:2020A00000EA00EA00EA00EA00EA00EA00EA00EA00EA00EA00EA00EA00EA00EA00EA00EA80
:2020C00000EA00EA00EA00EA00EA00EA00EA00EA00EA00EA00EA00EA00EABEE97CE93AE9EF
:2020E000F8E8B6E874E832E8F0E7AEE76CE72AE7E8E6A6E664E622E6E0E59EE55CE51BE5E7
:20210000D9E497E455E413E4D1E38FE34DE30BE3C9E287E245E203E2C1E17FE13DE1FBE0F8
:20212000B9E077E035E0F3DFB1DF6FDF2DDFEBDEA9DE67DE25DEE3DDA1DD5FDD1DDDDBDC1B
:2021400099DC57DC15DCD3DB91DB50DB0EDBCCDA8ADA48DA06DAC4D982D940D9FED8BCD831
:202160007AD838D8F6D7B4D772D730D7EED6ACD66AD628D6E6D5A4D562D520D5DED49CD44F
:202180005AD418D4D6D394D352D310D3CED28CD24AD208D2C6D185D143D101D1BFD07DD06A
:2021A0003BD0F9CFB7CF75CF33CFF1CEAFCE6DCE2BCEE9CDA7CD65CD23CDE1CC9FCC5DCC83
:2021C0001BCCD9CB97CB55CB13CBD1CA8FCA4DCA0BCAC9C987C945C903C9C1C87FC83DC8A3
:2021E000FCC7BAC778C736C7F4C6B2C670C62EC6ECC5AAC568C526C5E4C4A2C460C41EC4B7
:20220000DCC39AC358C316C3D4C292C250C20EC2CCC18AC148C106C1C4C082C040C0FEBFD7
:20222000BCBF7ABF38BFF6BEB4BE72BE31BEEFBDADBD6BBD29BDE7BCA5BC63BC21BCDFBBF0
:202240009DBB5BBB19BBD7BA95BA53BA11BACFB98DB94BB909B9C7B885B843B801B8BFB70A
:202260007DB73BB7F9B6B7B675B633B6F1B5AFB56DB52BB5E9B4A8B466B424B4E2B3A0B329
:202280005EB31CB3DAB298B256B214B2D2B190B14EB10CB1CAB088B046B004B0C2AF80AF3E
:2022A0003EAFFCAEBAAE78AE36AEF4ADB2AD70AD2EADECACAAAC68AC26ACE4ABA2AB60AB62
:2022C0001EABDDAA9BAA59AA17AAD5A993A951A90FA9CDA88BA849A807A8C5A783A741A773
:2022E000FFA6BDA67BA639A6F7A5B5A573A531A5EFA4ADA46BA429A4E7A3A5A363A321A396
:20230000DFA29DA25BA219A2D7A195A153A112A1D0A08EA04CA00AA0C89F869F449F029FAC
:20232000C09E7E9E3C9EFA9DB89D769D349DF29CB09C6E9C2C9CEA9BA89B669B249BE29AC9
:20234000A09A5E9A1C9ADA99989956991499D29890984E980C98CA97899747970597C396E5
:2023600081963F96FD95BB9579953795F594B39471942F94ED93AB9369932793E592A392FD
:2023800061921F92DD919B9159911791D590939051900F90CD8F8B8F498F078FC58E838E1D
:2023A000418EFF8DBE8D7C8D3A8DF88CB68C748C328CF08BAE8B6C8B2A8BE88AA68A648A33
:2023C000228AE0899E895C891A89D888968854881288D0878E874C870A87C8868686448651
:2023E0000286C0857E853C85FA84B88476843484F383B1836F832D83EB82A982678225826C
:20240000E381A1815F811D81DB80998057801580D37F917F4F7F0D7FCB7E897E477E057E84
:20242000C37D817D3F7DFD7CBB7C797C377CF57BB37B717B2F7BED7AAB7A6A7A287AE679A5
:20244000A47962792079DE789C785A781878D677947752771077CE768C764A760876C675B8
:20246000847542750075BE747C743A74F873B67374733273F072AE726C722A72E871A671DB
:2024800064712271E0709F705D701B70D96F976F556F136FD16E8F6E4D6E0B6EC96D876DEF
:2024A000456D036DC16C7F6C3D6CFB6BB96B776B356BF36AB16A6F6A2D6AEB69A96967690F
:2024C0002569E368A1685F681D68DB67996757671667D466926650660E66CC658A65486528
:2024E0000665C46482644064FE63BC637A633863F662B46272623062EE61AC616A61286143
:20250000E660A46062602060DE5F9C5F5A5F185FD65E945E525E105ECE5D8C5D4B5D095D61
:20252000C75C855C435C015CBF5B7D5B3B5BF95AB75A755A335AF159AF596D592B59E95876
:20254000A75865582358E1579F575D571B57D956975655561356D1558F554D550B55C95497
:20256000875445540354C15380533E53FC52BA5278523652F451B25170512E51EC50AA50AE
:2025800068502650E44FA24F604F1E4FDC4E9A4E584E164ED44D924D504D0E4DCC4C8A4CCB
:2025A000484C064CC44B824B404BFE4ABC4A7A4A384AF749B54973493149EF48AD486B48E7
:2025C0002948E747A54763472147DF469D465B461946D745954553451145CF448D444B44FF
:2025E0000944C743854343430143BF427D423B42F941B74175413341F140AF406D402C4020
:20260000EA3FA83F663F243FE23EA03E5E3E1C3EDA3D983D563D143DD23C903C4E3C0C3C32
:20262000CA3B883B463B043BC23A803A3E3AFC39BA3978393639F438B23870382E38EC3755
:20264000AA3768372637E436A23661361F36DD359B3559351735D534933451340F34CD336B
:202660008B3349330733C53283324132FF31BD317B313931F730B53073303130EF2FAD2F89
:202680006B2F292FE72EA52E632E212EDF2D9D2D5B2D192DD82C962C542C122CD02B8E2BA4
:2026A0004C2B0A2BC82A862A442A022AC0297E293C29FA28B82876283428F227B0276E27BC
:2026C0002C27EA26A82666262426E225A0255E251C25DA24982456241424D22390234E23DE
:2026E0000D23CB22892247220522C32181213F21FD20BB2079203720F51FB31F711F2F1FF0
:20270000ED1EAB1E691E271EE51DA31D611D1F1DDD1C9B1C591C171CD51B931B511B0F1B11
:20272000CD1A8B1A491A071AC519841942190019BE187C183A18F817B61774173217F01628
:20274000AE166C162A16E815A61564152215E0149E145C141A14D813961354131213D01245
:202760008E124C120A12C811861144110211C0107E103C10FA0FB90F770F350FF30EB10E62
:202780006F0E2D0EEB0DA90D670D250DE30CA10C5F0C1D0CDB0B990B570B150BD30A910A79
:2027A0004F0A0D0ACB09890947090509C30881083F08FD07BB0779073707F506B30671069B
:2027C0002F06EE05AC056A052805E604A40462042004DE039C035A031803D60294025202AE
:2027E0001002CE018C014A014A014A014A014A014A014A014A014A014A014A014A014A019C
:2028000000009909990999099909990999099909990999099909990999099909990999093A
:20282000990999099909990999099909990999099909990999099909990999099909990978
:20284000990999099909990999099909990999099909990999099909990999099909990958
:20286000990999099909990999099909990999099909990999099909990999099909990938
:202880009909990999099909990999099909990999099509890984097809720966096109F4
:2028A0005509500944093909340929092409190914090909040999089508900885088108EC
:2028C000760872086808630859085508510847084308380834083108270823081908150827
:2028E000110808080408000897079307900786078307790776077207690766076207590799
:2029000056075307490746074307400737073407310728072507220719071607130710072F
:2029200007070507020799069606930691068806850683068006770675067206700667068E
:202940006406620659065706540652064906470645064206400637063506330630062806AD
:202960002606230621061906170614061206100608060606030601069905970595059305C1
:2029800091058805860584058205800578057605740572057005680566056405620560058A
:2029A00058055605540552055005490547054505430541053905370535053405320530058F
:2029C000280526052505230521051905170516051405120510050905070505050405020559
:2029E00000059804970495049304920490048804870485048304820480047904770475049F
:202A0000740472047104690467046604640463046104600458045704550454045204500467
:202A20004904470446044404430441044004390437043604340433043104300428042704BB
:202A40002504240423042104200418041704150414041304110410040804070406040404E4
:202A60000304020400049903970396039503930392039103890388038703850384038303E9
:202A8000810380037903770376037503740372037103700368036703660365036303620304
:202AA0006103600358035703560354035303520351035003480347034603450343034203E7
:202AC0004103400338033703360335033403320331033003290328032603250324032303C1
:202AE00022032003190318031703160315031303120311031003090308030603050304038B
:202B00000303020301030003980297029602950294029302920291028902880287028602C9
:202B20008502840283028202800279027802770276027502740273027202710269026802F9
:202B4000670266026502640263026202610260025902580256025502540253025202510293
:202B6000500249024802470246024502440243024202400239023802370236023502340232
:202B80003302320231023002290228022702260225022402230222022102200219021802B1
:202BA00017021602150214021202110210020902080207020602050204020302020201023F
:202BC000000299019801970196019501940193019201910190018901880187018601850174
:202BE000840183018201810180017901780177017601750174017301720171017001690145
:202C00006801670166016501640163016301620161016001590158015701560155015401B6
:202C2000530152015101500149014801470146014501440143014201410140013901380120
:202C4000370136013501340133013201310130012901280128012701260125012401230196
:202C60002201210120011901180117011601150114011301120111011001090108010701FC
:202C8000060105010401030103010201010100019900980097009600950094009300920068
:202CA0009100900089008800870086008500840083008200810080008000790078007700DE
:202CC000760075007400730072007100700069006800670066006500640063006200610042
:202CE0006000590058005700560056005500540053005200510050004900480047004600B3
:202D0000450044004300420041004000390038003700360035003400330032003100300017
:202D200029002800270026002600250024002300220021002000190018001700160015008D
:202D40001400130012001100100009000800070006000500040003000200010000000100EB
:202D6000020003000400050006000700080009001000000000000000000000000000000017
:202D8000000000000000000000000000000000000000000000000000000000000000000033
:202DA000000000000000000000000000000000000000000000000000000000000000000013
:202DC0000000000000000000000000000000000000000000000000000000000000000000F3
:202DE0000000000000000000000000000000000000000000000000000000000000000000D3
:202E00000000000000000000000000000000000000000000000000000000000000000000B2
:202E2000000000000000000000000000000000000000000000000000000000000000000092
:202E4000000000000000000000000000000000000000000000000000000000000000000072
:202E6000000000000000000000000000000000000000000000000000000000000000000052
:202E8000000000000000000000000000000000000000000000000000000000000000000032
:202EA000000000000000000000000000000000000000000000000000000000000000000012
:202EC0000000000000000000000000000000000000000000000000000000000000000000F2
:202EE0000000000000000000000000000000000000000000000000000000000000000000D2
:202F00000000000000000000000000000000000000000000000000000000000000000000B1
:202F2000000000000000000000000000000000000000000000000000000000000000000091
:202F4000000000000000000000000000000000000000000000000000000000000000000071
:202F6000000000000000000000000000000000000000000000000000000000000000000051
:202F8000000000000000000000000000000000000000000000000000000000000000000031
:202FA000000000000000000000000000000000000000000000000000000000000000000011
:202FC0000000000000000000000000000000000000000000000000000000000000000000F1
:202FE0000000000000000000000000000000000000000000000000000000000000000000D1
:2002B400C0E0C082C083C0D075D01863BC1074E7B5BC0885BE2785BD28807485BE2585BDA3
:2002D40026301F6BE52525E0FEE52633FF8E8274202FF583E493FEA3E493FFC3E5369EE5A6
:2002F400379F5022EEC39536FCEF9537A2E7CC33CC33A2E7CC33CC33CC5403FDEC2536FCFE
:20031400ED3537FD8021E536C39EFEE5379FA2E7CE33CE33A2E7CE33CE33CE5403FFE53648
:18033400C39EFCE5379FFDC2BF8C368D37D2BFD0D0D083D082D0E032DD
:0300C400752B0F8A
:20034C00C0E0C007C006C0D075D000C2AFE52B24F85011AE29AF2AC3EE9428EF942350047A
:20036C00C2958002D295D2AFD52B03752B0FAE29AF2AC3EE9428EF9423500DAE29AF2A74BA
:11038C00012EF529E43FF52AD0D0D006D007D0E032A2
:20039D00C2A9E522C4035407FF7006D2A975820322301706D2A97582022210150280047F93
:2003BD00008004C2167F01D2A98F8222C2A9E522540E60028006D2A975820322301306D228
:1703DD00A97582022210110280047F008004C2127F01D2A98F822299
:2003F40085825185835285F0537BFF7CFF7A00C3EA95505047EA2551F8E43552F9AF538891
:200414008289838FF0121849FF78008B058C06ED6200EE620788038F047F08EC30E712EB64
:200434002BFDEC33FE6305216306108D038E048006EB2BFBEC33FCDFE20A80B38B828C8373
:010454002285
:1B00C7007539107530007531007532007533007534037535007536007537FF1A
:20045500AE82AF83E49390300093FD8D308E828F83A3E49390300093FD8D318E828F83A392
:20047500A3E49390308093FD8D328E828F83A3A3A3E49390300093FF8F3322E582FFC45488
:200495000F90300093FE8E3053070F7E00EF2400F582EE3430F583E493FF8F31E550C4546B
:2004B5000F90308093FF8F32AE5053060F7F00EE2400F582EF3430F583E493FF8F3322AF43
:2004D50082900003E02323540160208F82C00712088BD007853850C007120490D007EF243F
:2004F500EE5010747F5533F53380088538508F82120490900002E0FF30E011903030E493B1
:20051500FFB53008903020E493FF8F3022900003E0235401600B853E82853D5012049080D0
:2005350009853D82853E50120490747F5531F531900002E0FF30E021903030E493B530080B
:20055500903020E493FF8F309030B0E493FFB532089030A0E493FF8F3222E582601190304B
:20057500CFE493FF8F3290304EE493FF8F33229030CFE493FF8F32903046E493FF8F3322D2
:20059500AE82AF838F0553050F7C00ED2400F582EC3430F583E493FD8D308E04EFC4CCC417
:2005B500540F6CCC540FCC6CCC53040F7D00EC2400F582ED3430F583E493FD8D3153060F57
:2005D5007F00EE2480F582EF3430F583E493FF8F32903043E493FF8F33747F5531F5312280
:2005F500C0E0C0F0C0D075D00810DF02803DAF36740F5FF5EA8537FAE5342430F987A074AE
:20061500F8253940118534F005F0E5358002C313D5F0FB20E033AF348FF005F074048002CA
:2006350025E0D5F0FBF4FF52B0801E10D802801943B03CE534700DAF391539EF70037539BF
:1006550010753404E53414F534D0D0D0F0D0E03240
:20066500C291C292C290000000000000000000000000000000000000000022C291D29000A5
:2006850000000000000000000000000000000000000000020719D291000000A2919208D231
:2006A5009200000000C292000000A2919209D29200000000C292000000A291920AD2920096
:2006C500000000C292000000A291920BD29200000000C292000000A291920CD29200000004
:2006E50000C292000000A291920DD29200000000C292000000A291920ED29200000000C21E
:2007050092000000A291920FD29200000000C29285218222858221A2089291D29200000013
:2007250000C292A2099291D29200000000C292A20A9291D29200000000C292A20B9291D2B1
:200745009200000000C292A20C9291D29200000000C292A20D9291D29200000000C292A2F9
:200765000E9291D29200000000C292A20F9291D29200000000C2922275828E1206807582C9
:2007850000120719C2901206657582BE1206807F00901869E4932FF98782C007120719D005
:2007A500070FBF08ECC290227582FF1206807F008F057E00C007C006C00512069BAC82D0D5
:2007C50005D006D0078D828E83ECF00FBF1FE1C290227582FE1206807F008F82758300E02F
:2007E500F582C007120719D0070FBF1FEDC29022900000E0FF900001E0FDE4FEFCEF42066D
:20080500EC420575501D90000275F000C006C0051203F4AC82AF83D005D006ECB50608EF8A
:20082500B50504758201227582002275501D90000275F0001203F4AE82AF838E059000005B
:20084500EDF08F06900001EEF02275500075513275528075530875540090003A75F0401272
:2008650017BC75500875513275528075531F75540090000075F0001217BC12083012077D2A
:200885001206650207D7E582FF700475821222EF24ED50087550888F820208A48F8222C09A
:2008A500E0C0D0E5822550D4F582D0D0D0E022C0E0C0D0C2D7E5822550D4F582E58335514C
:0808C500D4F583D0D0D0E0226D
:011869003A44
:20320000001110290706260000000000000000000000000000000000000000000000000031
:073220000000000000700037
:1700E200754500754700754800754900754B00754200E4F543F5444A
:2008CD001203C9AF82C00712039D858246D0077407B54503020A01BF0103EF8001E4FD6066
:2008ED000C7401B5460775450075820022EF701DC007C0051217B1858243858344D005D078
:20090D0007C21E05457406B54503754500ED6012C0071217B1858243858344D007C21E75A6
:20092D004500E5467012C0071217B1858243858344D007C21E754502E54570030209DE3058
:20094D001E5FC0071217B1E5828583F0D007C39543FCE5F09544FDC374C89CE49D40030293
:20096D000A0105457406B545028022900003E0FD8545F005F0ED8002C313D5F0FB30E0E2E7
:20098D001217B185824385834475820122C0071217B1858243858344D007C21E7545008098
:2009AD0053C0071217B1E5828583F0D007C39543FCE5F09544FDC3742C9C74019D5035C068
:2009CD00071217B1858243858344D0077545008023C0071217B1E5828583F0D007C39543ED
:2009ED00FCE5F09544FDC374E89C74039D5005D21E02096F7582BFC007120680D007D29166
:200A0D00000000A2919208D29200000000C292000000A2919209D29200000000C2920000BE
:200A2D0000A291920AD29200000000C292000000A291920BD29200000000C292000000A2F8
:200A4D0091920CD29200000000C292000000A291920DD29200000000C292000000A2919253
:200A6D000ED29200000000C292000000A291920FD29200000000C292E521F53AD29100007F
:200A8D0000A2919208D29200000000C292000000A2919209D29200000000C292000000A29C
:200AAD0091920AD29200000000C292000000A291920BD29200000000C292000000A29192F7
:200ACD000CD29200000000C292000000A291920DD29200000000C292000000A291920ED216
:200AED009200000000C292000000A291920FD29200000000C292AD218D3BD291000000A2DC
:200B0D00919208D29200000000C292000000A2919209D29200000000C292000000A291929A
:200B2D000AD29200000000C292000000A291920BD29200000000C292000000A291920CD2BB
:200B4D009200000000C292000000A291920DD29200000000C292000000A291920ED29200E1
:200B6D00000000C292000000A291920FD29200000000C292E521F53CD291000000A2919229
:200B8D0008D29200000000C292000000A2919209D29200000000C292000000A291920AD261
:200BAD009200000000C292000000A291920BD29200000000C292000000A291920CD2920085
:200BCD00000000C292000000A291920DD29200000000C292000000A291920ED292000000F3
:200BED0000C292000000A291920FD29200000000C292E521F53DD291000000A2919208D2CE
:200C0D009200000000C292000000A2919209D29200000000C292000000A291920AD2920028
:200C2D00000000C292000000A291920BD29200000000C292000000A291920CD29200000096
:200C4D0000C292000000A291920DD29200000000C292000000A291920ED29200000000C2B0
:200C6D0092000000A291920FD29200000000C292E521F53ED291000000A2919208D292007C
:200C8D00000000C292000000A2919209D29200000000C292000000A291920AD2920000003A
:200CAD0000C292000000A291920BD29200000000C292000000A291920CD29200000000C254
:200CCD0092000000A291920DD29200000000C292000000A291920ED29200000000C2920060
:200CED000000A291920FD29200000000C292E521F53FD291000000A2919208D2920000008D
:200D0D0000C292000000A2919209D29200000000C292000000A291920AD29200000000C2F7
:200D2D0092000000A291920BD29200000000C292000000A291920CD29200000000C2920003
:200D4D000000A291920DD29200000000C292000000A291920ED29200000000C29200000071
:200D6D00A291920FD29200000000C292E521F540C290EDB54203020E13900003E0FD20E0D3
:200D8D0003020E137D00BD07005078ED75F003A4FBACF02404FAEC3400FE8A828E83A3A3E4
:200DAD00E0FE853FF005F0EE8002C313D5F0FB30E04EEB2404FAEC3400FE8A828E83A3A3AD
:200DCD00E0FE30E03BEB2404F582EC3400F583E0FEB53C2CEB2404FBEC3400FC8B828C837A
:200DED00A3E0FEB53B1A53AFFBE4F529F52A43AF04C21FC2AF7536007537EAD2AF75450772
:200E0D000D8083853B42E54524F85003020F30E545240B83F582E545240C83F583E4733C9E
:200E2D007D9DFB2227303C0E0E0E0E0F0F0F0E7407B5451C75350FBF01167401B546117552
:200E4D00350053AFFBC2AFD295D2AFD21F754500853C82853B381204D4E53A20E003020FF7
:200E6D0030747F5531F531747F5532F532020F30853B82853A50120490E53A20E003020F8A
:200E8D0030747F5531F531747F5532F532020F30C2ADAE27AF28D2ADEE2EFEEF33FF8E82AF
:200EAD0074282FF583E493FEA3E493FF90001DE0FD90001EE0FBE4FCFAED4204EA42038C79
:200ECD00508B518E828F831208B4AE82AF838E048F05C374999C74099D50047E997F098E5A
:200EED00828F83120595747F5531F5318035AE3F7F00EE24FFF550EF34FFF5519000051280
:200F0D00182CAE82AF83EE2400F582EF3431F583120455800E1205228009854050758220E2
:200F2D00120490758201221203C9AF82C00712039DAE82D007E5476020BF0110753500121D
:200F4D00077D75426075470075820022EF700A05477407B547037547017D00EE6003BE029A
:200F6D00027D01E54724F950030210BBE54775F003A4900F8373020F98020FAD020FAD0287
:200F8D00100102100102105F021080EE70020547EF7004758202229031231204550210BBD7
:200FAD007401B5471B853C828D50C0051208A4AF82D005EFF53C24DC5003753C007535031E
:200FCD007402B54717853B828D501208A4E582FFF53B24A65003753B0075350C853C8285BD
:200FED003B381204D4747F5531F531747F5532F5320210BB7403B5472A853D828D50C005F7
:20100D001208A4AF82D005EFF53D24CE5003753D00900003E0235401FF600575350C80035F
:20102D007535037404B54725853E828D501208A4E582F53E24ED5003753E00900003E02336
:20104D005401FF6005753503800375350C120522805C8540828D501208A4E582F5402466C7
:20106D00500375400075350F854050758220120490803B853F828D501208A4E582F53F2475
:20108D00F85003753F0175350FAE3F7F00EE24FFF550EF34FFF55190000512182CAE82AF96
:2010AD0083EE2400F582EF3431F583120455758201221203C9AF82C00712039D85824AD01D
:2010CD00077D00E54A60057402B54A027D01E4B5480280077401B5486F801AEF70047582B7
:2010ED000222E54A700605487582012290312812045502141CBF011075480012083012073D
:20110D00D775426075820022E54A7008900003E06401FCF0900003E030E00C90312DC0070C
:20112D00120455D007800A903132C007120455D007747F5531F531747F5532F532EF600348
:20114D0002141C054802141CE54924F6500302141CE549240B83F582E549240E83F583E46E
:20116D00738226265B5B5B5B5B5B5B11121213131313131313EF701205487409B548028030
:20118D000302141C75480102141CE54A7032E54824FE75F003A4FBACF02404FAEC3400FE1A
:2011AD0074022AFAE43EFEEB2404FBEC3400FC8B828C83A3A3E0FC6304018A828E83ECF09F
:2011CD007401B54A05054902141CBF010A75490075480075820022903041E493FE8E30E592
:2011ED004824FE90300093FE8E31E54824FE75F003A42404FC740035F0FE8C828E83A3A3ED
:20120D00E0FE74015EF58212056F747F5531F531747F5532F53202141CEF70080549753542
:20122D000002141CBF010975490075350002141C7401B54968E54824FE75F003A4FCAEF03C
:20124D002404FAEE3400FBEC2404F582EE3400F583E0FE8D508E82C005C003C0021208A44A
:20126D00AE82D002D003D0058A828B83EEF0E54824FE75F003A42404F582740035F0F583B4
:20128D00E0FE24DC5014E54824FE75F003A42404F582740035F0F583E4F07535037402B548
:2012AD004972E54824FE75F003A4FCAEF02404FAEE3400FB0ABA00010BEC2404FCEE340030
:2012CD00FE8C828E83A3E0FE8D508E82C003C0021208A4AE82D002D0038A828B83EEF0E581
:2012ED004824FE75F003A42404FC740035F0FE8C828E83A3E0FE24A65017E54824FE75F02B
:20130D0003A42404FC740035F0FE8C828E83A3E4F075350CE54824FE75F003A4FCAEF024F9
:20132D0004F582EE3400F583E0FBEC2404FCEE3400FE8C828E83A3E0F5388B821204D47446
:20134D007F5531F531747F5532F53202141CAC497E00EC24FDF550EE34FFF551900005C001
:20136D0007C00512182CAC82AE83EC2400F582EE3431F583120455D005D007AE491E1EE55E
:20138D004824FE75F003A42404FB740035F0FC8B828C83A3A3E0FC8EF005F0EC8002C3131D
:2013AD00D5F0FB30E008747F5533F533800674804533F533ED6043AE491E1EE54824FE7504
:2013CD00F003A4FDACF02404FAEC3400FB74022AFAE43BFBED2404FDEC3400FC8D828C8393
:2013ED00A3A3E0FD8EF005F07401800225E0D5F0FBFE62058A828B83EDF0EF700C05497405
:20140D000AB5490B7549018006BF0103754900758201221203C9AF82C00712039DAE82D044
:20142D0007E54B24F350030216C4E54B240B83F582E54B241183F583E4736185426EF70B7A
:20144D000B0B0B0B0B0B0B14141515151616161616161616EF70131208301207D71217B195
:20146D0085824385834475820222EE7002054B9031371204550216C4BF0107754B00758241
:20148D000022EF7003754B02EE6003BE0215900019E0FD0D900019EDF0ED24F550059000CF
:2014AD0019E4F0900019E07004D21F802DC21FC2AF900019E0FD7C001DBDFF011C8D508CE4
:2014CD00519019DE12182CE5828583F0242CFC740135F0FD8C368D37D2AF903062E493FDF2
:2014ED008D30903072E493FD8D31900019E0FDBD0A129030B1E493FD8D32903030E493FD57
:20150D008D3380229030A0E493FD8D32900019E02430FD3395E0FCED2400F582EC3430F57E
:20152D0083E493FD8D33747F5531F531747F5532F5320216C4EF7003754B04EE701A754B6D
:20154D000390001DE0FD90001EE0FBE4FCFAED4204EA42038C4C8B4D9031411204550216F7
:20156D00C4BF0111754B02AD4C90001DEDF0AD4D90001EEDF0EE6003BE021575500175514D
:20158D0000854C82854D831208B485824C85834DAC4CAD4DC374409C74019D5005E4F54C8F
:2015AD00F54DC2ADAC27AD28D2ADEC2CFCED33FD8C8274282DF583E493FCA3E493FD854C6B
:2015CD0050854D518C828D831208B4AC82AD838C028D03C374999A74099B50047C997D09B2
:2015ED008C828D831205950216C4EE7003754B05EF7002F54B9031461204550216C4AC4B2C
:20160D007D00740A2CF550E43DF551900005C007C00612182CAC82AD83EC2400F582ED346C
:20162D0031F583120455D006D007740CB54B028047900003E0FDE54B24FCF5F005F0ED808C
:20164D0002C313D5F0FB5401F582C007C00612056FD006D007EE7040900003E0FDE54B24F7
:20166D00FCF5F005F07401800225E0D5F0FBFC6205900003EDF08020900002E0FD74015D17
:20168D00F582C007C00612056FD006D007EE7008900002E06401FEF0747F5531F531747F49
:1B16AD005532F532EF700A054B740DB54B03754B05BF0103754B0475820122D1
:20330000340FCD08CD08CD08340FBF10CD08BF102014CD082014CD0801000000010200021D
:0433200003000300A3
:20300000C0F9A4B0999282F880908883C6A1868EFFFFFFFFFFFFFFFFFFFFFFFFFFFFFFFF78
:20302000FFFFDDFFFFFFFFFDC6F0FFFFEFBFFFFFC0F9A4B0999282F88090FFFFFFFFFFFFA0
:20304000FF8883C6A1868EC289F9F1FFC7FFABC08C98AF9287C1FFFFFF91FFC6FFF0FFF7A1
:20306000DF8883A7A1848EC28BFBF1FFF9FFABA38C98AF9287E3FFFFFFFFFFFFFFFFFFFFC9
:20308000C0CFA4868B9290C780828198F08CB0B1FFFFFFFFFFFFFFFFFFFFFFFFFFFFFFFF1B
:2030A000FFFFEBFFFFFFFFEFF0C6FFFFFDBFFFFFC0CFA4868B9290C78082FFFFFFFFFFFFA5
:2030C000FF8198F08CB0B1D089CFCEFFF8FF9DC0A183BD92B8C8FFFFFF8AFFF0FFC6FFFE87
:2030E000FB8198BC8CA0B1D099DFCEFFCFFF9D9CA183BD92B8DCFFFFFFFFFFFFFFFFFFFF0A
:203100004E4F4E2000545545200055454420005448555200465249200053415420005355A4
:203120004E200053455443005345544100414C4F4E00414C4F4600434F4E4600425220207F
:20314000005443414C0044495350004E53202000545020200044552020004454202000594C
:133160005220200031322020004E44202000523020200093
:0500F900E4F54EF54F97
:2016C800C0E0C0D075D010AE4EAF4F74012EF54EE43FF54F74E7B5BC0BE4F5BEF5BD75BCE5
:2016E800E675BCEE74E6B5BC0BE4F5BEF5BD75BCE775BCEFE52C25E0FFA2B1E4334FF52C97
:20170800E52D25E0FFA2B0E4334FF52DAE2C5316877F00BE800EBF000BD2105322F1752E87
:2017280000752C00AE2D5316877F00BE800EBF000BD21453221F752F00752D00AE2C53169D
:20174800877F00BE071ABF001710130CE52E24DF5004D2128002D211C210752E00752CFFCF
:20176800AE2D5316877F00BE071ABF001710170CE52F24DF5004D2168002D215C214752FF9
:2017880000752DFF30100DE52E04FF8F2EBF96004002D21330140DE52F04FF8F2FBF960089
:1417A8004002D217D0D0D0E032C2A9854E82854F83D2A922CC
:06009A00E478FFF6D8FD3A
:2017BC00AD82AE83AFF08D558E568F5785505885515985525AA853A9548803890418B8FFF6
:2017DC000119EB4C6025855882855983855AF0121849FCA38582588583598D828E838FF017
:1517FC00EC121811A3AD82AE8380CE8555828556838557F022B8
:200078007900E94400601B7A0090186A780175A000E493F2A308B8000205A0D9F4DAF275AC
:02009800A0FFC7
:1B18110020F71130F6138883A88220F509F6A8837583002280FEF280F5F022D6
:1D182C00E5828550F0A4C582C0F08551F0A4D0F025F0C5838550F0A42583F58322A6
:2000A0007800E84400600A790175A000E4F309D8FC7800E84400600C7900900001E4F0A35E
:0400C000D8FCD9FA95
:0F006900E47375815A121865E582600302006620
:1C18490020F71430F6148883A88220F507E6A88375830022E280F7E49322E022AE
:041865007582002266
:00000001FF
